:100000000C94CD010C94EA010C94EA010C94EA01E1
:100010000C94EA010C94EA010C94EA010C94EA01B4
:100020000C94EA010C94DE0D0C94EA010C949E0FE2
:100030000C94EA010C94EA010C94EA010C94EA0194
:100040000C94EA010C94EA010C94360C0C94EA012D
:100050000C94EA010C94EA010C94EA010C94EA0174
:100060000C94EA010C94EA01084AD73B3BCE016E9E
:1000700084BCBFFDC12F3D6C74319ABD56833DDAFF
:100080003D00C77F11BED9E4BB4C3E916BAAAABE0E
:10009000000000803F05A84CCDB2D44EB93836A937
:1000A000020C50B9918688083CA6AAAA2ABE000074
:1000B00000803F0D0A000D0A4772626C20302E3618
:1000C00062000A0D006572726F723A2000657272EA
:1000D0006F723A20466C6F6174696E6720706F6949
:1000E0006E74206572726F720A0D006572726F72A3
:1000F0003A20556E737570706F72746564207374F6
:100100006174656D656E740A0D006572726F723A86
:1001100020457870656374656420636F6D6D616EF2
:1001200064206C65747465720A0D006572726F727A
:100130003A20426164206E756D62657220666F724E
:100140006D61740A0D006F6B0A0D005761726E6964
:100150006E673A204661696C656420746F20726531
:10016000616420454550524F4D2073657474696E2B
:1001700067732E205573696E672064656661756CC0
:1001800074732E0D0A0027242720746F2064756D68
:10019000702063757272656E742073657474696E15
:1001A00067730D0A0053746F726564206E65772063
:1001B00073657474696E670D0A00556E6B6E6F77A8
:1001C0006E20706172616D657465720D0A000D0AB2
:1001D0002724783D76616C75652720746F207365E0
:1001E0007420706172616D65746572206F72206A2F
:1001F0007573742027242720746F2064756D702018
:1002000063757272656E742073657474696E67735A
:100210000D0A0020286D617820696E7374616E7418
:1002200020636F726E6572696E67207370656564B6
:10023000206368616E676520696E2064656C746117
:10024000206D6D2F6D696E29002028616363656CD8
:1002500065726174696F6E20696E206D6D2F7365B4
:10026000635E32290D0A2439203D2000290D0A241D
:1002700038203D200020287374657020706F7274E0
:1002800020696E76657274206D61736B2E206269D1
:100290006E617279203D200020286D6D2F617263A0
:1002A000207365676D656E74290D0A2437203D2023
:1002B0000020286D6D2F6D696E2064656661756C18
:1002C00074207365656B2072617465290D0A24368C
:1002D000203D200020286D6D2F6D696E20646566BD
:1002E00061756C7420666565642072617465290DA2
:1002F0000A2435203D200020286D6963726F7365E4
:10030000636F6E647320737465702070756C7365B1
:10031000290D0A2434203D20002028737465707351
:100320002F6D6D207A290D0A2433203D20002028CE
:1003300073746570732F6D6D2079290D0A24322036
:100340003D2000202873746570732F6D6D2078290F
:100350000D0A2431203D20002430203D2000494E4C
:1003600046494E4954594E414ECDCCCC3D0AD72337
:100370003C17B7D13877CC2B329595E6241FB14F77
:100380000A000020410000C84200401C4620BCBEBC
:100390004CCA1B0E5AAEC59D740011241FBECFEF70
:1003A000D8E0DEBFCDBF11E0A0E0B1E0E6E5F1E4CA
:1003B00002C005900D92A030B107D9F717E0A0E078
:1003C000B1E001C01D92AC38B107E1F70E946403AF
:1003D0000C94A9200C940000A0E0B0E0E2EFF1E062
:1003E0000C947820EC015B016115710519F0FB019B
:1003F00091838083F9908F2D90E00E946720892B54
:10040000C9F7FDE2FF1621F4F990EE24E39405C04C
:100410002BE2F21609F4F990EE248E0101501040FF
:10042000C8016EE573E043E050E00E944C03892B65
:1004300001F58E010E5F1F4FC80161E673E045E0D4
:1004400050E00E944C03892B19F48E01095F1F4F65
:10045000A114B10419F0F50111830083E0FC04C07C
:1004600070E090E080E814C070E090E080E86FEF0A
:1004700008C1C80166E673E043E050E00E944C0307
:10048000892B69F4A114B10429F470E090E080ECA8
:100490006FE7F7C02296F501D183C083F6CF882499
:1004A000992440E050E060E070E0EF2DE053EA3046
:1004B000A0F5F2E0EF2A8E2D90E09C0128703070BC
:1004C000E2FE06C0232B79F50894811C911C2BC0F9
:1004D000232B19F0089481089108DB01CA0112E06E
:1004E000880F991FAA1FBB1F1A95D1F7480F591FD4
:1004F0006A1F7B1F440F551F661F771F4E0F511D2C
:10050000611D711D483929E9520729E9620729E16E
:10051000720748F084E0E82A06C0EE3F31F4E3FCBD
:1005200039C098E0E92AF990C0CFE53311F0E53100
:1005300089F529912D3219F4E0E1EE2A05C02B321C
:1005400019F081E090E003C0299182E090E0E22F71
:10055000E053EA3018F0C81BD90B1CC020E030E093
:10056000FCE020383F075CF4C901880F991F880F11
:10057000991F280F391F220F331F2E0F311DE991AC
:10058000E053EA3068F3E4FE03C0309521953F4F15
:10059000820E931ECE2CDD24E1FE07C0A114B1040F
:1005A00021F02197F501D183C083CB01BA010E94CC
:1005B000741C7B018C01F3E0CF22DD2423E0C21602
:1005C000D10421F417FB109517F910955701680114
:1005D000C801B70120E030E040E050E00E94D41BA9
:1005E000882309F44AC097FE0DC02DE7E22E23E0D0
:1005F000F22E9094819491089394C0E2D0E000E0B0
:1006000010E012C095E9E92E93E0F92EF6CFF7013C
:100610002591359145915491C601B5010E94E71E7F
:100620005B016C018C1A9D0A8C169D0684F7D5958A
:10063000C7950F5F1F4F0630110529F08CEF9FEF14
:10064000E80EF91EF1CFC501D6017C018D018C2D7C
:10065000880F8D2D881F8F3F51F0C601B50120E016
:1006600030E040E050E00E94D41B882331F482E265
:1006700090E090938B0780938A077E2D9F2D802F8B
:10068000612F272F392F482F562FB901CA01CDB717
:10069000DEB7ECE00C949420FB01DC0141505040AB
:1006A00088F08D9181341CF08B350CF4805E65915F
:1006B00061341CF06B350CF4605E861B611171F3C4
:1006C000990B0895881BFCCF0E94630D0E94411373
:1006D0000E9438150E94A30E0E94CE0B0E94DA05DC
:1006E00083B7816083BF889583B78E7F83BF0E9465
:1006F000A90DF6CF0E94900F08952F923F924F922E
:100700005F926F927F928F929F92AF92BF92CF92A1
:10071000DF92EF92FF920F931F93DF93CF93CDB7AA
:10072000DEB7AE970FB6F894DEBF0FBECDBF2B017C
:100730003C0129A33AA34BA35CA3EDA2FEA20FA305
:1007400018A72F962EAC3FAC2F970E94071498A3A2
:100750008F8F80E090E00E941E1569A17AA18BA185
:100760009CA12DA13EA14FA158A50E94E71E7B018F
:100770008C01C601B5010E94431C97FF07C09095EC
:100780008095709561957F4F8F4F9F4F0E94761C8B
:100790009B01AC01C801B7010E94EF1D7B018C01D8
:1007A00020E030E040E050E00E94D41B882309F4B0
:1007B00024C1C801B70120917E0730917F07409185
:1007C0008007509181070E94DB1B0E94C11B0E9481
:1007D000481C7E8F6D8F2D962EAD3FAD2D97232B10
:1007E000A1F080E090E00E94741C9B01AC012B966C
:1007F0006CAD7DAD8EAD9FAD2B970E94E71E2B9605
:100800006CAF7DAF8EAF9FAF2B97ED8DFE8DBF018F
:1008100080E090E00E94741C7B018C0169A17AA1A8
:100820008BA19CA1A80197010E94DB1B698F7A8F85
:100830008B8F9C8FC601B501A80197010E94DB1B1D
:100840006D8B7E8B8F8B988FC301B2010E946A1FC4
:100850006401CC0CDD1CCC0CDD1C81010C0D1D1DBC
:100860002DA13EA14FA158A50E94E71E9B01AC01FE
:10087000D8016D917D918D919C910E94341B698B63
:100880007A8B8B8B9C8BC301B2010E94D81B25965F
:100890000EAD1FAD2597000F111F000F111F710125
:1008A000E00EF11E2DA13EA14FA158A50E94E71E0A
:1008B0009B01AC01F70160817181828193810E946B
:1008C000341B6D877E878F87988B27968EAD9FAD63
:1008D0002797880F991F880F991F9E012F5F3F4F01
:1008E000F901E80FF91F280E391ED1014D915D91D4
:1008F0006D917C91408351836283738322243324DE
:10090000FAA7E9A7F901EC0DFD1DFCA7EBA7C901AA
:10091000800F911F9EA78DA766C0A9A5BAA56D914E
:100920007D918D919C912D893E894F89588D0E9492
:10093000351BE9A5FAA56083718382839383C30184
:10094000B201298D3A8D4B8D5C8D0E94351B2B0198
:100950003C010E946A1F2DA13EA14FA158A50E94F3
:10096000E71E9B01AC0169897A898B899C890E9469
:10097000351BABA5BCA56D937D938D939C9313976D
:10098000C301B2010E94D81B2DA13EA14FA158A5C1
:100990000E94E71E9B01AC016D857E858F8598893D
:1009A0000E94351BEDA5FEA560837183828393832E
:1009B00069817A818B819C812D813E814F8158850F
:1009C000E984FA840B851C852B96ACACBDACCEAC0F
:1009D000DFAC2B972D968EAC9FAC2D970E943318D1
:1009E0000894211C311C2D8D3E8D2215330508F0F5
:1009F00094CF8F8D98A10E941E15AE960FB6F894D5
:100A0000DEBF0FBECDBFCF91DF911F910F91FF9041
:100A1000EF90DF90CF90BF90AF909F908F907F909E
:100A20006F905F904F903F902F900895AF92BF923C
:100A3000CF92DF92EF92FF920F931F937B018C0175
:100A40000E94910FC801B7010E94741C5B016C01E8
:100A500020E030E04AE755E40E94E71E7B018C016C
:100A600020E030E040E85FE30E94D41B88231CF4C0
:100A700061E070E024C0C801B70120E03FEF4FE71C
:100A800057E40E94E21D1816B4F4C601B50120E037
:100A900030E040E251E40E94E71E0E94481C80E9D9
:100AA00091E005C0FC013197F1F76150704061158C
:100AB0007105C1F707C0C801B7010E94481CCB01EE
:100AC0000197F1F71F910F91FF90EF90DF90CF907A
:100AD000BF90AF900895AF92BF92CF92DF92EF9206
:100AE000FF920F931F93DF93CF9300D0CDB7DEB764
:100AF0006C015B017A01FB0100811181080F191F54
:100B0000C801BE016F5F7F4F0E94EC01F701608357
:100B100071838283938389819A818017910731F44D
:100B200081E08093000120E030E007C08C199D092E
:100B3000F5019183808321E030E0C9010F900F908F
:100B4000CF91DF911F910F91FF90EF90DF90CF90A9
:100B5000BF90AF9008950F931F93CF93DF93EC0155
:100B60008B01D901ED91FC911197E40FF51FE08104
:100B7000EE2339F0E883E154EA3130F082E08093EB
:100B8000000120E030E010C08D919C9111970196FA
:100B90008D939C93CA01B901A8010E946B0500972F
:100BA00011F081E090E09C01C901DF91CF911F918C
:100BB0000F91089582E2E0E0F1E0DF011D928A9555
:100BC000E9F76091750770917607809177079091AA
:100BD000780720E030E040E752E40E94DB1B60939E
:100BE00008017093090180930A0190930B016091B1
:100BF000790770917A0780917B0790917C0720E0BC
:100C000030E040E752E40E94DB1B60930C017093DC
:100C10000D0180930E0190930F0110921F0191E03E
:100C20009093200182E08093210190930401089524
:100C3000AF92BF92CF92DF92EF92FF920F931F93EA
:100C400079018A015F770E94DB1B0E94991B5B017F
:100C50006C01C801B70120E030E040E050E00E94A4
:100C6000E21D1816CCF0C601B50120E030E040E0EE
:100C700050E00E94E21D18162CF46BED7FE089E431
:100C800090E404C06BED7FE089E490ECA60195014F
:100C90000E94341B5B016C01B501C6011F910F91CD
:100CA000FF90EF90DF90CF90BF90AF9008952F927C
:100CB0003F924F925F926F927F928F929F92AF92EC
:100CC000BF92CF92DF92EF92FF920F931F93DF9329
:100CD000CF93CDB7DEB7EE970FB6F894DEBF0FBE59
:100CE000CDBF5C011B821A8280E090E0A0E0B0E002
:100CF00088879987AA87BB878CE0FE013C96DF0135
:100D0000282F1D922A95E9F7FE017896DF011D92A2
:100D10008A95E9F710920001F5018081883259F136
:100D20008F3229F48A819B8101969B838A83D50126
:100D30008C918432B1F01AAA19AA42E0242E312CE7
:100D40002C0E3D1E31E0432E512C23E0922E92E0DA
:100D5000C92E66246A94762CDD24D39484E0882EF0
:100D60002DC181E090E09B838A83F50181818823F6
:100D700021F40E94A31280E0F8C48E010E5F1F4F81
:100D8000C501B801AE01485F5F4F0E946B052A8123
:100D90003B81F501E20FF31F80818D3309F0E4C43C
:100DA0002F5F3F4F3B832A83C501B801AE014C5FE3
:100DB0005F4F0E946B05EA81FB81EA0DFB1D80817C
:100DC000882309F0D1C4688579858A859B850E942E
:100DD000431CDC01CB014C815D816E817F810E94CF
:100DE0002E12BFC46C817D818E819F810E94C11FA4
:100DF0007B018C010E94431C49814D3409F4A3C03E
:100E0000443509F4D1C0473409F0D4C064317105C8
:100E100009F481C0653171054CF56330710509F441
:100E200062C0643071056CF46130710509F455C01D
:100E3000623071050CF054C06115710509F44AC0A7
:100E4000B0C06131710509F451C0623171052CF4F3
:100E50006430710509F0A5C03AC06231710509F42A
:100E60004CC06331710509F09CC04EC060357105FE
:100E700009F45AC0613571059CF46C31710521F19A
:100E80006D3171052CF46531710509F08AC046C0D9
:100E90006E317105C9F06533710509F082C041C03A
:100EA0006B35710509F446C06C3571052CF46A3553
:100EB000710509F076C03BC06D357105F1F16E35F5
:100EC000710509F06EC03CC0F2E0F9AB73C021E0DF
:100ED00029AB70C0109201016DC0D09201016AC0AF
:100EE000C092010167C09092010164C010921F017D
:100EF000D0922001C09221015DC010921F01C092CA
:100F00002001D092210156C0D0921F01C092200131
:100F1000109221014FC0D09203014CC010920301E6
:100F200049C031E03AAB46C08092010143C0D09243
:100F3000040140C0109204013DC0D09202013AC0A9
:100F40001092020137C063307105E1F06430710521
:100F500034F477FD26C06230710574F010C065303E
:100F60007105D1F06530710594F06E31710539F07D
:100F70006C337105B1F403C0D09205011BC0C0925F
:100F8000050118C0509207014092060113C07092EB
:100F90000701609206010EC010920701109206012F
:100FA00009C09092000106C0C801B7010E94481C08
:100FB00060931C0180910001882361F4CE010196A9
:100FC000BE016C5F7F4FA50191010E94AB05892B8B
:100FD00009F008CF80910001882309F0C6C31B8265
:100FE0001A828CE0FE017896DF011D928A95E9F75E
:100FF000DE011C96E0E1F1E08CE001900D92815061
:10100000E1F71BAE1CAEB0E8BDAFEFEBEEAF662470
:10101000772460E070E080E090E06DA77EA78FA766
:1010200098AB04E0202E312C2C0E3D1E12E0412EF8
:10103000512C4C0E5D1E4E010894811C911CBCC0AD
:10104000CC80DD80EE80FF8080910301882319F43D
:10105000A70196010AC0C701B60123E333E34BECB5
:1010600051E40E94E71E9B01AC010981003509F49F
:1010700064C001355CF4063401F106340CF49CC004
:10108000802F8954833008F097C046C0033509F497
:1010900059C0043524F4023509F08EC006C0802FF3
:1010A0008855833008F088C056C02DA73EA74FA7AB
:1010B00058ABB1E06B2E712C7FC080910201882368
:1010C00029F02BAF3CAF4DAF5EAF76C080910101F0
:1010D000882389F4CA01B90120E030E040E752E4F6
:1010E0000E94DB1B60930C0170930D0180930E0135
:1010F00090930F0161C0CA01B90120E030E040E7E0
:1011000052E40E94DB1B60930801709309018093F5
:101110000A0190930B0150C0E02FFF27E7FDF095E7
:10112000E954F040EE0FFF1FEE0FFF1FE80DF91D11
:10113000278B308F418F528F3FC0C886D986EA8671
:10114000FB863AC0C701B6010E94431C70931E0182
:1011500060931D0131C080910401882319F47AA99C
:10116000772389F0E02FFF27E7FDF095E855F04061
:10117000EE0FFF1FEE0FFF1FE80DF91D23873487C9
:101180004587568719C0112707FD1095085510404F
:10119000000F111F000F111F080D191DD8011B96FC
:1011A0006D917D918D919C911E970E94351BF80148
:1011B0006387748785879687C401B101A501920171
:1011C0000E94AB05892B09F03BCF80910001882359
:1011D00009F0CBC28091060190910701009759F068
:1011E00040911D0150911E01662757FD6095762F95
:1011F0000E94D00B02C00E94D70BF9A9F13041F038
:10120000F130A8F0F23009F0A3C20E947A03A0C224
:10121000688579858A859B8520E030E04AE754E43B
:101220000E94E71E0E94481C0E94160591C2B090C1
:10123000010121E0B216F1F0B21628F033E03B15BF
:1012400008F486C235C06C857D858E859F8528898A
:1012500039894A895B89EC88FD880E891F89A090AD
:101260000C01B0900D01C0900E01D0900F018824A8
:1012700099246CC26C857D858E859F8528893989E6
:101280004A895B89EC88FD880E891F89809002015C
:10129000882009F054C2A0910801ABAFB0910901B8
:1012A000BCAFE0910A01EDAFF0910B01FEAF47C278
:1012B000672809F4E7C0E0911F01F0E0EE0FFF1F7F
:1012C000EE0FFF1F8E010F5F1F4FD801AE0FBF1F24
:1012D000E05FFE4F1B966D917D918D919C911E97C5
:1012E00020813181428153810E94341B1B012C01DA
:1012F000E0912001F0E0EE0FFF1FEE0FFF1F0E0F39
:101300001F1FE05FFE4FD8011B966D917D918D915F
:101310009C911E9720813181428153810E94341B10
:101320003B014C018CE0FE017896DF011D928A950D
:10133000E9F76DA57EA58FA598A920E030E040E8EB
:1013400050E40E94E71E2DA53EA54FA558A90E9476
:10135000E71E7B018C01C201B101A20191010E9433
:10136000E71E9B01AC01C801B7010E94341B7B0141
:101370008C01C401B301A40193010E94E71E9B01EB
:10138000AC01C801B7010E94341B0E94741F7B018D
:101390008C01C201B101A40193010E94EF1D9B01C8
:1013A000AC0117FB109517F91095C801B7010E9401
:1013B000DB1B6B017C01A70196010E94C81F8823DB
:1013C00021F084E080930001D0C1B3E0BB1621F48A
:1013D000F7FAF094F7F8F0946DA57EA58FA598A97B
:1013E00020E030E040E050E00E94D41B882324F449
:1013F000F7FAF094F7F8F09400911F01A02EBB24A7
:10140000AA0CBB1CAA0CBB1C8E010F5F1F4FA00EA9
:10141000B11EC401B301A70196010E94E71E9B0102
:10142000AC01C201B1010E94341B20E030E040E079
:101430005FE30E94E71EF501678B708F818F928FAB
:101440008091200190E0880F991F880F991F080F45
:10145000191FC201B101A70196010E94E71E9B015D
:10146000AC01C401B3010E94351B20E030E040E034
:101470005FE30E94E71ED80157966D937D938D938D
:101480009C935A97E0911F01F0E0EE0FFF1FEE0FC3
:10149000FF1F8E010F5F1F4FE00FF11F6789708DD7
:1014A000818D928D9058E0912001F0E0EE0FFF1FAA
:1014B000EE0FFF1FE00FF11F2789308D418D528DF8
:1014C00050580E94180669A77AA78BA79CA720915D
:1014D0001F01E22EFF2420912001A22EBB24EE0C3E
:1014E000FF1CEE0CFF1CF801EE0DFF1D63857485DB
:1014F000858596852789308D418D528D0E94341BBC
:10150000E0E1F1E0EE0EFF1ED7012D913D914D91EE
:101510005C910E94341B6B017C01AA0CBB1CAA0CC1
:10152000BB1C0A0D1B1DF801638574858585968596
:101530002789308D418D528D0E94341B20E131E08E
:10154000A20EB31ED5012D913D914D915C910E944B
:10155000341B9B01AC01C701B6010E9418067B0138
:101560008C0129A53AA54BA55CA50E94D41B882314
:1015700054F4C801B7012BED3FE049EC50E40E9460
:10158000351B7B018C01C801B70129A53AA54BA5E4
:101590005CA50E94341B1B012C018091010183304A
:1015A00051F4C201B1012BED3FE049EC50E40E943F
:1015B000341B1B012C0180911F01E82FF0E0F8A7DC
:1015C000EFA3EE0FFF1FEE0FFF1FDE011196EA0FD4
:1015D000FB1FE788F08C018D128D80912001282F50
:1015E00030E03EA32DA3F901EE0FFF1FEE0FFF1F0A
:1015F000EA0FFB1F2789308D418D528D809121018B
:10160000682E7724C301880F991F880F991FA80F90
:10161000B91F1B966D917D918D919C911E976BAB1F
:101620007CAB8DAB9EABF301EE0FFF1FEE0FFF1FE8
:10163000E05FFE4FA080B180C280D3807091020134
:101640007CA3772349F08BAD8FAB9CAD98AFADAD4C
:10165000A9AFBEADBAAF0CC0E0910801EFABF091FD
:101660000901F8AF60910A0169AF70910B017AAF7F
:10167000C801B7010E94EF1D7B018C018DB79EB799
:101680000C970FB6F8949EBF0FBE8DBF8DB69EB659
:101690000894811C911C6BA97CA98DA99EA9A60107
:1016A00095010E94341B5B016C01EDA1FEA1D401E8
:1016B0001196FC93EE9313967C926E9212972FA93B
:1016C00038AD49AD5AADC901DA01F401848395837F
:1016D000A683B7832CA12087118680E191E09387B0
:1016E000828769A57AA58BA59CA5A20191018FA0EF
:1016F00098A40E947D036C857D858E859F852889B1
:1017000039894A895B89EC88FD880E891F89809018
:101710000201ADB7BEB71C960FB6F894BEBF0FBEA0
:10172000ADBF882061F4B0910801BBAFE091090121
:10173000ECAFF0910A01FDAFA0910B01AEAFEBADA4
:10174000FCADADADBEAD5F016D0199240E943318B3
:10175000A0E1B1E0FE013C968CE001900D92815039
:10176000E1F78091000101C083E0EE960FB6F89496
:10177000DEBF0FBECDBFCF91DF911F910F91FF90C4
:10178000EF90DF90CF90BF90AF909F908F907F9021
:101790006F905F904F903F902F900895249A0895F6
:1017A00097FD02C02D9801C02D9A2C9A08952C986F
:1017B0000895EF92FF920F931F937B018C0122E01B
:1017C00030E040E050E00E943820205C3D4B404F2C
:1017D0005F4FCA01B901A80197010E943820C901D1
:1017E000DA010197A109B109292F3A2F4B2F55276B
:1017F00047FD5A950196A11DB11D2093C50081504A
:101800008093C400E0ECF0E080818D7F8083E1EC88
:10181000F0E0808180618083808188608083808126
:10182000806880831F910F91FF90EF900895409101
:101830002401509125018091220190912301841768
:10184000950719F42FEF3FEF0FC0FA01E156F94F5A
:101850002081CA01019668EC70E00E9403209093F9
:1018600025018093240130E0C90108951F920F9251
:101870000FB60F9211242F933F934F935F936F9363
:101880007F938F939F93AF93BF93EF93FF93409179
:10189000C600E0912201F0912301CF01019668EC8E
:1018A00070E00E9403209C01809124019091250109
:1018B0002817390739F0E156F94F40833093230157
:1018C00020932201FF91EF91BF91AF919F918F9152
:1018D0007F916F915F914F913F912F910F900FBE2C
:1018E0000F901F9018959C0106C08091C00085FF45
:1018F000FCCF9093C600F9012F5F3F4F949199233D
:10190000A1F708952F923F924F925F926F927F922C
:101910008F929F92AF92BF92CF92DF92EF92FF92FF
:101920000F931F93DF93CF93CDB7DEB7A0970FB67A
:10193000F894DEBF0FBECDBF6B017C0129013A01D7
:10194000611571058105910541F48091C00085FF05
:10195000FCCF80E38093C60049C0882499245401B9
:101960001E010894211C311C8101080D191DC7019D
:10197000B601A30192010E941620F8016083089429
:10198000811C911CA11CB11CC701B601A3019201CD
:101990000E941620C901DA016C017D01C114D10435
:1019A000E104F10409F79101280D391DBE016F5FB3
:1019B0007F4FD501C4010197A109B109AC014819B4
:1019C000590911C0FA01E20FF31FE081EA3010F467
:1019D000E05D01C0E95C8091C00085FFFCCFE09331
:1019E000C600215030406217730761F7A0960FB60A
:1019F000F894DEBF0FBECDBFCF91DF911F910F9145
:101A0000FF90EF90DF90CF90BF90AF909F908F901E
:101A10007F906F905F904F903F902F9008959B0123
:101A2000AC0197FF0EC08091C00085FFFCCF8DE216
:101A30008093C60050954095309521953F4F4F4F6C
:101A40005F4FCA01B9012AE030E040E050E00E9457
:101A5000820C0895EF92FF920F931F93DF93CF9321
:101A600000D000D0CDB7DEB7AE014F5F5F4F0E9410
:101A7000B41E7B018C0169817A818B819C810E94DB
:101A8000431C0E940F0D8091C00085FFFCCF8EE2A9
:101A90008093C600C801B70120E030E04AE754E473
:101AA0000E94E71E0E944A1F0E94431C0E940F0DC5
:101AB0000F900F900F900F90CF91DF911F910F918A
:101AC000FF90EF90089560E875E280E090E00E945A
:101AD000D90B86EB90E00E94730C83EB90E00E94A0
:101AE000730C0895CF93DF93EC0182309105B1F030
:101AF0008330910534F4009759F081309105B9F4A1
:101B00000AC08330910569F08430910581F40CC0DE
:101B100086E491E019C08BE291E016C08AE091E082
:101B200013C08BEE90E010C08DEC90E00DC085EC02
:101B300090E00E94730CBE01882777FD8095982F56
:101B40000E940F0D82EC90E00E94730CDF91CF9108
:101B5000089528C0E0915801EE2391F09A3011F0D9
:101B60009D3071F4F0E0EA5DFE4F108286E291E074
:101B70000E94570690E00E94720D1092580112C008
:101B8000913284F0892F8156AE2FB0E0EF5F8A3119
:101B900020F4AA5DBE4F905202C0AA5DBE4F9C9336
:101BA000E09358010E94170C982F8F3F99F60895E3
:101BB000EFE6F0E080818260808308951F920F92AB
:101BC0000FB60F9211248F939F939BB180917D0745
:101BD0008C71937E892B8BB99F918F910F900FBE43
:101BE0000F901F901895603020E0720721E0820767
:101BF00020E0920730F49B0140E050E0E0E0F0E0AC
:101C000072C0603020E0720728E0820720E092076F
:101C1000A0F4B3E09695879577956795BA95D1F737
:101C20009B0140E050E0A3E0220F331F441F551FEB
:101C3000AA95D1F7E1E0F0E056C0603020E07207ED
:101C400020E4820720E09207A0F4F6E096958795BD
:101C500077956795FA95D1F79B0140E050E0E6E073
:101C6000220F331F441F551FEA95D1F7E2E0F0E041
:101C70003AC0603020E0720720E0820721E092073E
:101C800070F4BB27A92F982F872FBC01A0E0B0E0EC
:101C90002227382F492F5A2FE3E0F0E024C060308C
:101CA00020E0720720E0820724E0920748F06FEFFF
:101CB0007FEFE4E0F0E020E03CEF40E050E013C0D4
:101CC0002AE096958795779567952A95D1F79B0198
:101CD00040E050E08AE0220F331F441F551F8A95D1
:101CE000D1F7E4E0F0E0809181009E2F9F5F887F34
:101CF000982B909381007093890060938800B901BC
:101D0000CA0108959B01AC01203B84E0380780E0C4
:101D1000480780E0580720F420EB34E040E050E032
:101D200060E070E788E399E30E941620CA01B901D8
:101D30000E94F30D60936E0170936F0180937001A8
:101D40009093710108958AB18C6F8AB98BB18370B9
:101D500090917D07892B8BB984B1817F84B9209ABA
:101D6000E1E8F0E080818F7E8083808188608083DD
:101D7000E0E8F0E080818D7F808380818E7F8083AA
:101D800080818F73808380818F7C80831092B000EC
:101D900082E08093B100E0E7F0E0808181608083A1
:101DA00060E777E180E090E00E94820EEFE6F0E0ED
:101DB00080818D7F80831092720110927301109246
:101DC000740110927501289A78940895EF92FF9209
:101DD0000F931F93E0915901F0915A01309709F444
:101DE0007FC0E0906801F090690100916A01109154
:101DF0006B0181AD92ADA3ADB4ADE816F9060A074B
:101E00001B0788F465A976A987A990AD2091760172
:101E1000309177014091780150917901620F731FE1
:101E2000841F951F53C0FD9680819181A281B3814B
:101E3000FD97209176013091770140917801509182
:101E400079018E159F05A007B107B8F585A996A958
:101E5000A7A9B0AD82179307A407B50760F4281BA4
:101E6000390B4A0B5B0B209376013093770140933B
:101E700078015093790121A932A943A954A98091ED
:101E8000760190917701A0917801B0917901821744
:101E90009307A407B50740F42093760130937701A8
:101EA00040937801509379016091760170917701A8
:101EB000809178019091790111C06189728983893B
:101EC0009489261737074807590751F06093760120
:101ED0007093770180937801909379010E94820E2C
:101EE0001F910F91FF90EF900895E0915901F091AB
:101EF0005A0165A576A587A590A960937601709390
:101F00007701809378019093790110927201109279
:101F1000730110927401109275010E94820E08954F
:101F2000089507C083B7816083BF889583B78E7F8C
:101F300083BF0E942414892BA9F708951F920F9242
:101F40000FB60F9211242F933F934F935F936F938C
:101F50007F938F939F93AF93BF93CF93DF93EF9331
:101F6000FF9380916C0190916D01892B09F06AC1FA
:101F70009BB120915B01822F807E9F71892B8BB951
:101F80008BB1837E822B8BB92091740782E090E025
:101F9000A0E0B0E0821B9109A109B109880F991F47
:101FA000AA1FBB1F8093B20081E090E090936D0167
:101FB00080936C0178948091590190915A01892BFA
:101FC00009F040C00E942414EC0190935A018093C0
:101FD0005901009791F10E94750F8D859E85AF85FF
:101FE000B889B595A79597958795B095A095909543
:101FF00081959F4FAF4FBF4F80935C0190935D01E0
:10200000A0935E01B0935F018093600190936101A2
:10201000A0936201B0936301809364019093650182
:10202000A0936601B0936701109268011092690154
:1020300010926A0110926B0105C080916F008D7F34
:1020400080936F00E0915901F0915A01309709F4A3
:10205000BAC0648560935B0120915C0130915D01A1
:1020600040915E0150915F0180819181A281B38195
:10207000280F391F4A1F5B1F20935C0130935D01BD
:1020800040935E0150935F01121613061406150665
:102090009CF4646060935B0185859685A785B08913
:1020A000281B390B4A0B5B0B20935C0130935D01BD
:1020B00040935E0150935F01209160013091610176
:1020C000409162015091630184819581A681B7811D
:1020D000280F391F4A1F5B1F209360013093610155
:1020E00040936201509363011216130614061506FD
:1020F000ACF480915B01886080935B018585968557
:10210000A785B089281B390B4A0B5B0B2093600114
:102110003093610140936201509363012091640107
:1021200030916501409166015091670180859185EC
:10213000A285B385280F391F4A1F5B1F20936401B6
:1021400030936501409366015093670112161306A0
:1021500014061506ACF480915B01806180935B01ED
:1021600085859685A785B089281B390B4A0B5B0BA3
:102170002093640130936501409366015093670199
:102180008091680190916901A0916A01B0916B0101
:102190000196A11DB11D8093680190936901A093E0
:1021A0006A01B0936B012585368547855089821772
:1021B0009307A407B50748F010925A0110925901ED
:1021C0000E940B1402C010925B0180915B01909100
:1021D0007D07892780935B0120916E0130916F010B
:1021E0004091700150917101809172019091730141
:1021F000A0917401B0917501280F391F4A1F5B1F10
:1022000020937201309373014093740150937501D0
:1022100021388AE1380786E0480780E0580770F0E7
:1022200020583A4146405040209372013093730148
:1022300040937401509375010E94E60E10926D0157
:1022400010926C01FF91EF91DF91CF91BF91AF910F
:102250009F918F917F916F915F914F913F912F91BE
:102260000F900FBE0F901F901895F999FECF92BD59
:1022700081BD81E08FBB80B50895F894F999FECFB8
:1022800092BD81BD81E08FBB40B54627842F992741
:1022900087FD9095262F30E082239323892B39F0F8
:1022A0006F3F19F060BD84E006C084E104C04423A0
:1022B00021F060BD84E28FBBF99A789408958F92E3
:1022C0009F92AF92BF92CF92DF92EF92FF920F93C5
:1022D000DF93CF9300D0CDB7DEB75C016B017A01FD
:1022E0004A0100E01EC0002319F021E030E008C0E0
:1022F000202F332727FD30952227330F221F332726
:10230000F60161916F01062F020F9C012F5F3F4F75
:102310003A8329830E943D1108948108910889819C
:102320009A8181149104F9F6C7018A0D9B1D602FD3
:102330000E943D110F900F90CF91DF910F91FF9070
:10234000EF90DF90CF90BF90AF909F908F900895C7
:10235000CF93DF93EC01FB019A0190E0B1E019C04B
:10236000F999FECFF2BDE1BDBFBBA0B5992319F02D
:1023700081E090E008C0892F992787FD90958827F4
:10238000990F881F992731969A2F980FA99321505A
:1023900030402115310521F7460F571FF999FECF1F
:1023A00052BD41BD81E08FBB80B520E030E0981781
:1023B00011F421E030E0C901DF91CF91089580E070
:1023C00090E00E943511823081F487E697E061E069
:1023D00070E043E250E00E94A81120E0892B09F44C
:1023E00021E081E0282730E029C0813029F587E607
:1023F00097E061E070E04BE150E00E94A811892B6A
:10240000D9F08AE999E9A9E9B0E480938207909329
:102410008307A0938407B093850780E090E0A8E449
:10242000B2E48093860790938707A0938807B093C0
:10243000890721E030E002C020E030E0C9010895C2
:1024400080E090E062E00E943D1181E090E067E66C
:1024500077E043E250E00E945F110895FC0185306F
:102460009105B9F1863091054CF483309105F9F06E
:10247000843091052CF597FF0FC05BC08730910524
:10248000D1F18730910574F188309105E9F18930F7
:10249000910509F04EC041C0EE0FFF1FEE0FFF1F68
:1024A000E959F84F408351836283738345C0CB0160
:1024B000BA010E944A1F0E94481C609374073CC0E6
:1024C000409375075093760760937707709378076A
:1024D00033C04093790750937A0760937B077093DA
:1024E0007C072AC040937E0750937F076093800744
:1024F0007093810721C0CB01BA010E94C11F0E94C5
:10250000481C60937D0718C040938207509383074F
:1025100060938407709385070FC0DB01CA01BF7702
:102520008093860790938707A0938807B0938907C5
:1025300003C08AEB91E004C00E94201285EA91E07A
:102540000E94730C089588E593E00E94730C6091DB
:102550006707709168078091690790916A070E94E8
:102560002A0D83E493E00E94730C60916B077091D5
:102570006C0780916D0790916E070E942A0D8EE284
:1025800093E00E94730C60916F07709170078091C7
:102590007107909172070E942A0D89E193E00E94D1
:1025A000730C6091740770E080E090E00E940F0D62
:1025B00087EF92E00E94730C609175077091760727
:1025C00080917707909178070E942A0D84ED92E020
:1025D0000E94730C6091790770917A0780917B0754
:1025E00090917C070E942A0D81EB92E00E94730C6F
:1025F00060917E0770917F0780918007909181079D
:102600000E942A0D88E992E00E94730C60917D0778
:1026100070E080E090E00E940F0D85E792E00E945C
:10262000730C60917D0770E080E090E022E030E084
:1026300040E050E00E94820C8CE692E00E94730C15
:10264000609182077091830780918407909185073C
:102650000E942A0D89E492E00E94730C6091860723
:102660007091870780918807909189070E942A0DB1
:1026700083E192E00E94730C8EEC91E00E94730C57
:1026800008950E94DF11892B29F086E891E00E94CD
:10269000730C08958BE491E00E94730C84EF99EF22
:1026A000ACE3B4E48093670790936807A09369074D
:1026B000B0936A0780936B0790936C07A0936D07A4
:1026C000B0936E0780936F0790937007A093710784
:1026D000B09372078EE18093740780E090E0A0EFE2
:1026E000B3E48093750790937607A0937707B09330
:1026F00078078093790790937A07A0937B07B0932C
:102700007C078AE999E9A9E9B0E48093820790936C
:102710008307A0938407B09385078DEC9CECACEC09
:10272000BDE380937E0790937F07A0938007B093CB
:10273000810710927D0780E090E0A8E4B2E48093E6
:10274000860790938707A0938807B09389070E9414
:1027500020120E94A31208952F923F924F925F92EF
:102760006F927F928F929F92AF92BF92CF92DF92A1
:10277000EF92FF920F931F933B014C0119012A0125
:10278000C801B701A80197010E94351BA601950158
:102790000E94E71E5B016C01C401B301A401930117
:1027A0000E94E71E9B01AC01C601B5010E94341BCB
:1027B0005B016C01C201B101A20191010E94E71EFF
:1027C0009B01AC01C601B5010E94351B5B016C0188
:1027D000C801B70120E030E040E850E40E94E71E65
:1027E0009B01AC01C601B5010E94DB1B1F910F913B
:1027F000FF90EF90DF90CF90BF90AF909F908F9021
:102800007F906F905F904F903F902F9008958091B0
:102810009E0690E0089520918E0630918F0680915B
:102820009006909191062817390769F080919006DB
:1028300090919106019664E170E00E9403209093CC
:10284000910680939006089520918E0630918F0610
:1028500080919006909191062817390719F420E08D
:1028600030E00EC080919006909191069C0146E068
:10287000220F331F4A95E1F7280F391F26583E4F84
:10288000C90108956F927F928F929F92AF92BF92EB
:10289000CF92DF92EF92FF920F931F935B016C0137
:1028A000CA01B9010E94E71E3B014C01C601B501F6
:1028B000A60195010E94351B20E030E040E752E47C
:1028C0000E94E71E20E030E040E752EC0E94E71E45
:1028D000A80197010E94E71E9B01AC01C401B3014E
:1028E0000E94351B0E94741F1F910F91FF90EF9063
:1028F000DF90CF90BF90AF909F908F907F906F9020
:1029000008958F929F92AF92BF92CF92DF92EF92F3
:10291000FF920F931F93CF93DF934C01EB0161154F
:10292000710509F442C0FC01E1A4F2A403A514A5B9
:10293000C801B70129A53AA54BA55CA50E94D41BE7
:1029400088239CF5A0908207B0908307C0908407ED
:10295000D0908507D7FAD094D7F8D094C801B701A2
:1029600029A13AA14BA15CA10E94E71E9B01AC01E9
:10297000F401E5A0F6A007A110A5C601B5010E94CB
:10298000421429A13AA14BA15CA10E94DB1B7B014F
:102990008C0129A53AA54BA55CA50E94D41B8823D0
:1029A00024F4E9A6FAA60BA71CA7DF91CF911F91EB
:1029B0000F91FF90EF90DF90CF90BF90AF909F90DE
:1029C0008F900895EF92FF920F931F93CF93DF9311
:1029D0008091900690919106482FC0E0D0E020E0D1
:1029E00030E014C081E448028001112406581E4FD3
:1029F000C901BE01A8010E948114C701019664E1CA
:102A000070E00E940320482F9E01E801E42EFF247D
:102A1000E7FCF09480918E0690918F06E816F906F7
:102A200009F7C901BE0140E050E00E948114DF9126
:102A3000CF911F910F91FF90EF900895CF93DF9367
:102A4000EC0190E080919E06811191E080E020975A
:102A500009F081E0981749F00E94910F10929E06AC
:102A6000CD2B19F081E080939E06DF91CF910895E0
:102A700010928F0610928E06109291061092900678
:102A800081E090E00E941E158CE0E2E9F6E0DF01B3
:102A90001D928A95E9F708956F927F928F929F9287
:102AA000AF92BF92CF92DF92EF92FF920F931F935C
:102AB0008C017B01FC01658976898789908DF701FE
:102AC000258936894789508D0E94341B9B01AC01B2
:102AD0000E94E71E3B014C01F801618D728D838DD0
:102AE000948DF701218D328D438D548D0E94341BBE
:102AF0009B01AC010E94E71E5B016C01F801658D32
:102B0000768D878D90A1F701258D368D478D50A14B
:102B10000E94341B9B01AC010E94E71E7B018C01CB
:102B2000C401B301A60195010E94351BA8019701BC
:102B30000E94351B0E94741F1F910F91FF90EF9010
:102B4000DF90CF90BF90AF909F908F907F906F90CD
:102B500008952F923F924F925F926F927F928F9241
:102B60009F92AF92BF92CF92DF92EF92FF920F931C
:102B70001F93CF93DF938C01EB01FA01611571056F
:102B800009F48FC04115510529F021A432A443A4B2
:102B900054A410C0609186077091870780918807C0
:102BA0009091890729A13AA14BA15CA10E94DB1B4E
:102BB0001B012C010115110509F45FC0C801BE01FC
:102BC0000E944C153B014C01E0908607F09087076E
:102BD0000091880710918907A80197010E94E21DC2
:102BE00018165CF00F2EF0E06F2EF0E07F2EF0E86C
:102BF0008F2EFFE39F2EF02D08C0C801B701A4015E
:102C000093010E94DB1B3B014C01C401B301A201F3
:102C100091010E94E21D18160CF03FC0A09082079F
:102C2000B0908307C0908407D0908507D7FAD094DE
:102C3000D7F8D094C201B10129A13AA14BA15CA15E
:102C40000E94E71E9B01AC01EDA0FEA00FA118A5FC
:102C5000C601B5010E94421429A13AA14BA15CA171
:102C60000E94DB1B7B018C01A40193010E94D41BF9
:102C700088239CF43701480110C060918607709149
:102C80008707809188079091890729A13AA14BA1D4
:102C90005CA10E94DB1B3B014C0169A67AA68BA6B6
:102CA0009CA6DF91CF911F910F91FF90EF90DF9045
:102CB000CF90BF90AF909F908F907F906F905F90DC
:102CC0004F903F902F900895FF920F931F93CF93B3
:102CD000DF9380918E0690918F06F82EC0E0D0E0B1
:102CE00040E050E012C0FA94F7FE02C063E1F62E15
:102CF0008F2D91E489028001112406581E4FC801CE
:102D0000BE010E94A915AE01E80120919006309104
:102D100091068F2D992787FD90958217930719F7B4
:102D200080E090E0BE010E94A915DF91CF911F9134
:102D30000F91FF9008952F923F924F925F926F9262
:102D40007F928F929F92AF92BF92CF92DF92EF923B
:102D5000FF920F931F93DF93CF93CDB7DEB76497A6
:102D60000FB6F894DEBF0FBECDBF1C016A017B0118
:102D700028013901DC0151966D917D918D919C91D5
:102D800054970E94741C4B015C01A70196010E949C
:102D9000E71E0E94C11B0E94481C7B018C01F101AF
:102DA00065A776A787A790ABC501B401A3019201DF
:102DB0000E94E71E0E94C11B0E94481C698B7A8BEF
:102DC0008B8B9C8BD101D1966D937D938D939C932E
:102DD000D497D5966D917D918D919C91D89728E24D
:102DE00030E040E050E00E94E41F0E94761C20E0AA
:102DF00030E040E752E40E94E71E0E94431C2B0192
:102E00003C01C801B7010E94741C6D877E878F87C3
:102E1000988BC301B2010E94761C69877A878B87E1
:102E20009C87C501B401A50194010E94E71E5B01C6
:102E30006C016D857E858F8598899B01AC010E9410
:102E4000E71E9B01AC01C601B5010E94341B7B014A
:102E50008C0169857A858B859C859B01AC010E94DC
:102E6000351B9B01AC01C801B7010E94DB1B0E940E
:102E7000C11B0E94431C69837A838B839C8369896D
:102E80007A898B899C890E94741C6D837E838F83D1
:102E900098879B01AC010E94E71EA60195010E9444
:102EA000341B7B018C017094609450944094411CBD
:102EB000511C611C711CC301B2010E94761C9B0154
:102EC000AC010E94351B9B01AC01C801B7010E94F7
:102ED000DB1B0E94B11CF101A584B684C784D08895
:102EE0008601750129813A814B815C81E21AF30ADE
:102EF000040B150B0E94431CE61AF70A080B190B6A
:102F000017FF1FC0C601B5010E94761C5B016C0152
:102F10006D857E858F8598892D813E814F8158856D
:102F2000E984FA840B851C850E94AC130E94C11BA6
:102F30000E94431C69837A838B839C83EE24FF2445
:102F4000870189819A81AB81BC81F10181AF92AF08
:102F5000A3AFB4AF2DE330E0220E331EE80EF91E0E
:102F60000A1F1B1FD101ED92FD920D931C93139725
:102F700064960FB6F894DEBF0FBECDBFCF91DF9140
:102F80001F910F91FF90EF90DF90CF90BF90AF9087
:102F90009F908F907F906F905F904F903F902F9079
:102FA0000895CF92DF92EF92FF920F931F93CF93EA
:102FB000DF938091900690919106282FC0E0D0E099
:102FC0001EC081E4280270011124EAE7F1E0EE0E50
:102FD000FF1E209761F049A55AA56BA57CA5F701B6
:102FE00001A512A523A534A5CE010E949B16C601FA
:102FF000019664E170E00E940320282FE701C22EB1
:10300000DD24C7FCD09480918E0690918F06C8165F
:10301000D906B9F6C9A4DAA4EBA4FCA4609186078A
:1030200070918707809188079091890729A13AA11B
:103030004BA15CA10E94DB1B8B019C01CE01B7015F
:10304000A6010E949B16DF91CF911F910F91FF90D7
:10305000EF90DF90CF9008950E9464160E94E214D2
:103060000E94D11708952F923F924F925F926F92D4
:103070007F928F929F92AF92BF92CF92DF92EF9208
:10308000FF920F931F93DF93CF93CDB7DEB7EE97E9
:103090000FB6F894DEBF0FBECDBF29013A01A9A635
:1030A000BAA6CBA6DCA69EA68DA620916707309176
:1030B00068074091690750916A072DA33EA34FA36B
:1030C00058A70E94E71E0E94841E6BAB7CAB8DABA1
:1030D0009EAB80916B0790916C07A0916D07B091AA
:1030E0006E0789A39AA3ABA3BCA3C301B20129A114
:1030F0003AA14BA15CA10E94E71E0E94841E6FAB07
:1031000078AF89AF9AAF20916F07309170074091E7
:103110007107509172072D8F3E8F4F8F58A3C801B2
:10312000B7010E94E71E0E94841E6BAF7CAF8DAF7B
:103130009EAF80918E0690918F06019664E170E0BB
:103140000E9403201C0107C083B7816083BF88955C
:1031500083B78E7F83BF80919006909191068215F0
:10316000930591F380918E0690918F062C0176E065
:10317000440C551C7A95E1F7480E591E4AE751E078
:10318000440E551E8091920690919306A09194064C
:10319000B09195062BA93CA94DA95EA9281B390B16
:1031A0004A0B5B0B298F3A8F4B8F5C8FD2012D938B
:1031B0003D934D935C93139757FF0EC0DA01C901FD
:1031C000B095A095909581959F4FAF4FBF4FF2015D
:1031D00080839183A283B383809196069091970612
:1031E000A0919806B09199066FA878AC89AC9AAC7A
:1031F000681A790A8A0A9B0AD20114966D927D9206
:103200008D929C92179797FE0CC088279927DC0116
:1032100086199709A809B909F20184839583A683C1
:10322000B78380919A0690919B06A0919C06B091DD
:103230009D06ABACBCACCDACDEACA81AB90ACA0AD0
:10324000DB0AA6019501D7FE07C022273327A90173
:103250002A193B094C095D09D20118962D933D931B
:103260004D935C931B971496ED90FD900D911C91DE
:1032700017978D919D910D90BC91A02D8E159F0556
:10328000A007B10710F4D801C70182179307A4075C
:10329000B50710F4DA01C901F20185879687A7877F
:1032A000B08B0097A105B10509F4C5C1698D7A8D70
:1032B0008B8D9C8D0E94761C2DA13EA14FA158A5FF
:1032C0000E94DB1B6D8B7E8B8F8B988FC401B301AB
:1032D0000E94761C29A13AA14BA15CA10E94DB1B94
:1032E000698B7A8B8B8B9C8BC601B5010E94761CF7
:1032F0002D8D3E8D4F8D58A10E94DB1B6D877E87E3
:103300008F87988B6D897E898F89988D0E94BE1FCB
:103310003B014C0169897A898B899C890E94BE1F77
:103320007B018C016D857E858F8598890E94BE1FEB
:103330005B016C01C401B301A80197010E94351B18
:10334000A60195010E94351B0E94741FD20195961B
:103350006D937D938D939C939897EDA5FEA5EF2B90
:1033600069F429A53AA54BA55CA50E94DB1B20E0CA
:1033700034E244E759E40E94E71E0AC060EC71EEB3
:1033800084E69CE429A53AA54BA55CA50E94DB1B1D
:103390000E94841EAC01CB01DA01BC01CD012BA936
:1033A0003CA94DA95EA929833A834B835C832FA94D
:1033B00038AD49AD5AAD2D833E834F8358872BAD31
:1033C0003CAD4DAD5EAD29873A874B875C870E9447
:1033D000741C9B01AC0160EC71EE84E69CE40E94DD
:1033E000DB1B7B018C016D897E898F89988DA801FB
:1033F00097010E94E71ED20155966D937D938D93A0
:103400009C93589769897A898B899C89A80197012F
:103410000E94E71EF201618F728F838F948F6D85FA
:103420007E858F859889A80197010E94E71ED201A9
:103430005D966D937D938D939C93909795966D91EA
:103440007D918D919C919897A80197010E94E71E0C
:103450006FA778AB89AB9AABF20161A372A383A388
:1034600094A365857685878590890E94761C5B018B
:103470006C01A80197010E94E71E0E94C11B0E94D7
:10348000481C3B014C01D20151966D937D938D9365
:103490009C93549780E090E0A0E0B0E0F20181A717
:1034A00092A7A3A7B4A76091820770918307809128
:1034B00084079091850720E030E040E752E40E94C5
:1034C000E71E20E030E040E252E40E94DB1B7B017B
:1034D0008C01D20195966D917D918D919C919897DB
:1034E000A60195010E94DB1B9B01AC01C801B7013D
:1034F0000E94DB1B0E94C11B0E94431CF20165ABB2
:1035000076AB87AB90AF80919E068823B1F0609137
:1035100086077091870780918807909189072FA56A
:1035200038A949A95AA90E94DB1B8B019C01C20141
:10353000A801B9010E949B1627C0D2019D966D92E9
:103540007D928D929C92D097F20161AA72AA83AA71
:1035500094AAD9961D921D921D921C92DC979201FD
:10356000235C3F4F1D968D919D910D90BC91A02D98
:10357000F90180839183A283B383D201D5961D92F2
:103580001D921D921C92D897F201148629813A81CE
:103590004B815C818091920690919306A091940654
:1035A000B0919506281739074A075B0714F480E2A3
:1035B00084872D813E814F81588580919606909118
:1035C0009706A0919806B0919906281739074A07DF
:1035D0005B073CF4D2011C968C911C9780641C966E
:1035E0008C9329853A854B855C8580919A069091CC
:1035F0009B06A0919C06B0919D06281739074A07A3
:103600005B0724F4F20184858068848730928F06FA
:1036100020928E06A2E9B6E0FE0131968CE0019080
:103620000D928150E1F780919E06882311F00E944F
:103630002C180E94D80DEE960FB6F894DEBF0FBE80
:10364000CDBFCF91DF911F910F91FF90EF90DF9051
:10365000CF90BF90AF909F908F907F906F905F9032
:103660004F903F902F9008955058BB27AA270ED017
:1036700047C207D230F00CD220F031F49F3F11F452
:103680001EF4D7C10EF4E095E7FBA2C1E92F5AD290
:1036900080F3BA17620773078407950718F071F46F
:1036A0009EF589C20EF4E0950B2EBA2FA02D0B01CA
:1036B000B90190010C01CA01A0011124FF27591B77
:1036C00099F0593F50F4503E68F11A16F040A22F7D
:1036D000232F342F4427585FF3CF469537952795EE
:1036E000A795F0405395C9F77EF41F16BA0B620BED
:1036F000730B840BBAF09150A1F0FF0FBB1F661F34
:10370000771F881FC2F70EC0BA0F621F731F841F76
:1037100048F4879577956795B795F7959E3F08F09C
:10372000B3CF9395880F08F09927EE0F979587955B
:103730000895DF93DD27B92FBF7740E85FE31616C2
:10374000170648075B0710F4D92FA1D29F938F93D8
:103750007F936F9313D4E8E6F0E06ED1D1D12F912F
:103760003F914F915F913FD3DD2349F09058A2EAFA
:103770002AED3FE049EC5FE3D0785D2787DFDF91FA
:10378000BFC102D280F09F3740F491110EF414C2F1
:1037900060E070E080E89FE3089526F01B16611D4D
:1037A000711D811D1BC135C1EFD008F481E0089562
:1037B00077D1E395B6C10CD0A3C16AD140F061D1F5
:1037C00030F021F45F3F19F003C15111F5C131C14F
:1037D000B9D198F39923C9F35523B1F3951B550B30
:1037E000BB27AA2762177307840738F09F5F5F4FD4
:1037F000220F331F441FAA1FA9F333D00E2E3AF015
:10380000E0E830D091505040E695001CCAF729D02E
:10381000FE2F27D0660F771F881FBB1F261737077D
:103820004807AB07B0E809F0BB0B802DBF01FF27AD
:1038300093585F4F2AF09E3F510568F0C9C0BCC144
:103840005F3FECF3983EDCF3869577956795B795E7
:10385000F7959F5FC9F7880F911D9695879597F902
:103860000895E1E0660F771F881FBB1F621773077B
:103870008407BA0720F0621B730B840BBA0BEE1F90
:1038800088F7E095089504D06894B11195C1089522
:1038900061D188F09F5790F0B92F9927B751A0F0C8
:1038A000D1F0660F771F881F991F1AF0BA95C9F7D4
:1038B00012C0B13081F07FD1B1E008957CC1672F93
:1038C000782F8827B85F39F0B93FCCF38695779584
:1038D0006795B395D9F73EF490958095709561956D
:1038E0007F4F8F4F9F4F0895E89409C097FB3EF498
:1038F00090958095709561957F4F8F4F9F4F99233D
:10390000A9F0F92F96E9BB279395F69587957795BA
:103910006795B795F111F8CFFAF4BB0F11F460FF7A
:103920001BC06F5F7F4F8F4F9F4F16C0882311F0D2
:1039300096E911C0772321F09EE8872F762F05C0E6
:10394000662371F096E8862F70E060E02AF09A9581
:10395000660F771F881FDAF7880F9695879597F976
:10396000089512D180F09F3740F491110EF024C1D8
:1039700060E070E080E89FEB089526F41B16611D5F
:10398000711D811D2BC045C0990F0008550FAA0B52
:10399000E0E8FEEF16161706E807F907C0F0121662
:1039A0001306E407F50798F0621B730B840B950B65
:1039B00039F40A2661F0232B242B252B21F40895BA
:1039C0000A2609F4A140A6958FEF811D811D089557
:1039D00097F99F6780E870E060E00895882371F4AC
:1039E000772321F09850872B762F07C0662311F498
:1039F00099270DC09051862B70E060E02AF09A95CF
:103A0000660F771F881FDAF7880F9695879597F9C5
:103A100008959F3F49F0915028F4869577956795D2
:103A2000B7959F5F80389F4F880F9695879597F938
:103A300008959FEF80EC0895DF93CF931F930F932A
:103A4000FF92EF92DF927B018C01689405C0DA2E21
:103A5000EF01C9D1FE01E894A591259135914591D9
:103A60005591AEF3EF0112DEFE019701A801DA9441
:103A700079F7DF90EF90FF900F911F91CF91DF9139
:103A8000089500240A9416161706180609060895C4
:103A900000240A9412161306140605060895C9CFC9
:103AA00059D0E8F3E894EFEFBB273FE048EC5FE73D
:103AB0006B3D73078407950708F1FF279F57B25A9C
:103AC0006A4D7F40894CF04032F4BE556542704FDC
:103AD0008643FF4F0894EE1F915030F0BB0F661FD6
:103AE000771F881FFF1FEBCF9EE7882332F0BB0FA5
:103AF000661F771F881F9A95C1F79395E09589CF28
:103B0000092E0394000C11F4882352F0BB0F40F4EB
:103B1000BF2B11F460FF04C06F5F7F4F8F4F9F4F2B
:103B20000895EF93E0FF06C0A2EA2AED3FE049ECDA
:103B30005FEBACDDE5DF0F90039401FC9058E5E905
:103B4000F0E031C257FD9058440F551F59F05F3FC8
:103B500071F04795880F97FB991F61F09F3F79F0AF
:103B600087950895121613061406551FF2CF469531
:103B7000F1DF08C0161617061806991FF1CF8695B3
:103B80007105610508940895E5DFA0F0BEE7B91757
:103B900088F4BB279F3860F41616B11D672F782F65
:103BA0008827985FF7CF869577956795B11D939590
:103BB0009639C8F30895E894BB2766277727CB0189
:103BC00097F90895E1DE08F48FEF08955ADF19F0B0
:103BD0005FDF09F02ECFFCCEB901CA011ACF9F7763
:103BE0005F77B0DF98F39923B9F35523B9F3FF2733
:103BF000951758F4E52FE91BED3070F75E3B10F098
:103C0000F1E41CC09034E0F40AC0E92FE51BED306C
:103C100028F79E3B10F0F1E411C0503488F4F9EA23
:103C200088232AF09A95660F771F881FDAF74423B6
:103C30002AF05A95220F331F441FDAF79F1B5F1B90
:103C4000FF931F930F93FF92EF9279018A01BB2795
:103C5000AB2F9B01AC01C9D09701A801BF937B0199
:103C60008C01AA27BA2FB901CA01BFD0AF91970121
:103C7000A801EF90FF900F911F9108DD41DF34D133
:103C80004F9140FF0895552747FD509509C09B016E
:103C9000AC0160E070E080E89FE38DCD99CEB9CEB5
:103CA00059DFE8F39923D9F3940F511DBBF39150D9
:103CB000504094F059F0882332F0660F771F881F28
:103CC00091505040C1F79E3F510544F7880F911D18
:103CD0009695879597F908955F3FACF0983E9CF0D4
:103CE000BB27869577956795B79508F4B16093954E
:103CF000C1F7BB0F58F711F460FFE8CF6F5F7F4F3C
:103D00008F4F9F4FE3CF58CF25DF58F19E5758F183
:103D10009851A0F0E9F0983020F5092E9927660F08
:103D2000771F881F991F0A94D1F712C0062E672F9C
:103D3000782F8827985F11F4000C07C0993FB4F3DF
:103D40008695779567959395D9F7611D711D811DAE
:103D50003EF490958095709561957F4F8F4F9F4F62
:103D60000895689429CF27CFFA01DC01AA0FBB1F61
:103D70009B01AC01BF5728F42227332744275078F2
:103D80001FC0B75188F4AB2F00244695379527956F
:103D9000011CA395D2F3002069F0220F331F441FAA
:103DA000B395DAF30DD060CC61307105A0E88A07D5
:103DB000B94630F49B01AC016627772788279078B5
:103DC000309621F0208331834283538308950BD0B2
:103DD00097CE57DE28F05CDE18F0952309F0F8CD79
:103DE00028CE1124E9CEAEDEA0F3959FD1F3950F36
:103DF00050E0551F629FF001729FBB27F00DB11D6F
:103E0000639FAA27F00DB11DAA1F649F6627B00DFE
:103E1000A11D661F829F2227B00DA11D621F739FE7
:103E2000B00DA11D621F839FA00D611D221F749FF5
:103E30003327A00D611D231F849F600D211D822F3C
:103E4000762F6A2F11249F5750408AF0E1F0882383
:103E50004AF0EE0FFF1FBB1F661F771F881F915090
:103E60005040A9F79E3F510570F0B2CDA5CE5F3FFF
:103E7000ECF3983EDCF3869577956795B795F795C3
:103E8000E7959F5FC1F7FE2B880F911D969587954B
:103E900097F908955FDEE0F09E37D8F09639B8F4D0
:103EA0009E3848F4672F782F8827985FF9CF86953A
:103EB0007795679593959539D0F3B62FB1706B0FC1
:103EC000711D811D20F4879577956795939586CD13
:103ED000A0CD72CE9F93E4DD0F9007FCEE5F21CE64
:103EE00011F40EF4A6CD95CD35DED0F39923D9F398
:103EF000CEF39F57550B87FF4FD056959795B0E05F
:103F000020F4660F771F881FBB1F1F930F93002499
:103F10009001A0018001F001A0E80E0F1F1F0A1EF2
:103F2000511D601B710B8009B50B48F4600F711FA8
:103F3000801DB51F0E1B1F0B0A0A510907C02E0F4B
:103F40003F1F4A1F0E0F1F1F0A1E511D660F771FAE
:103F5000881FBB1FA695F795E795F8F60617170774
:103F600008065B07211D311D411D0F911F91B901ED
:103F7000842F9158880F9695879508959B01AC01E1
:103F800026CF02DE20F09F3708F416CE27CD41CD94
:103F9000FBDC880B990B089591505040660F771FFA
:103FA000881FD2F708959F938F937F936F93FF930A
:103FB000EF939B01AC010BDFEF91FF913DDD2F9162
:103FC0003F914F915F9103CF629FD001739FF001AA
:103FD000829FE00DF11D649FE00DF11D929FF00D99
:103FE000839FF00D749FF00D659FF00D9927729FD0
:103FF000B00DE11DF91F639FB00DE11DF91FBD015B
:10400000CF011124089597FB092E07260AD077FDCA
:1040100004D049D006D000201AF4709561957F4FE6
:104020000895F6F7909581959F4F0895A1E21A2E75
:10403000AA1BBB1BFD010DC0AA1FBB1FEE1FFF1F4C
:10404000A217B307E407F50720F0A21BB30BE40B9C
:10405000F50B661F771F881F991F1A9469F76095E3
:104060007095809590959B01AC01BD01CF0108959D
:1040700097FB092E05260ED057FD04D0D7DF0AD0B6
:10408000001C38F450954095309521953F4F4F4F87
:104090005F4F0895F6F790958095709561957F4FE5
:1040A0008F4F9F4F0895AA1BBB1B51E107C0AA1F4A
:1040B000BB1FA617B70710F0A61BB70B881F991FC9
:1040C0005A95A9F780959095BC01CD01089591115D
:1040D00006C0803219F089508550D0F7089599278D
:1040E000882708952F923F924F925F926F927F920E
:1040F0008F929F92AF92BF92CF92DF92EF92FF92F8
:104100000F931F93CF93DF93CDB7DEB7CA1BDB0BA3
:104110000FB6F894DEBF0FBECDBF09942A88398848
:1041200048885F846E847D848C849B84AA84B9844F
:10413000C884DF80EE80FD800C811B81AA81B9815B
:10414000CE0FD11D0FB6F894DEBF0FBECDBFED016F
:064150000895F894FFCF72
:00000001FF
