:100000000C9489030C94A6030C94A6030C948028EA
:100010000C9449120C94A6030C94A6030C94A6030A
:100020000C94A6030C94DA140C94A6030C940716F3
:100030000C94A6030C94A6030C94A6030C94A6039C
:100040000C94A6030C94A6030C94F7110C94B01115
:100050000C94A6030C94A6030C94A6030C94A6037C
:100060000C94A6030C94A603551A551A551A6C1A2B
:10007000811A8A1A931A9C1AA51ABC1AC81AD11A7C
:10008000DA1AE31AF51A091B1B1B311B431B4C1B05
:10009000551B5E1B691B084AD73B3BCE016E84BCD7
:1000A000BFFDC12F3D6C74319ABD56833DDA3D00D2
:1000B000C77F11BED9E4BB4C3E916BAAAABE00001B
:1000C00000803F05A84CCDB2D44EB93836A9020CF9
:1000D00050B9918688083CA6AAAA2ABE00000080D2
:1000E0003F3E0D0A002C0057506F733A002C002C35
:1000F0004D506F733A003C436865636B003C416C44
:1001000061726D003C486F6D65003C486F6C640027
:100110003C52756E003C5175657565003C49646CD8
:1001200065000D0A003D00244E005D0D0A002046CA
:1001300000205400204D3800204D3900204D35005E
:10014000204D3400204D3300204D3200204D310031
:10015000204D3000204739340020473933002047F4
:1001600039310020473930002047323100204732F2
:1001700030002047313900204731380020473137DF
:10018000002047005B473830005B4733005B473255
:10019000005B4731005B4730005D0D0A002C005BBF
:1001A0004739323A005D0D0A002C0033303A0032F4
:1001B000383A0035393A0035383A0035373A0035A3
:1001C000363A0035353A0035343A005B470020288E
:1001D000686F6D696E672070756C6C2D6F66662C2C
:1001E000206D6D290D0A002028686F6D696E6720EB
:1001F0006465626F756E63652C206D736563290D90
:100200000A2432323D002028686F6D696E672073C2
:1002100065656B2C206D6D2F6D696E290D0A24327A
:10022000313D002028686F6D696E672066656564E2
:100230002C206D6D2F6D696E290D0A2432303D0022
:10024000290D0A2431393D002028686F6D696E67D9
:100250002064697220696E76657274206D61736BBB
:100260002C20696E743A002028686F6D696E6720D3
:100270006379636C652C20626F6F6C290D0A2431E1
:10028000383D00202868617264206C696D69747360
:100290002C20626F6F6C290D0A2431373D00202815
:1002A000696E76657274207374657020656E616224
:1002B0006C652C20626F6F6C290D0A2431363D006D
:1002C00020286175746F2073746172742C20626FC2
:1002D0006F6C290D0A2431353D0020287265706F3E
:1002E000727420696E636865732C20626F6F6C296D
:1002F0000D0A2431343D0020286E2D646563696D3C
:10030000616C732C20696E74290D0A2431333D0011
:1003100020286E2D61726320636F72726563746949
:100320006F6E2C20696E74290D0A2431323D002035
:10033000286172632C206D6D2F7365676D656E7417
:10034000290D0A2431313D0020286A756E637469D5
:100350006F6E20646576696174696F6E2C206D6DB7
:10036000290D0A2431303D002028616363656C65E6
:10037000726174696F6E2C206D6D2F7365635E32D0
:10038000290D0A24393D00202873746570206964A2
:100390006C652064656C61792C206D736563290D33
:1003A0000A24383D00290D0A24373D0020287374A3
:1003B000657020706F727420696E76657274206D3E
:1003C00061736B2C20696E743A0020286465666145
:1003D000756C74207365656B2C206D6D2F6D696E67
:1003E000290D0A24363D00202864656661756C7409
:1003F00020666565642C206D6D2F6D696E290D0A70
:1004000024353D002028737465702070756C736509
:100410002C2075736563290D0A24343D0020287A49
:100420002C20737465702F6D6D290D0A24333D00E7
:100430002028792C20737465702F6D6D290D0A2486
:10044000323D002028782C20737465702F6D6D2943
:100450000D0A24313D0024303D00242420287669F3
:100460006577204772626C2073657474696E677378
:10047000290D0A24232028766965772023207061BE
:1004800072616D6574657273290D0A2447202876A0
:100490006965772070617273657220737461746529
:1004A000290D0A244E2028766965772073746172BD
:1004B00074757020626C6F636B73290D0A24783D2C
:1004C00076616C7565202873617665204772626C71
:1004D0002073657474696E67290D0A244E783D6C2B
:1004E000696E652028736176652073746172747516
:1004F0007020626C6F636B290D0A244320286368A7
:1005000065636B2067636F6465206D6F6465290D9B
:100510000A245820286B696C6C20616C61726D2014
:100520006C6F636B290D0A2448202872756E206851
:100530006F6D696E67206379636C65290D0A7E2093
:10054000286379636C65207374617274290D0A21C4
:1005500020286665656420686F6C64290D0A3F2059
:100560002863757272656E74207374617475732973
:100570000D0A6374726C2D7820287265736574207F
:100580004772626C290D0A000D0A4772626C2030B6
:100590002E3863205B27242720666F722068656CE5
:1005A000705D0D0A005D0D0A0044697361626C653F
:1005B0006400456E61626C65640043617574696FC7
:1005C0006E3A20556E6C6F636B6564002724482774
:1005D0007C2724582720746F20756E6C6F636B0026
:1005E000526573657420746F20636F6E74696E75E5
:1005F00065005B002E204D506F733F0D0A00416275
:100600006F727420647572696E67206379636C65BC
:100610000048617264206C696D697400414C4152FC
:100620004D3A20000D0A00416C61726D206C6F63C1
:100630006B0042757379206F722071756575656402
:1006400000454550524F4D207265616420666169D6
:100650006C2E205573696E672064656661756C74D5
:10066000730056616C7565203C203320757365639B
:100670000056616C7565203C20302E300053657447
:1006800074696E672064697361626C656400496EA9
:1006900076616C69642073746174656D656E740055
:1006A0004D6F64616C2067726F75702076696F6C36
:1006B0006174696F6E00496E76616C696420726165
:1006C0006469757300556E737570706F72746564CC
:1006D0002073746174656D656E7400457870656330
:1006E00074656420636F6D6D616E64206C657474F5
:1006F000657200426164206E756D62657220666F7E
:10070000726D6174006572726F723A20006F6B0DCA
:100710000A0011241FBECFEFD8E0DEBFCDBF11E02D
:10072000A0E0B1E0E6E7F7E602C005900D92A03048
:10073000B107D9F716E0A0E0B1E001C01D92A33ED9
:10074000B107E1F70E94A8030C94B9330C940000A0
:100750000F931F930E947D110E94711C0E94D91556
:10076000789480E1E8EAF5E0DF011D928A95E9F7E7
:1007700081E08093A8058093A90506E011E08091AF
:10078000A805882389F10E94F2110E9490240E94FA
:1007900013110E949F140E9441110E9465110E9432
:1007A000E6250E94AC150E94EE241092A805109236
:1007B000AA058091D006982F81FF02C01093B7053B
:1007C0008091A905813021F494FF02C00093A9050E
:1007D0008091A905863021F482E00E94272A04C076
:1007E0001092A9050E94E6120E9485120E945014E0
:1007F000C6CF8091AA0584FD15C08091AA058061AD
:100800008093AA050E9447110E946A118091A90550
:100810008350833038F48091AA0580628093AA05C2
:100820000E94C0150895EF92FF920F931F93CF93EC
:10083000DF937B018C0120E030E040EA51E40E942C
:100840007F320E947C300E941330EB010E9473249F
:10085000C801B70120E030E04AE754E40E947F324B
:100860007B018C0182E390E0C89FB001C99F700DAD
:10087000D89F700D112480E090E00E943F309B01D2
:10088000AC01C801B7010E94C52E0E947C300E94B5
:100890001330DC01CB010E94A42400E911E00EC05A
:1008A0000E9485128091A805882351F484EF91E07D
:1008B000F8013197F1F70197D9F72197209781F740
:1008C000DF91CF911F910F91FF90EF9008954F927C
:1008D0005F926F927F928F92AF92BF92CF92DF9290
:1008E000EF92FF920F931F93DF93CF9300D000D02E
:1008F000CDB7DEB72B013C0129833A834B835C8360
:100900008091A9058730F9F00E9485128091A80591
:100910008823C9F40E94F71C8823B1F7C301B201F0
:1009200029813A814B815C810E9488208091A905B0
:10093000882319F482E08093A9058091B705882364
:1009400011F00E9457150F900F900F900F90CF91BC
:10095000DF911F910F91FF90EF90DF90CF90BF90AC
:10096000AF908F907F906F905F904F9008952F92EF
:100970003F924F925F926F927F928F929F92AF922F
:10098000BF92CF92DF92EF92FF920F931F9385E079
:100990008093A90580916B00817F80936B000E94FA
:1009A00026288091A805882309F070C08CE0EBEA26
:1009B000F5E0DF011D928A95E9F70E94EE2410927E
:1009C000A9053091D106232F35FD02C06FEF01C07C
:1009D00061E026FD03C0DD24DA9402C0DD24D39457
:1009E00037FD03C0CC24CA9402C0CC24C394E09049
:1009F000DC06F090DD060091DE061091DF06772719
:100A000067FD7095872F972F0E944130A8019701AD
:100A10000E947F321B012C016D2D772767FD709599
:100A2000872F972F0E944130A80197010E947F32A3
:100A30003B014C016C2D772767FD7095872F972F11
:100A40000E944130A80197010E947F327B018C01F6
:100A5000A090D606B090D706C090D806D090D90600
:100A6000C201B101A401930188240E9467040E947D
:100A700057150E9473240E94EE248091D00683FFB4
:100A800005C080916B008E6080936B001F910F9169
:100A9000FF90EF90DF90CF90BF90AF909F908F909E
:100AA0007F906F905F904F903F902F9008952F927E
:100AB0003F924F925F926F927F928F929F92AF92EE
:100AC000BF92CF92DF92EF92FF920F931F93DF932B
:100AD000CF93CDB7DEB7CE54D0400FB6F894DEBF7B
:100AE0000FBECDBF3C017EAF6DAF21965FAF4EAF65
:100AF000219722962FAF229723960FAF2397249604
:100B0000EFAE24972896ACAEBDAECEAEDFAE289742
:100B100029968FAE2997E22EFF24EE0CFF1CEE0CD7
:100B2000FF1C4E0D5F1D5CAF4BAFDA012D903D9069
:100B30004D905C90FC01EE0DFF1DC201B1012081C2
:100B40003181428153810E94C62E69AB7AAB8BAB57
:100B50009CAB10E0000F111F000F111F2196EEAD8E
:100B6000FFAD2197E00FF11FFAAFE9AFA080B18090
:100B7000C280D380F301E00FF11FC601B5012081CF
:100B80003181428153810E94C62E6DA77EA78FA717
:100B900098AB24962FAD2497E22FF0E0EE0FFF1FC5
:100BA000EE0FFF1F6E0E7F1ED3018D919D910D9054
:100BB000BC91A02D8DAB9EABAFABB8AF2DAD3EAD14
:100BC000E20FF31F60817181828193812DA93EA97B
:100BD0004FA958AD0E94C52E69A77AA78BA79CA7DD
:100BE000D201C101B0588DA39EA3AFA3B8A7A6019F
:100BF0009501505829A33AA34BA35CA34DAD5EAD1C
:100C0000E40EF51ED7016D917D918D919C9129A9DE
:100C10003AA94BA95CA90E94C52E3B014C01EDAD40
:100C2000FEAD0E0F1F1FD8016D917D918D919C918E
:100C30002DA53EA54FA558A90E94C52E5B016C01AC
:100C40006DA17EA18FA198A5A60195010E947F327A
:100C50007B018C0169A17AA18BA19CA1A4019301C4
:100C60000E947F329B01AC01C801B7010E94C52ED2
:100C70001B012C016DA17EA18FA198A5A401930158
:100C80000E947F327B018C0169A17AA18BA19CA17A
:100C9000A60195010E947F329B01AC01C801B701FA
:100CA0000E94C62E9B01AC01C201B1010E94392FE6
:100CB0005B016C01A8968FADA897882399F0C601B7
:100CC000B50120E030E040E050E00E94AD318823E3
:100CD000ECF0C601B5012BED3FE049EC50E40E9479
:100CE000C52E12C0C601B50120E030E040E050E062
:100CF0000E949F2F181654F0C601B5012BED3FE05E
:100D000049EC50E40E94C62E5B016C01C601B5019E
:100D1000A7962CAD3DAD4EAD5FADA7970E947F323B
:100D200029A53AA54BA55CA50E94BA317B018C018F
:100D300020E030E040E050E00E949F2F882309F43B
:100D4000D5C1C801B7012091C4063091C5064091B4
:100D5000C6065091C7060E94A62F0E947C300E94B2
:100D6000133078A36F8F2996BFAD2997BB23A1F0CD
:100D700080E090E00E943F309B01AC0128966CAD72
:100D80007DAD8EAD9FAD28970E947F3228966CAFC7
:100D90007DAF8EAF9FAF28972F8D38A1B90180E02E
:100DA00090E00E943F307B018C01C601B501A80193
:100DB00097010E94A62F6B8F7C8F8D8F9E8F69A5C8
:100DC0007AA58BA59CA5A80197010E94A62F6F8BE1
:100DD000788F898F9A8F6B8D7C8D8D8D9E8D20E085
:100DE00030E040E05FEB0E947F322B8D3C8D4D8DDB
:100DF0005E8D0E947F3220E030E040E85FE30E9499
:100E0000C62E6B8B7C8B8D8B9E8B24963FAD24974F
:100E1000E32FF0E0EE0FFF1FEE0FFF1FCE01019654
:100E2000E80FF91F2DA93EA94FA958AD20833183A2
:100E30004283538341E050E05E874D8766242296CB
:100E4000BFAD2297AB2FB0E0AA0FBB1FAA0FBB1FED
:100E5000A80FB91F2B96BFAFAEAF2B9723963FAD10
:100E60002397232F30E0220F331F220F331F280F29
:100E7000391F2D963FAF2EAF2D972F96FFAFEEAFB8
:100E80002F970EC1262D332727FD30958091E2063E
:100E900090E0281739070CF046C06DA17EA18FA104
:100EA00098A52B8D3C8D4D8D5E8D0E947F327B01F0
:100EB0008C0169A17AA18BA19CA12B893C894D89C8
:100EC0005E890E947F329B01AC01C801B7010E947C
:100ED000C62E7B018C016DA17EA18FA198A52B89C7
:100EE0003C894D895E890E947F325B016C0169A15A
:100EF0007AA18BA19CA12B8D3C8D4D8D5E8D0E9486
:100F00007F329B01AC01C601B5010E94C52E6DA3C5
:100F10007EA38FA398A76394C701D80189A39AA33E
:100F2000ABA3BCA361C04D855E85BA0180E090E0B3
:100F30000E943F302B8D3C8D4D8D5E8D0E947F3207
:100F40007B018C01C8010E94A32F6F87788B898B4E
:100F50009A8BB701C8010E9402333B014C01ABAD33
:100F6000BCADED90FD900D911C9117FB109517F9FC
:100F70001095E9ADFAAD2080318042805380C801E0
:100F8000B7012F85388949895A890E947F325B01D0
:100F90006C01C201B101A40193010E947F329B0147
:100FA000AC01C601B5010E94C62E6DA37EA38FA31E
:100FB00098A7C801B701A40193010E947F327B0169
:100FC0008C01C201B1012F85388949895A890E9453
:100FD0007F329B01AC01C801B7010E94C52E69A3F5
:100FE0007AA38BA39CA3662469A97AA98BA99CA93F
:100FF0002DA13EA14FA158A50E94C62E2B96AEADA5
:10100000BFAD2B976D937D938D939C9313976DA597
:101010007EA58FA598A929A13AA14BA15CA10E9408
:10102000C62E2D96EEADFFAD2D9760837183828322
:1010300093832F96AEADBFAD2F976D917D918D911E
:101040009C912F89388D498D5A8D0E94C62E2F96DE
:10105000EEADFFAD2F9760837183828393836981A7
:101060007A818B819C812D813E814F815885E984D5
:10107000FA840B851C852896ACACBDACCEACDFAC3D
:10108000289729968FAC29970E9467048091A8051C
:10109000882361F52D853E852F5F3F4F3E872D8745
:1010A0004D855E858F8D98A14817590708F4EACEC3
:1010B000ADADBEAD6D917D918D919C9113971496C0
:1010C0002D913D914D915C9117971896ED90FD9063
:1010D0000D911C911B972896ACACBDACCEACDFAC8F
:1010E000289729968FAC29970E946704C25BDF4F2F
:1010F0000FB6F894DEBF0FBECDBFCF91DF911F9129
:101100000F91FF90EF90DF90CF90BF90AF909F90A6
:101110008F907F906F905F904F903F902F900895A9
:10112000AF92BF92CF92DF92EF92FF920F931F93F5
:1011300059016A010E9441302091AD063091AE06FE
:101140004091AF065091B0060E94A62F6093C4054F
:101150007093C5058093C6059093C705C601B50178
:101160000E9441302091B1063091B2064091B30601
:101170005091B4060E94A62F6093C8057093C905CC
:101180008093CA059093CB05C801B7010E944130F6
:101190002091B5063091B6064091B7065091B80639
:1011A0000E94A62F6093CC057093CD058093CE0549
:1011B0009093CF051F910F91FF90EF90DF90CF900C
:1011C000BF90AF9008952F923F924F925F926F928F
:1011D0007F928F929F92AF92BF92CF92DF92EF92C7
:1011E000FF920F931F93DF93CF93CDB7DEB7EE97A8
:1011F0000FB6F894DEBF0FBECDBF3C018091A905AC
:10120000863011F48CE0B9C719828CE0FE01369665
:10121000DF01482F1D924A95E9F7FE017296DF0122
:101220001D928A95E9F71092B8054424552422248A
:101230001AAE33243A94A3E0AA2EF2E0BF2E01E0C6
:10124000E1E08E2E912CA5C12E313105C9F12F314F
:101250003105D4F42431310584F421313105A4F56C
:101260002430310569F1253031051CF437FF2AC0DF
:1012700025C02A30310511F523C02631310554F13E
:101280002C313105D9F41CC02C3531058CF42A35AC
:101290003105E4F42C3331053CF426333105E4F414
:1012A0002533310559F40CC02035310539F40AC015
:1012B0002C35310529F02F35310554F010E00DC0E3
:1012C00011E00BC012E009C013E007C014E005C034
:1012D00016E003C017E001C019E02531310509F41B
:1012E00094C026313105A4F52430310509F467C0D6
:1012F00025303105A4F42130310509F465C02230D0
:10130000310524F4232B09F45CC02EC122303105B1
:1013100009F45DC02330310509F026C15BC02231DC
:10132000310509F461C0233131054CF42A3031050F
:1013300009F443C02131310509F016C14EC02331F3
:10134000310509F458C02431310509F00DC15AC0E6
:101350002035310509F491C021353105ACF4253330
:10136000310509F482C0263331054CF42C313105A6
:1013700009F44EC02E31310509F0F6C049C02C33B6
:1013800031050CF0F1C074C02C35310509F47FC073
:101390002D3531054CF42A35310509F472C02B3551
:1013A000310509F0E1C070C02D35310509F489C05F
:1013B0002E35310509F0D8C087C0B2E04EC0E1E05B
:1013C0004FC01092B905D2C00093B905CFC0B092FA
:1013D000B905CCC0A092B905C9C01092D10500933F
:1013E000D205B092D305C2C01092D105B092D205F9
:1013F0000093D305BBC00093D105B092D2051092E3
:10140000D305B4C00093BB05B1C01092BB05AEC0FC
:10141000C701B60120E030E040E251E40E947F3293
:101420000E9459330E940E30F1E069317F0791F03C
:1014300041E06A3174072CF46851714009F094C09E
:101440000BC081E06C32780751F06D52714009F0A9
:101450008BC008C0A4E033C0B3E0BAAF87C0E5E0FA
:10146000EAAF84C0F6E0FAAF81C0222423947EC0A4
:10147000822F86538093D40579C044E04093B90508
:1014800075C00093BC0572C01092BC056FC0C70147
:10149000B60120E030E040E251E40E947F320E9439
:1014A00059330E940E3053E06839750739F0695995
:1014B000734009F059C098E09AAF58C0A7E0AAAFAE
:1014C00055C00093BA0552C01092BA054FC02630DD
:1014D000310534F42330310554F4772334F403C058
:1014E0002E31310511F010E003C015E001C018E005
:1014F0002430310569F12530310584F4213031057E
:10150000A9F1223031051CF4232BC9F02DC0223063
:101510003105C1F02330310539F517C028303105C8
:10152000E9F02930310524F425303105E9F413C000
:1015300029303105B1F02E313105B1F403C00093EB
:10154000BD0514C0B092BD0511C00093BE050EC00C
:101550003092BE050BC01092BE0508C00093BF05B7
:1015600005C01092BF0502C0A092B805112389F0F2
:10157000940102C0220F331F1A95E2F7C90184219A
:101580009521892B21F0B5E0B093B80502C0422A1D
:10159000532A9981F301E90FF11D10811123B9F04C
:1015A000812F81548A3110F082E00FC09F5F9983B0
:1015B000C301BE016F5F7F4FAE014E5F5F4F0E9460
:1015C0002B25892B09F0F2C581E08093B805809125
:1015D000B805882309F0D1C5198299241BAE1CAE29
:1015E000E0E8EDAFFFEBFEAF0F2EF0E0AF2EF0E046
:1015F000BF2EF0E0CF2EF0E0DF2EF02DAEAABFAA76
:10160000C8AED9AE882476E0372E10C1EA80FB80C0
:101610000C811D81C801B70120E030E040E050E0BE
:101620000E949F2F181614F03092B8058091BA05C9
:10163000882381F08091BB05882309F4F1C0C8019B
:10164000B70123E333E34BEC51E40E947F327B018B
:101650008C01E6C08091BB05882351F0C801B70119
:1016600023E333E34BEC51E40E947F327B018C0196
:10167000E092C005F092C1050093C2051093C30526
:10168000C9C02A813B814C815D818091BB05882343
:1016900051F0CA01B90123E333E34BEC51E40E945A
:1016A0007F329B01AC01E12FFF27E7FDF095E95464
:1016B000F040EE0FFF1FEE0FFF1F61E070E06C0FB8
:1016C0007D1FE60FF71F218B328B438B548BA2C0FB
:1016D0006A817B818C819D810E9459330E941330E5
:1016E000862E98C0AA80BB80CC80DD8093C08A8182
:1016F0009B81AC81BD818EAB9FABA8AFB9AF809110
:10170000BB05882309F486C06EA97FA988AD99AD71
:1017100023E333E34BEC51E40E947F326EAB7FABAB
:1017200088AF99AF77C06A817B818C819D8120E0F1
:1017300030E040E050E00E949F2F88230CF06AC008
:101740003092B80567C0EA80FB800C811D81C8011A
:10175000B70120E030E040E050E00E949F2F882356
:1017600014F43092B805C801B7010E9459330E94A1
:1017700013306093D0054EC02A813B814C815D813E
:101780008091BB05882351F0CA01B90123E333E3FB
:101790004BEC51E40E947F329B01AC012E833F83CE
:1017A0004887598791E0992A35C02A813B814C812D
:1017B0005D818091BB05882351F0CA01B90123E303
:1017C00033E34BEC51E40E947F329B01AC012A874A
:1017D0003B874C875D87A2E09A2A1CC02A813B8107
:1017E0004C815D818091BB05882351F0CA01B9010C
:1017F00023E333E34BEC51E40E947F329B01AC01C5
:101800002E873F87488B598BB4E09B2A03C0E3E0C7
:10181000E093B8058BAD9CADADADBEAD7C018D0147
:10182000D801C701EBAE9CAFADAFBEAF9981F3015C
:10183000E90FF11D10811123B9F0812F81548A31F4
:1018400010F082E00FC09F5F9983C301BE016F5FFC
:101850007F4FAE014E5F5F4F0E942B25892B09F011
:10186000B7C481E08093B8058091B805882309F05A
:1018700084C48091A905873041F08091BE050E9403
:1018800049118091BF050E946C1151FE13C08E0159
:10189000025E1F4F8091D405B8010E94461C882328
:1018A00009F46AC4A5EDB5E0F8018CE001900D9251
:1018B0008150E1F7FAADF43009F45DC1F53048F438
:1018C000F23051F1F33008F0AAC0F13009F0ABC1A9
:1018D0000EC04AAD463009F44EC1463008F49FC0F0
:1018E000473009F453C1483009F09DC193C1C60186
:1018F000B50120E030E040E050E00E949F2F8823B7
:101900000CF446C18091A905873009F48CC1C60149
:10191000B5010E94130487C152E0851619F064E1F5
:10192000861651F4C601B5010E9459330E940E304B
:10193000CB010197069720F083E08093B80572C130
:10194000992021F482E0881609F422C17B010894D1
:10195000E108F10894E18916B1F48E2D64EC75E08C
:101960000E943B1C8091D40590E08E159F0509F0E4
:1019700059C1E5EDF5E0DF0151978CE00D90019242
:101980008150E1F74FC18E2C3EE1A32EB12CAC0E5D
:10199000BD1E8E2DB5010E94461C882309F4ECC3A0
:1019A00000E010E040E050E0C92CDD24BE016A5F99
:1019B0007F4FC601002E02C0959587950A94E2F7E5
:1019C00080FF0FC09501240F351FFB01E40FF51FA9
:1019D00080819181A281B381F90180839183A28367
:1019E000B3830F5F1F4F4C5F5F4F0330110509F743
:1019F0008E01025E1F4F882DB8010E943B1C809112
:101A0000D40590E08E159F0509F00CC1A5EDB5E059
:101A1000F8018CE001900D928150E1F703C199200B
:101A200009F478C08E010A5F1F4F24ECE22E25E0F6
:101A3000F22ECC24DD24A92CBB24C5010C2C02C021
:101A4000959587950A94E2F780FF35C08091BC0593
:101A50008823F9F0D70151966D917D918D919C91DC
:101A600054975D962D913D914D915C9190970E9478
:101A7000C62E9B01AC01F801608171818281938146
:101A80000E94C62ED8016D937D938D939C931397DE
:101A90001CC0F8016081718182819381D7012D91F1
:101AA0003D914D915C910E94C62EF8016083718337
:101AB000828393830AC0F70180819181A281B381DF
:101AC000F80180839183A283B3830894C11CD11C45
:101AD0000C5F1F4F44E050E0E40EF51E53E0C516C6
:101AE000D10409F0AACF6E817F81888599852A85E6
:101AF0003B854C855D85EE84FF8408891989A0901B
:101B0000BF06B090C006C090C106D090C20688241F
:101B10000E9467046AAD653011F487E001C086E079
:101B20009AE2692E712C6C0E7D1EB3010E94461C38
:101B3000882309F421C36AA57BA58CA59DA52EA5A4
:101B40003FA548A959A9EAA8FBA80CA91DA9A090DE
:101B5000BF06B090C006C090C106D090C2068824CF
:101B60000E946704A4ECB5E0F3018CE001900D92B3
:101B70008150E1F757C07AAD763011F487E001C0AB
:101B800086E064EC75E00E943B1C4DC0992021F476
:101B900086E08093B80547C004EC15E086E0C82EC7
:101BA000D12CCC0EDD1EEE24FF24A92CBB24C501B4
:101BB0000E2C02C0959587950A94E2F780FF1CC011
:101BC000D8016D917D918D919C91139751962D9196
:101BD0003D914D915C9154970E94C52EF601208154
:101BE0003181428153810E94C52ED8015D966D934B
:101BF0007D938D939C9390970894E11CF11C0C5F4E
:101C00001F4FE4E0F0E0CE0EDF1EF3E0EF16F1042C
:101C100071F608C08CE0E1EEF5E0DF011D928A95D7
:101C2000E9F701C0992442FC03C0992009F490C24D
:101C30008091BA05882399F06BAD7CAD8DAD9EADDA
:101C400020E030E040E050E00E949F2F88233CF4E9
:101C50008091B905843019F086E08093B805222080
:101C600039F08091B905823018F086E08093B8058C
:101C70008091B805882309F080C28E010A5F1F4F4A
:101C8000B4ECEB2EB5E0FB2ECC24DD24A92CBB2438
:101C9000C5010C2C02C0959587950A94E2F780FF48
:101CA00033C02220D9F58091BC058823D1F0F701FB
:101CB0006189728983899489258D368D478D50A1DC
:101CC0000E94C62E9B01AC01D8016D917D918D9132
:101CD0009C910E94C62EF801608371838283938356
:101CE0001DC0D8016D917D918D919C91F70120814E
:101CF0003181428153810E94C62ED8016D937D931C
:101D00008D939C9313970AC0F70180819181A281E2
:101D1000B381F80180839183A283B3830894C11CAB
:101D2000D11C0C5F1F4F44E050E0E40EF51E53E061
:101D3000C516D10409F0ACCF8091B905843048F4C0
:101D4000823008F04CC0882359F0813009F0F3C18B
:101D500020C0843009F0EFC1992009F4ECC18BC098
:101D6000992009F488C06E817F81888599852A85AC
:101D70003B854C855D85EE84FF8408891989A09098
:101D8000BF06B090C006C090C106D090C20688249D
:101D900023C0992009F46FC06E817F818885998561
:101DA0002A853B854C855D85EE84FF8408891989E9
:101DB0008090BA05882061F4A091C005ABAFB091C6
:101DC000C105BCAFE091C205EDAFF091C305FEAF18
:101DD000ABACBCACCDACDEAC0E946704ACC181E066
:101DE00090E00090D30502C0880F991F0A94E2F793
:101DF0008095982209F43FC06EA97FA988AD99AD5E
:101E000020E030E040E050E00E949F2F882309F05E
:101E100043C0E091D105F0E0EE0FFF1FEE0FFF1F72
:101E20008E010F5F1F4FE00FF11FC188D288E3883A
:101E3000F488C701B60120E030E040E050E00E94A5
:101E40009F2F8823E1F48091D20590E0880F991F9D
:101E5000880F991F080F191FD80151966D917D9118
:101E60008D919C91549720E030E040E050E00E943A
:101E70009F2F882321F486E08093B8055CC16EA96A
:101E80007FA988AD99AD20E030E040E050E00E94AD
:101E90009F2F882309F4F8C0E091D105F0E0EE0F00
:101EA000FF1FEE0FFF1F8E010F5F1F4FD801AE0FF8
:101EB000BF1FEC53FA4F15966D917D918D919C91BA
:101EC000189720813181428153810E94C52E1B01C8
:101ED0002C01E091D205F0E0EE0FFF1FEE0FFF1F87
:101EE0000E0F1F1FEC53FA4FD80115966D917D917F
:101EF0008D919C91189720813181428153810E945C
:101F0000C52E3B014C018CE0FE017296DF011D9253
:101F10008A95E9F76EA97FA988AD99AD20E030E0F8
:101F200040E850E40E947F322EA93FA948AD59AD48
:101F30000E947F327B018C01C201B101A20191019B
:101F40000E947F329B01AC01C801B7010E94C52EDF
:101F50007B018C01C401B301A40193010E947F3273
:101F60009B01AC01C801B7010E94C52E7B018C0109
:101F700020E030E040E050E00E949F2F882324F4CE
:101F800084E08093B805F9C0C801B7010E940C3302
:101F90007B018C01C201B101A40193010E94BA31FD
:101FA0009B01AC0117FB109517F91095C801B701FB
:101FB0000E94A62F6B017C018091B905833021F42A
:101FC000F7FAF094F7F8F0946EA97FA988AD99AD6F
:101FD00020E030E040E050E00E949F2F88236CF426
:101FE000F7FAF094F7F8F0944EA95FA968AD79ADCF
:101FF00070584EAB5FAB68AF79AF0091D105A02EA2
:10200000BB24AA0CBB1CAA0CBB1C8E010F5F1F4F6C
:10201000A00EB11EC401B301A70196010E947F3238
:102020009B01AC01C201B1010E94C52E20E030E04D
:1020300040E05FE30E947F32D50151966D937D931E
:102040008D939C9354978091D20590E0880F991FAF
:10205000880F991F080F191FC201B101A70196012E
:102060000E947F329B01AC01C401B3010E94C62EC5
:1020700020E030E040E05FE30E947F32F801618BB6
:10208000728B838B948B15C0E091D205F0E0EE0F3C
:10209000FF1FEE0FFF1FEC0FFD1F228933894489BC
:1020A0005589C701B6010E94BA316EAB7FAB88AFCC
:1020B00099AF9091B9052091D1050091D205E0909A
:1020C000D3058090BA05882061F4F091C005FBAF7C
:1020D0004091C1054CAF5091C2055DAF6091C30501
:1020E0006EAF00D000D00F92EDB7FEB731964EA97B
:1020F0005FA968AD79ADADB7BEB711964D935D934D
:102100006D937C93149780E0923009F481E084838E
:1021100084EC95E0BE016A5F7F4FAE014E5E5F4F7B
:10212000ABACBCACCDACDEAC0E9457050F900F90B1
:102130000F900F900F908091B8058823F1F4A4ECD4
:10214000B5E0FE0136968CE001900D928150E1F7EA
:102150008091BD05882369F00E9473241092B70511
:102160008091BD05823019F40E94F90302C01092DB
:10217000BD058091B80501C08AE0EE960FB6F894CF
:10218000DEBF0FBECDBFCF91DF911F910F91FF90AA
:10219000EF90DF90CF90BF90AF909F908F907F9007
:1021A0006F905F904F903F902F900895CA80DB8092
:1021B000EC80FD80C701B6010E9459330E940E30A9
:1021C0009B01173409F440C81D3409F0E2C97FC9E6
:1021D0001F3484F41D340CF01DCB1C340CF078CA71
:1021E00019340CF04ECA163409F410CA173409F029
:1021F0000ECB10CB143509F4A6CA153554F412359C
:1022000009F475CA13350CF08ECA103509F0FFCAEF
:1022100069CA193509F4C9CA1A3509F4DFCA18356B
:1022200009F0F5CAA9CAE8EBF5E085E3DF011D92E4
:102230008A95E9F78091BB069091BC06A091BD06F6
:10224000B091BE068093C0059093C105A093C205CE
:10225000B093C3051092D10591E09093D20582E02E
:102260008093D3059093BC058091D405BF01635E34
:102270007F4F0E94461C882319F48AE00E94682A36
:10228000089510920001249A259A2C9808952C986C
:1022900008951F93182F282F332727FD30958091FD
:1022A000000190E02817390771F00E947324112370
:1022B00039F0111614F42D9801C02D9A2C9A01C0F2
:1022C0002C98109300011F910895109201013B9AE0
:1022D00043980895439808951F93182F8091010102
:1022E000181749F00E947324113011F4439A01C069
:1022F0004398109301011F910895E0ECF0E0808174
:102300008D7F80831092C50087E68093C400E1EC46
:10231000F0E080818061808380818860808380811B
:10232000806880830895282FE09104019E2F9F5F8D
:10233000903431F490E004C08091AA0584FD0FC070
:10234000809105019817C1F3F0E0E359F94F20831C
:10235000909304018091C10080628093C100089530
:102360001F920F920FB60F9211248F939F93EF93AA
:10237000FF9380910501E82FF0E0E359F94F908138
:102380009093C600982F9F5F903409F490E090934B
:10239000050180910401981729F48091C1008F7D77
:1023A0008093C100FF91EF919F918F910F900FBE8D
:1023B0000F901F9018959091030180910201891749
:1023C00011F4EFEF0DC0E92FF0E0E351FA4FE08197
:1023D000892F8F5F80930301803811F410920301DD
:1023E0008E2F0895809102018093030108951F921A
:1023F0000F920FB60F9211242F933F934F935F9339
:102400006F937F938F939F93AF93BF93EF93FF93BC
:102410002091C6002132A1F0223218F42831B9F4FB
:1024200013C02F3319F02E3791F404C08091AA0500
:10243000816003C08091AA0582608093AA0518C0BC
:102440008091AA058860F9CF0E94F90311C0E0913C
:1024500002019E2F9F5F903809F490E08091030164
:10246000981731F0F0E0E351FA4F20839093020186
:10247000FF91EF91BF91AF919F918F917F916F915C
:102480005F914F913F912F910F900FBE0F901F9032
:1024900018951F920F920FB60F9211242F933F930E
:1024A0004F935F936F937F938F939F93AF93BF935C
:1024B000EF93FF9386B190E0809590958770907030
:1024C000892B91F0309903C00E94F9030DC0319916
:1024D00004C08091AA05886005C0329905C080912A
:1024E000AA0582608093AA05FF91EF91BF91AF91F9
:1024F0009F918F917F916F915F914F913F912F911C
:102500000F900FBE0F901F901895CF93DF9380917F
:10251000AA05882309F457C08091AA05C82FD0E0E6
:10252000CE0180769070892BE9F086E08093A90532
:10253000C6FF10C08FEF0E94512A81E00E94272A17
:102540008091AA058F7E8093AA058091AA0584FFB9
:10255000FCCF03C08EEF0E94512A8091AA058F798B
:102560008093AA05C4FF04C081E08093A8052BC016
:10257000C0FF07C00E94C02A8091AA058E7F809369
:10258000AA05C3FF07C00E9461158091AA05877F35
:102590008093AA05C2FF07C00E946B158091AA050F
:1025A0008B7F8093AA05C1FF0EC00E9457158091B2
:1025B000D00681FF03C081E08093B7058091AA0512
:1025C0008D7F8093AA05DF91CF91089580E066E02A
:1025D00071E00E94B21C882369F080910601882373
:1025E00061F086E091E00E94102A86E091E00E946E
:1025F000E30801C08AE00E94682A81E066E071E099
:102600000E94B21C882321F48AE00E94682A08955F
:1026100080910601882351F086E091E00E94102A03
:1026200086E091E00E94E3080E94682A0895DF9204
:10263000EF92FF920F931F93DF93CF93CDB7DEB747
:1026400029970FB6F894DEBF0FBECDBF7C01FC0109
:102650008081843209F009C181E0898381818734D6
:1026600081F1883474F48432C1F0853234F48823E3
:1026700089F0833209F097C01AC0833409F093C0FF
:102680002AC08E3409F469C08835F1F1883409F024
:102690008AC04CC00E941D2AF3C082E08983F701E2
:1026A0008281882309F0E6C00E94672DE9C082E09C
:1026B0008983F7018281882309F0DCC00E94A92C5C
:1026C000DFC082E08983F7018281882309F0D2C0CC
:1026D0000E94BD2BD5C082E08983F70182818823C7
:1026E00009F0C8C08091A905873021F40E94F90340
:1026F00085E007C0882309F0BFC087E08093A90563
:1027000084E00E94272ABCC082E08983F70182818D
:10271000882309F0AFC08091A905863009F0B0C0C8
:1027200083E00E94272A1092A905AAC08091D006B2
:1027300084FD02C017E0A5C08091A905882319F087
:10274000863009F099C00E94B7048091A8058823BB
:1027500009F096C00E94E61293C082E08983F701D7
:102760008281882319F0DD24D3941EC080E0B70154
:102770000E94B21C882329F080E0B7010E94842CBB
:1027800003C08AE00E94682A81E0B7010E94B21C5F
:10279000882321F48AE00E94682A72C081E0B70190
:1027A0000E94842C6DC0DD24C7018E010F5F1F4F76
:1027B000B801AE014E5F5F4F0E942B25892B09F4B3
:1027C0005DC09981F701E90FF11D80818D3309F01A
:1027D00051C0892F8F5F8983DD2041F1482F50E060
:1027E0002981822F90E0FC01E41BF50BEE0DFF1D0B
:1027F000D701A80FB91F8C9180838C912F5F2983FB
:10280000882371F7C7010E94E308182F8823C9F5B0
:102810006A817B818C819D810E9459330E94133093
:10282000DC01CB01B7010E94A71C2BC0C701B80176
:10283000AE014A5F5F4F0E942B25892BF9F08981F9
:10284000E80EF11CF70180818823A1F46A817B8165
:102850008C819D810E940E30DC01CB014E815F8115
:10286000688579850E943E1A03C0C7010E94E3086B
:10287000182F07C013E005C01BE003C011E001C022
:1028800010E0812F29960FB6F894DEBF0FBECDBFA2
:10289000CF91DF911F910F91FF90EF90DF900895FE
:1028A0001F9311E044C02A3011F02D30D1F40E9462
:1028B00085128091A805882309F03FC0E091380176
:1028C000EE2349F0F0E0EA5FFE4F108286E091E0EF
:1028D0000E94171301C080E00E94682A10923801FC
:1028E00006C080913901882329F0293201F5109220
:1028F00039011DC02132D8F02F32C9F0283219F425
:102900001093390114C090913801913380F4822FD3
:102910008156E92FF0E09F5F8A3120F4EA5FFE4F95
:10292000205202C0EA5FFE4F2083909338010E943C
:10293000DB11282F8F3F09F0B6CF1F910895109219
:102940003801109239010E94222A87B1887F87B905
:1029500088B1876088B9ECE6F0E080818760808389
:10296000E8E6F0E080818260808308958091D0065F
:1029700082FF02C0289A01C028988091A90583305F
:10298000C1F48091C306809361018091BA0690E002
:10299000A0E0B0E00297A109B109880F991FAA1F12
:1029A000BB1F81958093600180916F00826080934E
:1029B0006F0008951F920F920FB60F9211248F93FC
:1029C0009F939BB18091C3068C71937E892B8BB9A9
:1029D0001092B1009F918F910F900FBE0F901F909A
:1029E00018959B01AC01203283E0380780E048074E
:1029F00080E0580720F420E233E040E050E060E05F
:102A000070E788E399E30E949733C901DA018030C7
:102A100020E0920721E0A20720E0B20730F4BC01D9
:102A20009C0140E050E091E02FC0803020E0920710
:102A300028E0A20720E0B207A0F423E0B695A7950E
:102A4000979587952A95D1F7BC019C0140E050E00D
:102A5000A3E0220F331F441F551FAA95D1F792E020
:102A600013C0F6E0B695A79597958795FA95D1F797
:102A7000BC019C0140E050E0E6E0220F331F441F00
:102A8000551FEA95D1F793E080918100887F982BBC
:102A900090938100709389006093880020934E0189
:102AA00030934F014093500150935101089580910C
:102AB000A905823029F483E08093A9050E94B61409
:102AC00008958091A905833029F484E08093A905B5
:102AD0001092B7050895E0915E01F0915F01309783
:102AE000C1F1658576858785908920914A0130916D
:102AF0004B0140914C0150914D01621B730B840BB3
:102B0000950B0E9438201092560110925701109296
:102B100058011092590160E070E080E090E00E945E
:102B2000F11480E091E7A2E0B0E08093520190932D
:102B30005301A0935401B093550110924A01109291
:102B40004B0110924C0110924D0182E08093A90537
:102B500008951092A905089584E2EAE3F1E0DF0107
:102B60001D928A95E9F760E273E080E090E00E94B0
:102B7000F11410925F0110925E01109262010895AB
:102B800080916F008D7F80936F009091E0069F3F52
:102B900021F48091AA0585FF0BC0892F90E00E9447
:102BA000A4248091D00682FF02C028980895289A14
:102BB00008958AB18C6F8AB98BB183709091C306E6
:102BC000892B8BB9209AE1E8F0E080818F7E8083A9
:102BD000808188608083E0E8F0E080818D7F808361
:102BE00080818E7F808380818F73808380818F7CC2
:102BF00080831092B0001092B100E0E7F0E0808195
:102C0000816080830E94B6140E94C01508951F92AF
:102C10000F920FB60F921124EF92FF920F931F9312
:102C20002F933F934F935F936F937F938F939F93D4
:102C3000AF93BF93CF93DF93EF93FF9380916201A4
:102C4000882309F04CC39BB120916101822F807EC3
:102C50009F71892B8BB98BB1837E822B8BB980912D
:102C600060018093B20082E08093B10081E08093A4
:102C70006201789480915E0190915F01892B09F047
:102C80007FC00E94E41CEC0190935F0180935E0181
:102C9000009709F46EC08091A9058330D1F46BA12F
:102CA0007CA18DA19EA160935601709357018093E2
:102CB0005801909359010E94F11480E091E7A2E03D
:102CC000B0E08093520190935301A0935401B093CC
:102CD00055012BA53CA54DA55EA5DA01C901B59509
:102CE000A79597958795820F931FA41FB51F809373
:102CF0005A0190935B01A0935C01B0935D012D8517
:102D00003E854F855889DA01C901B595A7959795F4
:102D10008795B095A095909581959F4FAF4FBF4FE8
:102D200080933A0190933B01A0933C01B0933D0105
:102D300080933E0190933F01A0934001B0934101E5
:102D40008093420190934301A0934401B0934501C5
:102D50002093460130934701409348015093490125
:102D600010924A0110924B0110924C0110924D01A9
:102D700007C00E94C0158091AA0584608093AA05AF
:102D8000E0915E01F0915F01309709F49FC22081CC
:102D90002093610140913A0150913B0160913C01C7
:102DA00070913D0181819281A381B481480F591FA7
:102DB0006A1F7B1F40933A0150933B0160933C0193
:102DC00070933D011416150616061706C4F5246007
:102DD000209361018091460190914701A0914801A3
:102DE000B0914901481B590B6A0B7B0B40933A0188
:102DF00050933B0160933C0170933D0125FF0CC053
:102E00008091AB059091AC05A091AD05B091AE0558
:102E10000197A109B1090BC08091AB059091AC0558
:102E2000A091AD05B091AE050196A11DB11D809395
:102E3000AB059093AC05A093AD05B093AE05409162
:102E40003E0150913F0160914001709141018581A7
:102E50009681A781B085480F591F6A1F7B1F409339
:102E60003E0150933F01609340017093410114165D
:102E7000150616061706D4F52091610128602093E7
:102E800061018091460190914701A0914801B09164
:102E90004901481B590B6A0B7B0B40933E01509331
:102EA0003F01609340017093410126FF0CC0809167
:102EB000AF059091B005A091B105B091B205019711
:102EC000A109B1090BC08091AF059091B005A09107
:102ED000B105B091B2050196A11DB11D8093AF055A
:102EE0009093B005A093B105B093B2054091420113
:102EF0005091430160914401709145018185928513
:102F0000A385B485480F591F6A1F7B1F4093420158
:102F100050934301609344017093450114161506C4
:102F200016061706D4F520916101206120936101F6
:102F30008091460190914701A0914801B0914901CB
:102F4000481B590B6A0B7B0B409342015093430182
:102F5000609344017093450127FF0CC08091B30535
:102F60009091B405A091B505B091B6050197A1095E
:102F7000B1090BC08091B3059091B405A091B5053E
:102F8000B091B6050196A11DB11D8093B305909334
:102F9000B405A093B505B093B60520914A013091D0
:102FA0004B0140914C0150914D012F5F3F4F4F4FCE
:102FB0005F4F20934A0130934B0140934C01509353
:102FC0004D0185859685A785B089281739074A0759
:102FD0005B0708F075C18091A905843009F05BC0DA
:102FE00020914E0130914F0140915001509151017B
:102FF0008091520190915301A0915401B0915501DB
:10300000280F391F4A1F5B1F209352013093530131
:103010004093540150935501213002EE300704E0F3
:10302000400700E0500708F451C12050324E4440A0
:1030300050402093520130935301409354015093D8
:1030400055012091560130915701409158015091FE
:10305000590163A574A585A596A562177307840712
:10306000950740F00E94C0158091AA058460809366
:10307000AA052CC179018A01E61AF70A080B190B77
:10308000C801B701E0925601F09257010093580130
:10309000109359016CC087A590A9A1A9B2A92817BE
:1030A00039074A075B0708F065C020914E0130914F
:1030B0004F014091500150915101809152019091E6
:1030C0005301A0915401B0915501280F391F4A1F97
:1030D0005B1F20935201309353014093540150934E
:1030E0005501213002EE300704E0400700E05007B0
:1030F00008F4ECC02050324E44405040209352011E
:1031000030935301409354015093550183A594A5E6
:10311000A5A5B6A5209156013091570140915801BF
:1031200050915901820F931FA41FB51F8093560120
:1031300090935701A0935801B093590127A930AD3E
:1031400041AD52AD82179307A407B50740F0209315
:1031500056013093570140935801509359016091A3
:1031600056017091570180915801909159010E9428
:10317000F114ACC083A994A9A5A9B6A92817390749
:103180004A075B0708F480C0281739074A075B071E
:1031900069F480E091E7A2E0B0E08093520190935F
:1031A0005301A0935401B093550190C020914E015A
:1031B00030914F0140915001509151018091520145
:1031C00090915301A0915401B0915501280F391FDE
:1031D0004A1F5B1F209352013093530140935401C7
:1031E00050935501213012EE310714E0410710E0F1
:1031F000510708F46BC02050324E44405040209399
:103200005201309353014093540150935501209142
:1032100056013091570140915801509159018091C8
:103220005A0190915B01A0915C01B0915D01821700
:103230009307A407B50748F483A594A5A5A5B6A54B
:10324000281B390B4A0B5B0B04C0569547953795E5
:10325000279520935601309357014093580150937E
:10326000590127A130A541A552A580915601909101
:103270005701A0915801B091590182179307A407F3
:10328000B50708F06CCF63CF27A930AD41AD52AD83
:103290008091560190915701A0915801B091590128
:1032A00082179307A407B50789F02093560130933E
:1032B00057014093580150935901CA01B90157CFA2
:1032C00010925F0110925E010E94D51C80916101F5
:1032D0009091C30689278093610110926201FF914A
:1032E000EF91DF91CF91BF91AF919F918F917F919E
:1032F0006F915F914F913F912F911F910F91FF908F
:10330000EF900F900FBE0F901F901895F999FECF78
:1033100092BD81BD81E08FBB80B50895F894F99985
:10332000FECF92BD81BD81E08FBB40B54627842F83
:10333000992787FD9095262F30E082239323892BB0
:1033400039F06F3F19F060BD84E006C084E104C02D
:10335000442321F060BD84E28FBBF99A78940895EC
:103360008F929F92AF92BF92CF92DF92EF92FF9295
:103370000F93DF93CF9300D0CDB7DEB75C016B0125
:103380007A014A0100E01EC0002319F021E030E07C
:1033900008C0202F332727FD30952227330F221F07
:1033A0003327F60161916F01062F020F9C012F5FF9
:1033B0003F4F3A8329830E948E190894810891080F
:1033C00089819A8181149104F9F6C7018A0D9B1DA8
:1033D000602F0E948E190F900F90CF91DF910F9167
:1033E000FF90EF90DF90CF90BF90AF909F908F9025
:1033F0000895CF93DF93EC01FB019A0190E0B1E0D7
:1034000019C0F999FECFF2BDE1BDBFBBA0B59923AC
:1034100019F081E090E008C0892F992787FD9095E9
:103420008827990F881F992731969A2F980FA9936B
:10343000215030402115310521F7460F571FF999CA
:10344000FECF52BD41BD81E08FBB80B520E030E0B2
:10345000981711F421E030E0C901DF91CF91089570
:1034600080E090E065E00E948E1981E090E06DEAD6
:1034700076E046E350E00E94B0190895EF92FF9283
:103480000F931F93CF93DF93EC017A018B01FC0123
:103490008731910540F4EC5CFF4FEE0FFF1F059064
:1034A000F491E02D099486E01FC1CB01BA0120E020
:1034B00030E040E050E00E949F2F181614F088E0A2
:1034C00013C1CC0FDD1FCC0FDD1FC355D94FE882D0
:1034D000F9820A831B8305C1CB01BA0120E030E0E9
:1034E00040E450E40E949F2F882314F489E0FCC03C
:1034F000C801B7010E94E2320E9413306093BA06FD
:10350000F0C04093BB065093BC066093BD06709319
:10351000BE06E7C04093BF065093C0066093C10645
:103520007093C206DEC0CB01BA010E9459330E94DB
:1035300013306093C306D5C0CB01BA010E94E232BA
:103540000E9413306093E006CCC0CB01BA0120E0AA
:1035500030E040E752E40E947F3220E030E040E774
:1035600052E40E947F326093C8067093C90680932C
:10357000CA069093CB06B5C0DB01CA01BF77809322
:10358000CC069093CD06A093CE06B093CF06A9C0EB
:103590004093C4065093C5066093C6067093C70651
:1035A000A0C0CB01BA010E94E2320E9413306093A6
:1035B000E20697C0CB01BA010E94E2320E941330AA
:1035C0006093E1068EC0CB01BA0120E030E040E01C
:1035D00050E00E949F2F882321F08091D0068160C7
:1035E00011C08091D0068E7F0DC0CB01BA0120E0C2
:1035F00030E040E050E00E949F2F882331F080911E
:10360000D00682608093D0066CC08091D0068D7FFA
:10361000F9CFCB01BA0120E030E040E050E00E9459
:103620009F2F882321F08091D0068460EBCF80917A
:10363000D0068B7FE7CFCB01BA0120E030E040E03D
:1036400050E00E949F2F882321F08091D00688604F
:1036500003C08091D006877F8093D0060E94E62524
:1036600040C0CB01BA0120E030E040E050E00E94D1
:103670009F2F882321F08091D0068061C3CF809155
:10368000D0068F7EBFCFCB01BA010E9459330E9472
:1036900013306093D10625C04093D2065093D306D1
:1036A0006093D4067093D5061CC04093D606509301
:1036B000D7066093D8067093D90613C0CB01BA0120
:1036C0000E94E2320E9413307093DB066093DA06A8
:1036D00008C04093DC065093DD066093DE067093CD
:1036E000DF060E94301A80E0DF91CF911F910F9189
:1036F000FF90EF900895882309F45AC080E090E08D
:10370000AAE7B3E48093AD069093AE06A093AF060C
:10371000B093B0068093B1069093B206A093B3061F
:10372000B093B4068093B5069093B606A093B706FF
:10373000B093B8062AE02093BA068093BB06909314
:10374000BC06A093BD06B093BE0680E090E0AAEF51
:10375000B3E48093BF069093C006A093C106B093D4
:10376000C20680E090EAACE0B7E48093C80690938C
:10377000C906A093CA06B093CB068DEC9CECACECCA
:10378000BDE38093C4069093C506A093C606B0938C
:10379000C70680EC8093C3068DEC9CECACE4BDE3E3
:1037A0008093CC069093CD06A093CE06B093CF061F
:1037B00082E08093D0061092D10680E090E0A8ECE1
:1037C000B1E48093D2069093D306A093D406B0932D
:1037D000D50680E090E0AAE7B3E48093D606909304
:1037E000D706A093D806B093D90684E690E09093CC
:1037F000DB068093DA0680E090E0A0E8BFE38093E8
:10380000DC069093DD06A093DE06B093DF0699E117
:103810009093E00683E08093E1069093E2060E9495
:10382000301A089580E090E00E948619853079F47E
:103830008DEA96E061E070E046E350E00E94F919FD
:1038400020E0892B09F421E081E0282712C085308F
:1038500078F48DEA96E061E070E043E250E00E9487
:10386000F919892B29F080E00E947B1B21E001C01F
:1038700020E0822F08959DE0899FC001112480508F
:103880009E4F4CE050E00E94B01908950F931F9393
:10389000CF93DF93162F072F9DE0899FE00111241E
:1038A000C050DE4F862F972FBE014CE050E00E94A3
:1038B000F919892B11F081E00FC0E12FF02F8CE076
:1038C000DF011D928A95E9F7CE01612F702F4CE040
:1038D00050E00E94B01980E0DF91CF911F910F91CD
:1038E0000895EF92FF921F93DF93CF93CDB7DEB78A
:1038F0002C970FB6F894DEBF0FBECDBF0E94121CEE
:10390000882341F48AE00E94682A81E00E947B1BA0
:103910000E94672D10E07E010894E11CF11C812FAC
:10392000B7010E94461C882319F48AE00E94682A85
:103930001F5F1830A1F72C960FB6F894DEBF0FBEAC
:10394000CDBFCF91DF911F91FF90EF90089593E34A
:10395000899FC001112480509D4F42E350E00E9496
:10396000B01908950F931F93CF93DF938B0193E3C7
:10397000899FE0011124C050DD4FCB01BE0142E31D
:1039800050E00E94F919892B11F081E009C0F8017B
:103990001082CE01B80142E350E00E94B01980E0ED
:1039A000DF91CF911F910F9108959091890580919A
:1039B0008A05981741F080918A058F5F823109F45A
:1039C00080E080938A0508959091890580918A0509
:1039D000981719F420E030E008C090918A058BE335
:1039E000989F900111242D593E4FC901089590913F
:1039F0008A0520E080918B05981709F421E0822F39
:103A00000895EF92FF920F931F9360938C0570932C
:103A10008D0580938E0590938F05209390053093AC
:103A200091054093920550939305E0929405F0928E
:103A3000950500939605109397051F910F91FF90A0
:103A4000EF9008958F929F92AF92BF92CF92DF92A4
:103A5000EF92FF920F931F93CF93DF93EC016B01D3
:103A6000009709F460C08AA1882309F05CC0ED8842
:103A7000FE880F89188DFB01B588A6889788808CF1
:103A8000C801B7012B2D3A2D492D582D0E949F2F8B
:103A900088230CF048C0C801B701A80197010E9413
:103AA0007F327B018C016091C8067091C9068091BC
:103AB000CA069091CB06905820E030E040E050ECF0
:103AC0000E947F322D8D3E8D4F8D58A10E947F32F6
:103AD0009B01AC01C801B7010E94C62E0E940C33A5
:103AE0007B018C016B2D7A2D892D982D9701A801D2
:103AF0000E949F2F882324F4EB2CFA2C092D182DDB
:103B00006B2D7A2D892D982D9701A8010E949F2F4A
:103B1000882349F0C701D801F601858B968BA78BC6
:103B2000B08F81E081A3DF91CF911F910F91FF9022
:103B3000EF90DF90CF90BF90AF909F908F900895BF
:103B40002F923F924F925F926F927F928F929F92AD
:103B5000AF92BF92CF92DF92EF92FF920F931F939B
:103B6000DF93CF93CDB7DEB768970FB6F894DEBF7B
:103B70000FBECDBF1C016A017B0128013901DC01A8
:103B8000D7966D917D918D919C91DA970E943F30EF
:103B90004B015C01A70196010E947F320E948C2F8D
:103BA0000E9413307B018C01F10163A374A385A3F0
:103BB00096A3C501B401A30192010E947F320E9425
:103BC0008C2F0E94133069877A878B879C87D1015D
:103BD00097966D937D938D939C939A979B966D91F9
:103BE0007D918D919C919E9722E330E040E050E0E2
:103BF0000E9478330E94413020E030E040E752E4F8
:103C00000E947F320E940E302B013C01C801B70197
:103C10000E943F307B018C01C301B2010E94413000
:103C20006D837E838F839887C501B401A5019401BC
:103C30000E947F325B016C01C801B701A8019701A6
:103C40000E947F326D877E878F87988B6D817E8102
:103C50008F8198859B01AC010E94C62E698B7A8B5F
:103C60008B8B9C8BC601B5012D853E854F85588970
:103C70000E94C52E29893A894B895C890E94A62F0A
:103C80000E948C2F0E940E3069837A838B839C83E1
:103C900069857A858B859C850E943F309B01AC01AC
:103CA0000E947F326D8B7E8B8F8B988FA601950142
:103CB0000E94C52E7B018C017094609450944094B6
:103CC000411C511C611C711CC301B2010E94413096
:103CD0009B01AC010E94C62E9B01AC01C801B7013B
:103CE0000E94A62F0E947C30F101A584B684C7846F
:103CF000D0888601750129813A814B815C81E21A65
:103D0000F30A040B150B0E940E30A8019701261B25
:103D1000370B480B590BDA01C90157FF4AC0C601DE
:103D2000B5010E9441309B01AC0169897A898B8978
:103D30009C890E947F322D853E854F8558890E943F
:103D4000C52E2D893E894F89588D0E94C62E7B0134
:103D50008C016D817E818F81988520E030E040E884
:103D600050E40E947F329B01AC01C801B7010E9460
:103D7000A62F0E948C2F0E940E30AC01CB01DA01DD
:103D8000BC01CD0197FF04C060E070E080E090E0EE
:103D900069837A838B839C83A616B706C806D906E7
:103DA00024F4A982BA82CB82DC8280E090E0A0E099
:103DB000B0E029813A814B815C81F10127A730ABCA
:103DC00041AB52AB820F931FA41FB51F83AB94ABC3
:103DD000A5ABB6AB68960FB6F894DEBF0FBECDBFED
:103DE000CF91DF911F910F91FF90EF90DF90CF90D7
:103DF000BF90AF909F908F907F906F905F904F900B
:103E00003F902F9008952F923F924F925F927F9212
:103E10008F929F92AF92BF92CF92DF92EF92FF92DA
:103E20000F931F93CF93DF93D09089058091C8069D
:103E30009091C906A091CA06B091CB061C012D0134
:103E400057FA509457F8509400E010E0C0E0D0E0EA
:103E5000BB24B3943BE3C32E72C0DD2011F422E1F6
:103E6000D22EDA94209709F463C00115110509F4E4
:103E70005FC0A98C9A8C8B8C7C8C6D897E898F8994
:103E8000988D2A2D392D482D572D0E949F2F88233C
:103E900009F44EC08AA1882309F041C0F801E588E1
:103EA000F6880789108D6A2D792D882D972DA80108
:103EB00097010E94AD31181694F5C801B701A80109
:103EC00097010E947F327B018C01C201B10120E089
:103ED00030E040E050EC0E947F322D8D3E8D4F8DC2
:103EE00058A10E947F329B01AC01C801B7010E941A
:103EF000C62E0E940C33162F072FF82EE92E6A2D9E
:103F0000792D882D972D212F302F4F2D5E2D0E943A
:103F10009F2F87FD04C0A12E902E8F2C7E2C8A2DE2
:103F2000992DA82DB72D8D8B9E8BAF8BB88FB9A2F5
:103F3000DC9CC00111248E01EC01CD59DE4F809133
:103F40008A05D81609F089CFF0908A0520E030E084
:103F500000E010E09BE3E92E11C0FE9CE00111247B
:103F6000CD59DE4FC901B801AE010E94221DF39464
:103F7000F2E1FF1609F4FF2498018E018091890572
:103F8000F81659F7C901B80140E050E00E94221D1F
:103F900070908A05C0E0D0E08BE3582E35C0759C48
:103FA0004001112483E691E0880E991E209731F19B
:103FB00089A1882321F4F40181A18823F9F0E988FB
:103FC000FA880B891C896D897E898F89988DA80153
:103FD00097010E94A62F5B016C01F4016589768927
:103FE0008789908DA80197010E94A62F8B019C01C3
:103FF000CE01B601A5010E94A01D19A27394F2E1A1
:104000007F1609F47724E40180918905781639F642
:10401000E988FA880B891C896D897E898F89988D3A
:10402000A80197010E94A62F5B016C0160E070E07F
:1040300080E090E0A80197010E94A62F8B019C01CF
:10404000CE01B601A5010E94A01D19A2DF91CF915A
:104050001F910F91FF90EF90DF90CF90BF90AF90A6
:104060009F908F907F905F904F903F902F900895FA
:10407000AF92BF92CF92DF92EF92FF920F931F9376
:10408000CF93DF935B016C0190918A058BE3989F3E
:10409000E0011124CD59DE4FC601B5010E94413027
:1040A0002D8D3E8D4F8D58A10E947F327B018C015A
:1040B0006D857E858F8598890E9441309B01AC017A
:1040C000C801B7010E94A62F6D8F7E8F8F8F98A396
:1040D000AD86BE86CF86D88A80E090E0A0E0B0E0D2
:1040E0008D8B9E8BAF8BB88F898F9A8FAB8FBC8F48
:1040F0001AA281E089A30E94031FDF91CF911F9133
:104100000F91FF90EF90DF90CF90BF90AF90089508
:104110002F923F924F925F926F927F928F929F92D7
:10412000AF92BF92CF92DF92EF92FF920F931F93C5
:10413000DF93CF93CDB7DEB7C355D0400FB6F89419
:10414000DEBF0FBECDBF29013A012396ACAEBDAE96
:10415000CEAEDFAE239724968FAE2497309189059B
:104160002BE3329FA00111244D595E4F5A8F498F86
:104170002091AD063091AE064091AF065091B00649
:104180002BAF3CAF4DAF5EAF0E947F320E944F32EB
:1041900029966FAF29972A967FAF2A972B968FAFD4
:1041A0002B972C969FAF2C978091B1069091B206D9
:1041B000A091B306B091B4068FAB98AFA9AFBAAFD8
:1041C000C301B2012FA938AD49AD5AAD0E947F326B
:1041D0000E944F322D966FAF2D972E967FAF2E9760
:1041E0002F968FAF2F9760969FAF60972091B5065F
:1041F0003091B6064091B7065091B8062BAB3CAB58
:104200004DAB5EABC801B7010E947F320E944F32B6
:1042100061966FAF619762967FAF629763968FAF3B
:10422000639764969FAF6497A98DBA8D1C92209175
:104230008C0530918D0540918E0550918F052C96FF
:104240008CAD9DADAEADBFAD2C9782179307A40783
:10425000B50724F480E2A98DBA8D8C934090900527
:1042600050909105609092057090930560968CAD8A
:104270009DADAEADBFAD609784159505A605B7059C
:104280002CF4A98DBA8D8C9180648C93E090940568
:10429000F0909505009196051091970564968CAD68
:1042A0009DADAEADBFAD64978E159F05A007B1075C
:1042B0002CF4A98DBA8D8C9180688C932C96ACAC23
:1042C000BDACCEACDFAC2C97A21AB30AC40AD50A97
:1042D000E98DFA8DA182B282C382D482D7FE0BC04F
:1042E00088279927DC018A199B09AC09BD098183BC
:1042F0009283A383B48360962CAD3DAD4EAD5FAD8C
:104300006097241935094609570939014A01A98DD1
:10431000BA8D15962D933D934D935C93189757FF47
:104320000DC088279927DC01821B930BA40BB50BCA
:10433000E98DFA8D85839683A783B08764962CAC2C
:104340003DAC4EAC5FAC64972E183F08400A510A52
:10435000A201910157FE07C022273327A901221984
:10436000330944095509A98DBA8D19962D933D93AA
:104370004D935C931C971596ED90FD900D911C91BB
:104380001897FD0181819281A381B4818E159F05CB
:10439000A007B10710F4D801C70182179307A4073B
:1043A000B50710F4DA01C901E98DFA8D8587968782
:1043B000A787B08B0097A105B10509F47AC2C601A1
:1043C000B5010E9441302BAD3CAD4DAD5EAD0E94BC
:1043D000A62F6FA778AB89AB9AABC401B3010E943B
:1043E00041302FA938AD49AD5AAD0E94A62F6BA719
:1043F0007CA78DA79EA7C201B1010E9441302BA9C5
:104400003CA94DA95EA90E94A62F6FA378A789A7F2
:104410009AA76FA578A989A99AA99B01AC010E94C6
:104420007F327B018C016BA57CA58DA59EA59B0190
:10443000AC010E947F329B01AC01C801B7010E9410
:10444000C62E7B018C016FA178A589A59AA59B0139
:10445000AC010E947F329B01AC01C801B7010E94F0
:10446000C62E0E940C337B018C01A98DBA8D5D96FE
:104470006D937D938D939C93909760E070E080E8BE
:104480009FE3A80197010E94A62F2B013C012496CF
:10449000BFAD2497BB2359F423966CAD7DAD8EAD93
:1044A0009FAD2397A30192010E947F320CC060E070
:1044B00070E080E89FE323962CAD3DAD4EAD5FAD3F
:1044C00023970E94A62F5B016C01C801B701A601CA
:1044D00095010E947F3228966CAF7DAF8EAF9FAF63
:1044E0002897E98DFA8D618B728B838B948B658510
:1044F0007685878590890E9441307B018C01A601D9
:1045000095010E947F320E948C2F0E941330A98D4A
:10451000BA8DD7966D937D938D939C93DA97209166
:10452000C8063091C9064091CA065091CB062BA30C
:104530003CA34DA35EA3C801B701A30192010E9451
:104540007F322BA13CA14DA15EA10E947F3220E0D1
:1045500030E84BE355E40E94A62F0E948C2F0E9466
:104560000E30A98DBA8D9B966D937D938D939C9300
:104570009E976FA578A989A99AA9A30192010E9483
:104580007F326F8F78A389A39AA36BA57CA58DA595
:104590009EA5A30192010E947F326B8F7C8F8D8F2D
:1045A0009E8F6FA178A589A59AA5A30192010E946B
:1045B0007F321B012C019091890580918A05981703
:1045C00009F4B7C06090A4057090A5058090A60579
:1045D0009090A705B301C40120E030E040E050E036
:1045E0000E94AD3118160CF0A4C06091980570912E
:1045F000990580919A0590919B0590582F8D38A12F
:1046000049A15AA10E947F327B018C016B8D7C8D68
:104610008D8D9E8D20919C0530919D0540919E052C
:1046200050919F050E947F329B01AC01C801B701E8
:104630000E94C52E7B018C01C201B1012091A00511
:104640003091A1054091A2055091A3050E947F32AF
:104650009B01AC01C801B7010E94C52E7B018C01F2
:1046600023E333E343E75FE30E949F2F88230CF0AB
:1046700060C0B301C40128962CAD3DAD4EAD5FAD19
:1046800028970E949F2F87FD08C028968CAD9DAD6E
:10469000AEADBFAD28973C014D01C801B70123E382
:1046A00033E343E75FEB0E94AD3118160CF046C0D0
:1046B00060E070E080E89FE3A80197010E94C52EAA
:1046C00020E030E040E05FE30E947F320E940C3344
:1046D0005B016C016BA17CA18DA19EA12091CC06F8
:1046E0003091CD064091CE065091CF060E947F3288
:1046F000A60195010E947F327B018C0160E070E091
:1047000080E89FE3A60195010E94C52E9B01AC01A4
:10471000C801B7010E94A62F0E940C337B018C01B7
:10472000B301C4019701A8010E949F2F87FD06C015
:1047300007C0EE24FF2400E010E002C073018401F2
:10474000C701D801E98DFA8D818F928FA38FB48F25
:104750006BA17CA18DA19EA1905820E030E040E0AB
:1047600050EC0E947F32A98DBA8D5D962D913D91BE
:104770004D915C9190970E947F3220E030E040E0C4
:1047800050E00E94C62E0E940C33D62EC72EB82EA3
:10479000A92EB701C8012D2D3C2D4B2D5A2D0E945D
:1047A0009F2F87FD04C0ED2CFC2C0B2D1A2DC7016B
:1047B000D801E98DFA8D858B968BA78BB08F618997
:1047C0007289838994892D2D3C2D4B2D5A2D0E9461
:1047D0009F2F181634F081E0A98DBA8D92968C9394
:1047E00003C0E98DFA8D12A281E0A98DBA8D919650
:1047F0008C932D8A3E8A4F8A588E2B8D3C8D4D8D01
:104800005E8D298B3A8B4B8B5C8B8F8D98A1A9A1E8
:10481000BAA18D879E87AF87B88B64962CAD3DADCE
:104820004EAD5FAD649729873A874B875C8760966A
:104830008CAD9DADAEADBFAD60978D839E83AF83D4
:10484000B8872C962CAD3DAD4EAD5FAD2C9729832E
:104850003A834B835C83A8E9B5E0FE013D968CE08A
:1048600001900D928150E1F7E98DFA8D818992894D
:10487000A389B4898093A4059093A505A093A60568
:10488000B093A70580918B05809389058091890558
:104890008F5F823109F480E080938B05ACE8B5E04E
:1048A000FE0131968CE001900D928150E1F70E945B
:1048B000031FCD5ADF4F0FB6F894DEBF0FBECDBF3A
:1048C000CF91DF911F910F91FF90EF90DF90CF90EC
:1048D000BF90AF909F908F907F906F905F904F9020
:1048E0003F902F9008951F931BE306C00E948512EE
:1048F0008091A805882391F49091890580918A057B
:10490000981741F080918A05819FC00111248D592B
:104910009E4F61F78091A905833041F31F9108955F
:104920008091890580938A05809189058F5F823106
:1049300009F480E080938B058CE1ECE8F5E0DF0181
:104940001D928A95E9F7089520EA3FE004C0F90135
:104950003197F1F701970097D1F708951F93A0EAD7
:10496000BFE040E951E015E335E031C06A30710540
:104970008105910540F4232F2A95F1F7615070408D
:104980008040904024C0643671058105910540F453
:10499000212F2A95F1F76A5070408040904017C04F
:1049A000683E23E0720720E0820720E0920740F48F
:1049B000FA013197F1F7645670408040904007C08B
:1049C000FD013197F1F7685E7340804090406115BA
:1049D00071058105910551F61F910895EF92FF929F
:1049E0000F931F936091AB057091AC058091AD055D
:1049F0009091AE052091AF053091B0054091B10581
:104A00005091B205E090B305F090B4050091B50562
:104A10001091B6050E94011D6091AB057091AC0527
:104A20008091AD059091AE052091AF053091B00514
:104A30004091B1055091B205E090B305F090B405F6
:104A40000091B5051091B6050E9490081F910F9135
:104A5000FF90EF9008956F927F928F929F92AF9206
:104A6000BF92CF92DF92EF92FF920F931F93CF935B
:104A7000DF934C013B015A01FB018081F401E80FF7
:104A8000F11DEF0189918D3229F481812196CC2489
:104A9000C39405C08B3211F481812196CC2420E08F
:104AA00030E040E050E0DD24E0E070E0682F60534B
:104AB0006A30F8F4EF5FE930C0F47111DA94DA018A
:104AC000C901F2E0880F991FAA1FBB1FFA95D1F701
:104AD000280F391F4A1F5B1F220F331F441F551F0A
:104AE000260F311D411D511D09C0772339F4D39480
:104AF00005C06E3F29F4772319F471E08991D6CF70
:104B0000EE2319F420E030E051C0CA01B9010E943F
:104B10003F307B018C0120E030E040E050E00E941B
:104B20009F2F882369F42BC0C801B7012AE037ED15
:104B300043E25CE30E947F327B018C01F2E0DF0EF6
:104B40008FEFD8168CF3D81659F4C801B7012DECA5
:104B50003CEC4CEC5DE30E947F327B018C010FC08A
:104B6000DD2069F0C801B70120E030E040E251E407
:104B70000E947F327B018C01DA941D149CF3CC20BF
:104B800049F0D801C701B058F50180839183A28311
:104B9000B38305C0F501E082F18202831383882D7F
:104BA00080958C0FF301808321E030E0C901DF9113
:104BB000CF911F910F91FF90EF90DF90CF90BF901A
:104BC000AF909F908F907F906F90089584B1817F78
:104BD00084B985B18E6085B98091D00683FF09C004
:104BE00080916B008E6080936B0080916800816083
:104BF00008C080916B00817F80936B00809168007A
:104C00008E7F8093680008952F923F924F925F921B
:104C10006F927F928F929F92AF92BF92CF92DF92CC
:104C2000EF92FF920F931F93DF93CF93CDB7DEB731
:104C3000A9970FB6F894DEBF0FBECDBF382E562E03
:104C400049A738014901FE0131968CE0DF011D9230
:104C50008A95E9F7032D30FC02C010E00FC0609187
:104C6000AD067091AE068091AF069091B0060E949D
:104C70004F3269837A838B839C8311E001FF0FC0DD
:104C80001F5F6091B1067091B2068091B30690915A
:104C9000B4060E944F326D837E838F83988702FF14
:104CA0000FC01F5F6091B5067091B6068091B70680
:104CB0009091B8060E944F3269877A878B879C87CC
:104CC00089859A85AB85BC852D813E814F8158852C
:104CD0002DA33EA34FA358A7281739074A075B0700
:104CE00020F48DA39EA3AFA3B8A789819A81AB813D
:104CF000BC814DA15EA16FA178A5481759076A072D
:104D00007B0720F48DA39EA3AFA3B8A7612F70E00B
:104D100080E090E00E943F300E940C335B016C0108
:104D20006DA17EA18FA198A50E943F30A60195019B
:104D30000E94A62F7B018C012091C8063091C906E4
:104D40004091CA065091CB060E947F3220E030E8A5
:104D50004BE355E40E94A62F0E948C2F0E94133033
:104D600069A37AA38BA39CA3C401B301A6019501F7
:104D70000E947F329B01AC01C801B7010E947F32C3
:104D80009B01AC0160EC71EE84E69CE40E94A62FCE
:104D90000E944F327B018C0158EFE51654E2F50674
:104DA00051E0050750E0150718F45701680107C0E6
:104DB00038EFA32E34E2B32E31E0C32ED12C409035
:104DC000D10660EE46228091C3064826552011F494
:104DD00080EE48268DA19EA1AFA1B8A5B695A79556
:104DE00097958795662477244301681A790A8A0A79
:104DF0009B0A8091BA06A6019501281B3109410939
:104E000051092D8B3E8B4F8B588F6D8E7E8E8F8EE2
:104E100098A2698E7A8E8B8E9C8E198A1A8A1B8A2A
:104E20001C8A40E157E260E070E04D875E876F8743
:104E3000788B84E0282E242423B159A5552311F022
:104E40006EE0262730FE1DC089819A81AB81BC812E
:104E5000680E791E8A1E9B1E161417041804190466
:104E600084F421FF02C0522C03C07EEF3722542C61
:104E70008DA19EA1AFA1B8A5681A790A8A0A9B0ADA
:104E800001C0542C31FE2CC08D819E81AF81B8852C
:104E90004D8D5E8D6F8D78A1480F591F6A1F7B1F46
:104EA0004D8F5E8F6F8F78A31416150616061706A2
:104EB000BCF422FF03C058E0552602C06DEF362235
:104EC0008D8D9E8DAF8DB8A14DA15EA16FA178A5EE
:104ED000841B950BA60BB70B8D8F9E8FAF8FB8A33E
:104EE00032FE2CC089859A85AB85BC85498D5A8D4B
:104EF0006B8D7C8D480F591F6A1F7B1F498F5A8FFE
:104F00006B8F7C8F1416150616061706BCF423FF4C
:104F100003C050E1552602C06BEF3622898D9A8D71
:104F2000AB8DBC8D2DA13EA14FA158A5821B930B2B
:104F3000A40BB50B898F9A8FAB8FBC8F0E94851203
:104F4000332009F46AC08091A805882309F065C060
:104F50008BB13CE15322837E582A5BB86091BA063C
:104F600070E080E090E00E94AE244BB86D897E89AD
:104F70008F89988D0E94AE24EA14FB040C051D0550
:104F800008F05ACF4D855E856F8578894A0D5B1D87
:104F90006C1D7D1D4D875E876F87788B41328EE457
:104FA000580780E0680780E0780708F445CF405252
:104FB0005E44604070404D875E876F87788B29899B
:104FC0003A894B895C8969A17AA18BA19CA1260FA2
:104FD000371F481F591F298B3A8B4B8B5C8B60E026
:104FE00077E883E993E00E949733C901DA015C0115
:104FF0006D01AE14BF04C006D10610F4570168015C
:105000008091BA06A6019501281B31094109510971
:105010002D8B3E8B4F8B588F0FCFA9960FB6F894E0
:10502000DEBF0FBECDBFCF91DF911F910F91FF90DB
:10503000EF90DF90CF90BF90AF909F908F907F9038
:105040006F905F904F903F902F900895FF920F9335
:105050001F930E94B6140091D6061091D706209196
:10506000D8063091D90684E061E040E00E94042631
:105070000091D6061091D7062091D8063091D90616
:1050800083E061E040E00E9404268091DA0690917E
:10509000DB060E94A42442E0F42EFA940091D2068A
:1050A0001091D3062091D4063091D50687E060E0B8
:1050B00041E00E9404268091DA069091DB060E946E
:1050C000A42481E0F816A1F40091D2061091D30631
:1050D0002091D4063091D50687E061E040E00E943F
:1050E00004268091DA069091DB060E94A424D5CF95
:1050F000FF2099F60E94C0151F910F91FF9008950F
:105100001F920F920FB60F9211242F933F934F933C
:105110005F936F937F938F939F93AF93BF93EF931F
:10512000FF938091A905863059F08091AA0585FDED
:1051300007C00E94F9038091AA0580648093AA05A4
:10514000FF91EF91BF91AF919F918F917F916F915F
:105150005F914F913F912F910F900FBE0F901F9035
:1051600018958F929F92AF92BF92CF92DF92EF925B
:10517000FF920F931F93DF93CF93CDB7DEB72A979C
:105180000FB6F894DEBF0FBECDBF7B018C0120E0CF
:1051900030E040E050E00E949F2F88233CF48DE2F5
:1051A0000E94931117FB109517F91095A090E10636
:1051B000DA2C0CC0C801B70120E030E048EC52E422
:1051C0000E947F327B018C018EEFD80EE1E0ED155D
:1051D00088F3A0FE0AC0C801B70120E030E040E239
:1051E00051E40E947F327B018C01C801B70120E0AD
:1051F00030E040E05FE30E94C62E0E940E306B015B
:105200007C019E012F5F3F4FF901EA0DF11D8EE2F7
:105210008083BB2449011EC0BA1409F4B3948401ED
:105220000B0D111DC701B6012AE030E040E050E04F
:105230000E949733605DF8016083B394C701B601A3
:105240002AE030E040E050E00E949733C901DA01E3
:105250006C017D01C114D104E104F104E9F606C03A
:10526000FC01EB0DF11D2083B39403C0CE01019628
:1052700020E3BA14A8F3BA1489F48B2D8F5FFE01D2
:10528000E80FF11D90E39183B82EB39407C0FE019F
:10529000EB0DF11D80810E949311BA94BB20B9F7E8
:1052A0002A960FB6F894DEBF0FBECDBFCF91DF9127
:1052B0001F910F91FF90EF90DF90CF90BF90AF9034
:1052C0009F908F9008958F929F92BF92CF92DF927E
:1052D000EF92FF920F931F93DF93CF93CDB7DEB77B
:1052E0002A970FB6F894DEBF0FBECDBF7B018C01AD
:1052F00097FF0BC08DE20E94931110950095F094DA
:10530000E094E11CF11C011D111D67017801C1141D
:10531000D104E104F10421F480E30E9493112FC031
:10532000BB244E010894811C911C84010B0D111D9E
:10533000C701B6012AE030E040E050E00E94973318
:10534000605DF8016083B394C701B6012AE030E0E4
:1053500040E050E00E949733C901DA016C017D0101
:10536000C114D104E104F10401F707C0FE01EB0D03
:10537000F11D80810E949311BA94BB20B9F72A963F
:105380000FB6F894DEBF0FBECDBFCF91DF911F9156
:105390000F91FF90EF90DF90CF90BF909F908F90F4
:1053A00008950F931F93DF93CF93CDB7DEB7289760
:1053B0000FB6F894DEBF0FBECDBF982FFE01319619
:1053C0009E01275F3F4F892F817081939695E21749
:1053D000F307C9F78E01085F1F4FF8018081805DD8
:1053E0000E949311015010400C171D07B1F7289629
:1053F0000FB6F894DEBF0FBECDBFCF91DF911F91E6
:105400000F910895CF93DF93EC0102C00E94931196
:10541000FE01219684918823C9F7DF91CF910895E9
:10542000CF93DF93EC0103C021960E9493118881F2
:105430008823D1F7DF91CF9108958AE594E00E9407
:10544000022A089588E895E00E94022A08951F9391
:10545000182F82EF95E00E94022A133091F0143049
:1054600028F4113041F01230B1F408C0143061F06A
:10547000153089F40CC080EE95E00BC08CEC95E003
:1054800008C08AEB95E005C082EB95E002C089EA8E
:1054900095E00E94022A85EA95E00E94022A1F9167
:1054A00008951F93182F8CE196E00E94022A1E3F58
:1054B00029F01F3F39F481E196E002C08EEF95E0BC
:1054C0000E94022A84EF95E00E94022A1F9108950B
:1054D0001F93182F882319F48DE097E04DC085E0C5
:1054E00097E00E94022A163079F1173070F41330D9
:1054F00011F1143028F41130C1F01230D9F518C070
:105500001430E1F01530B1F51CC0193031F11A300A
:1055100028F41730E1F0183069F51CC01B3019F180
:105520001B30F0F01C3031F521C083EF96E020C035
:105530008BED96E01DC085EC96E01AC086EB96E0F8
:1055400017C080EA96E014C08EE896E011C08DE79F
:1055500096E00EC081E796E00BC082E696E008C0B8
:1055600081E496E005C082E396E002C087E296E01F
:105570000E94022A84E296E00E94022A1F91089566
:10558000AF92BF92CF92DF92EF92FF920F931F9351
:10559000DF93CF93CDB7DEB768970FB6F894DEBF31
:1055A0000FBECDBFDE011196EBEAF5E08CE0019075
:1055B0000D928150E1F78091A9058430C9F08530C2
:1055C00038F4823079F0833080F4882341F01DC0B4
:1055D0008630A1F0863078F08730B9F412C08CE1C3
:1055E00091E011C085E191E00EC080E191E00BC037
:1055F0008AE091E008C084E091E005C08DEF90E082
:1056000002C086EF90E00E94022A8FEE90E00E9496
:10561000022A8DE0E82EF12CEC0EFD1E670100E061
:1056200010E05E010894A11CB11CF501E00FF11F10
:1056300060817181828193810E944130F801E3553C
:10564000F94F20813181428153810E94A62F9B0115
:10565000AC01F60160837183828393838091D006CD
:1056600080FF0DC0CA01B9012BE832E441E25DE3DD
:105670000E947F32F6016083718382839383F601F7
:1056800061917191819191916F010E94B1288DEE8C
:1056900090E00E94022A0C5F1F4F0C30110529F682
:1056A00087EE90E00E94022A05ED15E0DD2480914E
:1056B000D00680FF1BC0F8016081718182819381D7
:1056C00024853585468557850E94C62E2BE832E411
:1056D00041E25DEB0E947F329B01AC01F7016081EA
:1056E0007181828193810E94C62E14C0F80160816D
:1056F00071818281938124853585468557850E94F5
:10570000C62E9B01AC01F70160817181828193817A
:105710000E94C52EF7016083718382839383F70112
:1057200060817181828193810E94B128F2E0DF164D
:1057300021F085EE90E00E94022AD39484E090E06C
:10574000E80EF91E0C5F1F4F93E0D91609F0AFCF9A
:1057500081EE90E00E94022A68960FB6F894DEBFB0
:105760000FBECDBFCF91DF911F910F91FF90EF90B2
:10577000DF90CF90BF90AF9008958091B9058230AF
:1057800091F0833028F4882341F08130B1F408C0CF
:10579000833061F0843089F40CC085E991E00BC05E
:1057A00081E991E008C08DE891E005C089E891E0C9
:1057B00002C084E891E00E94022A81E891E00E9400
:1057C000022A6091D40570E06A5C7F4F882777FDDC
:1057D0008095982F0E9463298091D105882351F4E8
:1057E0008091D205813019F48CE791E005C087E7FC
:1057F00091E002C082E791E00E94022A8091BB05FD
:10580000882319F08DE691E002C088E691E00E94BD
:10581000022A8091BC05882319F083E691E002C03A
:105820008EE591E00E94022A8091BA05882319F042
:1058300089E591E002C084E591E00E94022A80910E
:10584000BD05813041F0813018F0823059F406C036
:1058500080E591E005C08CE491E002C088E491E02D
:105860000E94022A8091BE05882359F0813019F0E8
:105870008F3F59F403C084E491E005C080E491E0D7
:1058800002C08CE391E00E94022A8091BF05882328
:1058900019F0813041F403C088E391E002C084E351
:1058A00091E00E94022A81E391E00E94022A609125
:1058B000D00570E080E090E00E9463298EE291E0E4
:1058C0000E94022A8091BB05882379F06091C0056F
:1058D0007091C1058091C2059091C3052BE832E417
:1058E00041E25DE30E947F3208C06091C005709183
:1058F000C1058091C2059091C3050E94B1288AE23A
:1059000091E00E94022A0895CF92DF92EF92FF92D7
:105910000F931F93E82E6B0187E291E00E94022A09
:10592000FF2400E010E0C801B7010E94632985E26E
:1059300091E00E94022AC6010E94102A82E291E0B0
:105940000E94022A1F910F91FF90EF90DF90CF905D
:105950000895CF92DF92EF92FF920F931F93DF9300
:10596000CF93CDB7DEB72C970FB6F894DEBF0FBE3E
:10597000CDBFFF246E010894C11CD11C8F2DB60130
:105980000E94461C882321F48AE00E94682A90C065
:105990008BEC91E00E94022A83E0F816E9F08F1563
:1059A00030F0E1E0FE1691F0EF1598F00CC0F5E054
:1059B000FF16C1F0FF1698F086E0F816B1F0E7E0A8
:1059C000FE16D1F415C087EC91E014C083EC91E091
:1059D00011C08FEB91E00EC08BEB91E00BC087EB19
:1059E00091E008C083EB91E005C08FEA91E002C02E
:1059F0008BEA91E00E94022A8601EE248091D00673
:105A000080FF0CC0F80160817181828193812BE855
:105A100032E441E25DE30E947F3205C0F80160811B
:105A20007181828193810E94B128F2E0EF1619F012
:105A300089EA91E002C085EA91E00E94022AE3949B
:105A40000C5F1F4F83E0E816C9F6F394E8E0FE16FA
:105A500009F094CF8FE991E00E94022A01EE15E04F
:105A6000FF248091D00680FF0CC0F8016081718115
:105A7000828193812BE832E441E25DE30E947F3230
:105A800005C0F80160817181828193810E94B128F3
:105A9000F2E0FF1619F08DE991E002C089E991E08A
:105AA0000E94022AF3940C5F1F4F83E0F816C9F698
:105AB0002C960FB6F894DEBF0FBECDBFCF91DF910D
:105AC0001F910F91FF90EF90DF90CF90089586E5A2
:105AD00094E00E94022A6091AD067091AE0680911A
