:100000000C9499010C94B6010C94B6010C94B601B1
:100010000C94B6010C94B6010C94B6010C94B60184
:100020000C94B6010C94AF080C94B6010C94910991
:100030000C94B6010C94B6010C94B6010C94B60164
:100040000C94B6010C94B6010C940D070C94B601F7
:100050000C94B6010C94B6010C94B6010C94B60144
:100060000C94B6010C94B6010A0D00466C6F6174D5
:10007000696E6720706F696E74206572726F720AA4
:100080000D00556E737570706F72746564207374B3
:100090006174656D656E740A0D00457870656374F2
:1000A000656420636F6D6D616E64206C657474654A
:1000B000720A0D00426164206E756D626572206681
:1000C0006F726D61740A0D006572726F723A200072
:1000D0006F6B0A0D000D0A000D0A4772626C20302A
:1000E0002E3662005761726E696E673A204661690A
:1000F0006C656420746F20726561642045455052C0
:100100004F4D2073657474696E67732E2055736943
:100110006E672064656661756C74732E0D0A002726
:10012000242720746F2064756D702063757272656A
:100130006E742073657474696E67730D0A0053746E
:100140006F726564206E65772073657474696E677D
:100150000D0A00556E6B6E6F776E20706172616D67
:10016000657465720D0A000D0A2724783D76616C6E
:1001700075652720746F2073657420706172616DDE
:1001800065746572206F72206A7573742027242746
:1001900020746F2064756D702063757272656E7463
:1001A0002073657474696E67730D0A0020286D6191
:1001B0007820696E7374616E7420636F726E6572FD
:1001C000696E67207370656564206368616E67653A
:1001D00020696E2064656C7461206D6D2F6D696E91
:1001E00029002028616363656C65726174696F6EB4
:1001F00020696E206D6D2F7365635E32290D0A24B0
:1002000039203D2000290D0A2438203D20002028D7
:100210007374657020706F727420696E7665727485
:10022000206D61736B2E2062696E617279203D20B2
:100230000020286D6D2F617263207365676D656E98
:1002400074290D0A2437203D200020286D6D2F6D64
:10025000696E2064656661756C74207365656B20DA
:1002600072617465290D0A2436203D200020286D16
:100270006D2F6D696E2064656661756C74206665AE
:1002800065642072617465290D0A2435203D2000C3
:1002900020286D6963726F7365636F6E647320737A
:1002A0007465702070756C7365290D0A2434203DC7
:1002B0002000202873746570732F6D6D207A290DCE
:1002C0000A2433203D2000202873746570732F6D3D
:1002D0006D2079290D0A2432203D200020287374D6
:1002E0006570732F6D6D2078290D0A2431203D2013
:1002F000002430203D2000494E46494E4954594E75
:10030000414ECDCCCC3D0AD7233C17B7D13877CC62
:100310002B329595E6241FB14F0A000020410000C2
:10032000C84200401C4620BCBE4CCA1B0E5AAEC57B
:100330009D7411241FBECFEFD4E0DEBFCDBF11E00E
:10034000A0E0B1E0E2E3F8E302C005900D92A03036
:10035000B107D9F713E0A0E0B1E001C01D92A033CE
:10036000B107E1F70E9430030C94171C0C940000B5
:10037000A0E0B0E0EEEBF1E00C94E61BEC015B01D9
:100380006115710519F0FB0191838083F9908F2D20
:1003900090E00E94D51B892BC9F7FDE2FF1621F4DE
:1003A000F990EE24E39405C02BE2F21609F4F990DB
:1003B000EE248E0101501040C80167EF72E043E067
:1003C00050E00E941803892B01F58E010E5F1F4F2C
:1003D000C8016AEF72E045E050E00E941803892BE3
:1003E00019F48E01095F1F4FA114B10419F0F50132
:1003F00011830083E0FC04C070E090E080E814C04A
:1004000070E090E080E86FEF08C1C8016FEF72E024
:1004100043E050E00E941803892B69F4A114B10451
:1004200029F470E090E080EC6FE7F7C02296F501C8
:10043000D183C083F6CF8824992440E050E060E067
:1004400070E0EF2DE053EA30A0F5F2E0EF2A8E2DB8
:1004500090E09C0128703070E2FE06C0232B79F5F5
:100460000894811C911C2BC0232B19F0089481083F
:100470009108DB01CA0112E0880F991FAA1FBB1F58
:100480001A95D1F7480F591F6A1F7B1F440F551F3C
:10049000661F771F4E0F511D611D711D483929E9D7
:1004A000520729E9620729E1720748F084E0E82A47
:1004B00006C0EE3F31F4E3FC39C098E0E92AF99038
:1004C000C0CFE53311F0E53189F529912D3219F4CA
:1004D000E0E1EE2A05C02B3219F081E090E003C084
:1004E000299182E090E0E22FE053EA3018F0C81B37
:1004F000D90B1CC020E030E0FCE020383F075CF462
:10050000C901880F991F880F991F280F391F220FC3
:10051000331F2E0F311DE991E053EA3068F3E4FEFA
:1005200003C0309521953F4F820E931ECE2CDD24C3
:10053000E1FE07C0A114B10421F02197F501D18398
:10054000C083CB01BA010E9402197B018C01F3E048
:10055000CF22DD2423E0C216D10421F417FB10952D
:1005600017F9109557016801C801B70120E030E084
:1005700040E050E00E946518882309F44AC097FEC5
:100580000DC026E1E22E23E0F22E90948194910892
:100590009394C0E2D0E000E010E012C09EE2E92EA9
:1005A00093E0F92EF6CFF7012591359145915491BD
:1005B000C601B5010E94701A5B016C018C1A9D0A7C
:1005C0008C169D0684F7D595C7950F5F1F4F063093
:1005D000110529F08CEF9FEFE80EF91EF1CFC50150
:1005E000D6017C018D018C2D880F8D2D881F8F3FAA
:1005F00051F0C601B50120E030E040E050E00E943B
:100600006518882331F482E290E090932F03809361
:100610002E037E2D9F2D802F612F272F392F482FBE
:10062000562FB901CA01CDB7DEB7ECE00C94021C1D
:10063000FB01DC014150504088F08D9181341CF069
:100640008B350CF4805E659161341CF06B350CF4D5
:10065000605E861B611171F3990B0895881BFCCFB6
:100660000E9499080E94D70D0E9402160E942F092D
:100670000E94A4060E94A0030E944D1683B78160C9
:1006800083BF889583B78E7F83BF0E943708F6CFDC
:100690000E946F090895AF92BF92CF92DF92EF92BE
:1006A000FF920F931F937B018C010E948409C80164
:1006B000B7010E9402195B016C0120E030E04AE7BB
:1006C00055E40E94701A7B018C0120E030E040E884
:1006D0005FE30E94651888231CF461E070E024C089
:1006E000C801B70120E03FEF4FE757E40E94091A25
:1006F0001816B4F4C601B50120E030E040E251E440
:100700000E94701A0E94D61880E991E005C0FC0191
:100710003197F1F76150704061157105C1F707C05D
:10072000C801B7010E94D618CB010197F1F71F91BC
:100730000F91FF90EF90DF90CF90BF90AF90089512
:1007400081E2E0E0F1E0DF011D928A95E9F7609136
:10075000190370911A0380911B0390911C0320E0F0
:1007600030E040E752E40E946918609307017093FB
:1007700008018093090190930A0160911D03709113
:100780001E0380911F039091200320E030E040E79A
:1007900052E40E94691860930B0170930C018093DE
:1007A0000D0190930E0110921E0191E090931F0194
:1007B00082E0809320019093040108952F923F924C
:1007C0004F925F926F927F928F929F92AF92BF9261
:1007D000CF92DF92EF92FF920F931F93DF93CF930D
:1007E000CDB7DEB7A1970FB6F894DEBF0FBECDBF71
:1007F0002C0119828CE0FE013696DF01482F1D92F4
:100800004A95E9F7FE017296DF011D928A95E9F794
:1008100010920001F2018081883211F480E057C209
:100820008F3209F0BBC089818F5F8983B7C02531C2
:10083000310509F468C026313105D4F42131310580
:1008400009F449C02231310554F42130310509F44D
:100850003FC024303105B1F1232BB9F191C02331D0
:10086000310509F446C0243131050CF049C03AC0C5
:100870002035310509F44DC02135310564F42E31A0
:100880003105E9F02533310509F440C02C3131053B
:1008900009F076C014C02B35310509F440C02C3561
:1008A00031052CF42A35310509F06AC035C02D35E3
:1008B0003105C1F12E35310509F062C036C0F2E0D4
:1008C000FE8F67C041E04E8F64C01092010161C08D
:1008D000C09201015EC010921E01C0921F01B09231
:1008E000200157C010921E01B0921F01C09220013A
:1008F00050C0C0921E01B0921F011092200149C049
:10090000C092030146C01092030143C081E08F8F63
:1009100040C0209201013DC0C09204013AC0109233
:10092000040137C0C092020134C01092020131C0EC
:1009300023303105E1F02430310534F477FD20C057
:100940002230310574F010C025303105B1F025306A
:10095000310584F02E31310539F02C33310581F425
:1009600003C0C092050115C0B092050112C0C0922B
:1009700006010FC0309206010CC01092060109C09A
:10098000A092000106C0C801B7010E94D61860936A
:100990001B01809100018823B1F02FC01F8E1E8E95
:1009A00012E0612E712C6C0E7D1E4E010894811C8C
:1009B000911CB3E0AB2EA4E02A2ECC24C394F2E029
:1009C000BF2E33243A949981F201E90FF11DD080B2
:1009D000DD2099F08D2D81548A3110F082E00BC01A
:1009E0009F5F9983C201B401A3010E941216892B53
:1009F00009F086C181E08093000180910001882385
:100A000009F065C119828CE0FE017296DF011D922A
:100A10008A95E9F7DE011696EFE0F1E08CE00190AF
:100A20000D928150E1F718A219A2E0E82E2E7FEB7B
:100A3000372E0F2EF0E06F2EF0E07F2EF0E08F2E9D
:100A4000F0E09F2EF02D5E010894A11CB11CA1C006
:100A5000C701B60123E333E34BEC51E40E94701A63
:100A60009B01AC010035C9F001355CF40634C1F0DE
:100A700006340CF48EC0802F8954833008F089C06E
:100A80003DC0033509F44BC003350CF482C0802F00
:100A90008855833008F07DC04BC03601470179C0CE
:100AA00080910201882321F028A339A31A0171C083
:100AB00080910101882389F4CA01B90120E030E066
:100AC00040E752E40E94691860930B0170930C0197
:100AD00080930D0190930E015CC0CA01B90120E022
:100AE00030E040E752E40E94691860930701709378
:100AF00008018093090190930A014BC0E02FFF2762
:100B0000E7FDF095E954F040EE0FFF1FEE0FFF1FD9
:100B1000EA0DFB1D218B328B438B548B3AC0C701EE
:100B2000B6010E94D11870931D0160931C0131C061
:100B300080910401882319F4BF8DBB2389F0E02F35
:100B4000FF27E7FDF095E855F040EE0FFF1FEE0F91
:100B5000FF1FEA0DFB1D258336834783508719C08D
:100B6000112707FD109508551040000F111F000FA9
:100B7000111F0A0D1B1DF801658176818781908503
:100B80000E94EE17D80115966D937D938D939C93DB
:100B900018979981F201E90FF11D00810023A9F056
:100BA000802F81548A3110F082E00DC09F5F9983BD
:100BB000C201B501AE014E5F5F4F0E941216892B34
:100BC00009F0B6C081E08093000180910001882384
:100BD00009F07DC080910601882371F040911C01CD
:100BE00050911D01662757FD6095762F992787FD47
:100BF00090950E94AA0602C00E94A606BE8DB13042
:100C000079F0B130D0F0B23009F056C00E944803FC
:100C10008CE0EFE0F1E0DF011D928A95E9F74CC02E
:100C2000C401B30120E030E04AE754E40E94701AA6
:100C30000E94D6180E944B033FC080910101882377
:100C400019F08130C9F517C06E817F81888599853B
:100C50002A853B854C855D85EE84FF84088919894A
:100C6000A0900B01B0900C01C0900D01D0900E012E
:100C7000882499241FC06E817F81888599852A8563
:100C80003B854C855D85EE84FF84088919898090B9
:100C90000201882051F4B0910701B8A3E091080146
:100CA000E9A32090090130900A01E8A1F9A15F01B0
:100CB000610199240E942C12AFE0B1E0FE0136964A
:100CC0008CE001900D928150E1F780910001A19696
:100CD0000FB6F894DEBF0FBECDBFCF91DF911F914D
:100CE0000F91FF90EF90DF90CF90BF90AF909F90CB
:100CF0008F907F906F905F904F903F902F900895CE
:100D00006A817B818C819D810E94441B7B018C01C7
:100D10000E94D1189B01FDE4DF1609F409CE44E5D9
:100D2000D41609F430CE87E4D81609F032CE7FCD40
:100D3000CA80DB80EC80FD8080910301882309F06C
:100D400087CEA70196018ECE249A08950E94840929
:100D50002C9808950F931F938C010E94840917FD0E
:100D600002C02D9801C02D9A2C9A1F910F910895C1
:100D7000EF92FF920F931F937B018C0122E030E0F2
:100D800040E050E00E94A61B205C3D4B404F5F4F6F
:100D9000CA01B901A80197010E94A61BC901DA0185
:100DA0000197A109B109292F3A2F4B2F552747FD4C
:100DB0005A950196A11DB11D2093C50081508093C5
:100DC000C400E0ECF0E080818D7F8083E1ECF0E016
:100DD0008081806180838081886080838081806859
:100DE00080831F910F91FF90EF90089590912201C1
:100DF00080912101891719F42FEF3FEF0CC0892F43
:100E000090E0FC01E553FD4F208101968F739070B7
:100E10008093220130E0C90108951F920F920FB60E
:100E20000F9211242F933F934F938F939F93EF93A0
:100E3000FF934091C60080912101E82FF0E03196A8
:100E40009F012F73307031978091220190E0281715
:100E5000390729F0E553FD4F408320932101FF918D
:100E6000EF919F918F914F913F912F910F900FBED6
:100E70000F901F9018959C0106C08091C00085FFBF
:100E8000FCCF9093C600F9012F5F3F4F94919923B7
:100E9000A1F708952F923F924F925F926F927F92A7
:100EA0008F929F92AF92BF92CF92DF92EF92FF927A
:100EB0000F931F93DF93CF93CDB7DEB7A0970FB6F5
:100EC000F894DEBF0FBECDBF6B017C0129013A0152
:100ED000611571058105910541F48091C00085FF80
:100EE000FCCF80E38093C60049C088249924540134
:100EF0001E010894211C311C8101080D191DC70118
:100F0000B601A30192010E94841BF801608308943A
:100F1000811C911CA11CB11CC701B601A301920147
:100F20000E94841BC901DA016C017D01C114D10446
:100F3000E104F10409F79101280D391DBE016F5F2D
:100F40007F4FD501C4010197A109B109AC0148192E
:100F5000590911C0FA01E20FF31FE081EA3010F4E1
:100F6000E05D01C0E95C8091C00085FFFCCFE093AB
:100F7000C600215030406217730761F7A0960FB684
:100F8000F894DEBF0FBECDBFCF91DF911F910F91BF
:100F9000FF90EF90DF90CF90BF90AF909F908F9099
:100FA0007F906F905F904F903F902F9008959B019E
:100FB000AC0197FF0EC08091C00085FFFCCF8DE291
:100FC0008093C60050954095309521953F4F4F4FE7
:100FD0005F4FCA01B9012AE030E040E050E00E94D2
:100FE0004A070895EF92FF920F931F93DF93CF93D9
:100FF00000D000D0CDB7DEB7AE014F5F5F4F0E948B
:101000003D1A7B018C0169817A818B819C810E94D0
:10101000D1180E94D7078091C00085FFFCCF8EE2D7
:101020008093C600C801B70120E030E04AE754E4ED
:101030000E94701A0E94D31A0E94D1180E94D707EA
:101040000F900F900F900F90CF91DF911F910F9104
:10105000FF90EF900895FC018081843221F4CF014C
:101060000E94420E0895CF010E94DE0308951F934F
:10107000CF93DF9354C0E0915501EE23F1F19A3004
:1010800011F09D30D1F5F0E0ED5DFE4F108283E26E
:1010900091E00E942B08182FC82FD0E0209719F458
:1010A00080ED90E025C088EC90E00E943B07123074
:1010B00069F0133018F4113091F405C0133049F081
:1010C000143069F409C084EB90E012C08AE990E022
:1010D0000FC082E890E00CC08BE690E009C0BE0132
:1010E000882777FD8095982F0E94D70788E690E0A3
:1010F0000E943B071092550112C0913284F0892F53
:101100008156AE2FB0E0EF5F8A3120F4AD5DBE4F67
:10111000905202C0AD5DBE4F9C93E09355010E947A
:10112000F606982F8F3F09F0A6CFDF91CF911F9140
:10113000089560E875E280E090E00E94B80688EDCE
:1011400090E00E943B0785ED90E00E943B070895E8
:10115000289AEFE6F0E080818260808308951F92F4
:101160000F920FB60F9211248F939F939BB1809192
:1011700021038C71937E892B8BB99F918F910F9056
:101180000FBE0F901F9018959B01AC01203B84E08F
:10119000380780E0480780E0580720F420EB34E06F
:1011A00040E050E060E070E788E399E30E94841B30
:1011B000C901DA01803020E0920721E0A20720E097
:1011C000B20738F4FC019C0140E050E060E070E0C0
:1011D00031C0803020E0920728E0A20720E0B2076B
:1011E000A8F473E0B695A795979587957A95D1F76A
:1011F000FC019C0140E050E063E0220F331F441FDC
:10120000551F6A95D1F761E070E014C026E0B695ED
:10121000A795979587952A95D1F7FC019C0140E009
:1012200050E086E0220F331F441F551F8A95D1F7E7
:1012300062E070E080918100962F9F5F887F982BFD
:1012400090938100F0938900E093880020936B01D4
:1012500030936C0140936D0150936E0108958AB1F3
:101260008C6F8AB98BB1837090912103892B8BB9D4
:10127000209AE1E8F0E080818F7E80838081886021
:101280008083E0E8F0E080818D7F808380818E7FA5
:10129000808380818F73808380818F7C8083109294
:1012A000B00082E08093B100E0E7F0E080818160EF
:1012B000808360E777E180E090E00E94C4081092AC
:1012C0006F011092700110927101109272012898B2
:1012D000EFE6F0E080818D7F808378940895EF922F
:1012E000FF920F931F930E94AE1760E070E080E0C2
:1012F00090E09B01AC017B018C010E94C70E1F9105
:101300000F91FF90EF90089507C083B7816083BF6E
:10131000889583B78E7F83BF0E94B40E892BA9F76F
:1013200008951F920F920FB60F921124EF92FF9221
:101330000F931F932F933F934F935F936F937F93DD
:101340008F939F93AF93BF93CF93DF93EF93FF93CD
:101350008091690190916A01892B09F005C29BB1C6
:1013600020915801822F807E9F71892B8BB98BB180
:10137000837E822B8BB92091180382E090E0A0E05D
:10138000B0E0821B9109A109B109880F991FAA1F1A
:10139000BB1F8093B20081E090E090936A0180933C
:1013A000690178948091560190915701892B09F039
:1013B00056C00E94B40EEC019093570180935601E1
:1013C000009709F446C06DA57EA58FA598A96093E6
:1013D000730170937401809375019093760110925C
:1013E0006F011092700110927101109272010E94AF
:1013F000C4088D859E85AF85B889B595A7959795C5
:101400008795B095A095909581959F4FAF4FBF4F11
:101410008093590190935A01A0935B01B0935C01B2
:1014200080935D0190935E01A0935F01B093600192
:101430008093610190936201A0936301B093640172
:101440001092650110926601109267011092680176
:1014500006C0289880916F008D7F80936F00E09187
:101460005601F0915701309709F4BAC06485609332
:1014700058012091590130915A0140915B015091DE
:101480005C0180819181A281B381280F391F4A1F9D
:101490005B1F2093590130935A0140935B01509395
:1014A0005C0112161306140615069CF46460609322
:1014B000580185859685A785B089281B390B4A0B6D
:1014C0005B0B2093590130935A0140935B01509379
:1014D0005C0120915D0130915E0140915F0150916E
:1014E000600184819581A681B781280F391F4A1F29
:1014F0005B1F20935D0130935E0140935F01509329
:1015000060011216130614061506ACF480915801FA
:1015100088608093580185859685A785B089281BAA
:10152000390B4A0B5B0B20935D0130935E014093B6
:101530005F015093600120916101309162014091FF
:1015400063015091640180859185A285B385280F40
:10155000391F4A1F5B1F2093610130936201409342
:101560006301509364011216130614061506ACF4B9
:101570008091580180618093580185859685A78563
:10158000B089281B390B4A0B5B0B20936101309308
:1015900062014093630150936401809165019091D1
:1015A0006601A0916701B09168010196A11DB11D6E
:1015B0008093650190936601A0936701B0936801E1
:1015C000258536854785508982179307A407B50777
:1015D00048F010925701109256010E94A30E02C0CB
:1015E000109258018091580190912103892780938E
:1015F000580120916B0130916C0140916D01509127
:101600006E0180916F0190917001A0917101B09174
:101610007201280F391F4A1F5B1F20936F013093FF
:101620007001409371015093720121388AE13807AB
:1016300086E0480780E0580708F492C020583A41F5
:101640004640504020936F013093700140937101E8
:1016500050937201E0915601F0915701309709F4CF
:101660007FC0E0906501F0906601009167011091E4
:10167000680181AD92ADA3ADB4ADE816F9060A07D5
:101680001B0788F465A976A987A990AD20917301FD
:10169000309174014091750150917601620F731F72
:1016A000841F951F53C0FD9680819181A281B381D3
:1016B000FD97209173013091740140917501509113
:1016C00076018E159F05A007B107B8F585A996A9E3
:1016D000A7A9B0AD82179307A407B50760F4281B2C
:1016E000390B4A0B5B0B20937301309374014093C9
:1016F00075015093760121A932A943A954A980917B
:10170000730190917401A0917501B09176018217D7
:101710009307A407B50740F4209373013093740135
:10172000409375015093760160917301709174013B
:10173000809175019091760111C0618972898389C8
:101740009489261737074807590751F060937301AA
:101750007093740180937501909376010E94C40880
:1017600010926A0110926901FF91EF91DF91CF9180
:10177000BF91AF919F918F917F916F915F914F91A9
:101780003F912F911F910F91FF90EF900F900FBEFF
:101790000F901F901895F999FECF92BD81BD81E001
:1017A0008FBB80B50895F894F999FECF92BD81BDA5
:1017B00081E08FBB40B54627842F992787FD909500
:1017C000262F30E082239323892B39F06F3F19F0C5
:1017D00060BD84E006C084E104C0442321F060BD04
:1017E00084E28FBBF99A789408958F929F92AF927A
:1017F000BF92CF92DF92EF92FF920F93DF93CF933E
:1018000000D0CDB7DEB75C016B017A014A0100E080
:101810001EC0002319F021E030E008C0202F33273C
:1018200027FD30952227330F221F3327F6016191C0
:101830006F01062F020F9C012F5F3F4F3A832983D0
:101840000E94D30B08948108910889819A818114A0
:101850009104F9F6C7018A0D9B1D602F0E94D30BDE
:101860000F900F90CF91DF910F91FF90EF90DF904D
:10187000CF90BF90AF909F908F900895CF93DF93BC
:10188000EC01FB019A0190E0B1E019C0F999FECF9B
:10189000F2BDE1BDBFBBA0B5992319F081E090E096
:1018A00008C0892F992787FD90958827990F881F51
:1018B000992731969A2F980FA993215030402115DE
:1018C000310521F7460F571FF999FECF52BD41BD93
:1018D00081E08FBB80B520E030E0981711F421E063
:1018E00030E0C901DF91CF91089580E090E00E943F
:1018F000CB0B823081F48BE093E061E070E043E257
:1019000050E00E943E0C20E0892B09F421E081E0A8
:10191000282730E029C0813029F58BE093E061E091
:1019200070E04BE150E00E943E0C892BD9F080E042
:1019300090E0A8E4B2E48093260390932703A09359
:101940002803B093290380E090E0A6E9B3E48093F4
:101950002A0390932B03A0932C03B0932D0321E033
:1019600030E002C020E030E0C901089580E090E05E
:1019700062E00E94D30B81E090E06BE073E043E211
:1019800050E00E94F50B0895FC0185309105B9F1F6
:10199000863091054CF483309105F9F0843091053F
:1019A0002CF597FF0FC05BC087309105D1F18730D0
:1019B000910574F188309105E9F18930910509F0BC
:1019C0004EC041C0EE0FFF1FEE0FFF1FE55FFC4F43
:1019D000408351836283738345C0CB01BA010E9467
:1019E000D31A0E94D618609318033CC04093190381
:1019F00050931A0360931B0370931C0333C04093EE
:101A00001D0350931E0360931F03709320032AC08D
:101A10004093220350932303609324037093250380
:101A200021C0CB01BA010E94441B0E94D6186093CA
:101A3000210318C040932603509327036093280383
:101A4000709329030FC0DB01CA01BF7780932A037B
:101A500090932B03A0932C03B0932D0303C083E535
:101A600091E004C00E94B60C8EE391E00E943B0717
:101A7000089581EF92E00E943B0760910B03709103
:101A80000C0380910D0390910E030E94F2078CEDE0
:101A900092E00E943B0760910F03709110038091C8
:101AA0001103909112030E94F20787EC92E00E94CA
:101AB0003B0760911303709114038091150390917B
:101AC00016030E94F20782EB92E00E943B076091AE
:101AD000180370E080E090E00E94D70780E992E070
:101AE0000E943B076091190370911A0380911B03B8
:101AF00090911C030E94F2078DE692E00E943B0742
:101B000060911D0370911E0380911F03909120032B
:101B10000E94F2078AE492E00E943B076091220350
:101B20007091230380912403909125030E94F20772
:101B300081E392E00E943B076091210370E080E026
:101B400090E00E94D7078EE092E00E943B076091F0
:101B5000210370E080E090E022E030E040E050E0DF
:101B60000E944A0785E092E00E943B0760912603AD
:101B70007091270380912803909129030E94F20716
:101B800082EE91E00E943B0760912A0370912B0343
:101B900080912C0390912D030E94F2078CEA91E032
:101BA0000E943B0787E691E00E943B0708950E9450
:101BB000750C892B29F08FE191E00E943B07089575
:101BC00084EE90E00E943B0784EF99EFACE3B4E42D
:101BD00080930B0390930C03A0930D03B0930E031B
:101BE00080930F0390931003A0931103B0931203FB
:101BF0008093130390931403A0931503B0931603DB
:101C00008EE18093180380E090E0AAEFB3E4809324
:101C1000190390931A03A0931B03B0931C038093A2
:101C20001D0390931E03A0931F03B093200380E035
:101C300090E0A8E4B2E48093260390932703A09356
:101C40002803B09329038DEC9CECACECBDE38093AE
:101C5000220390932303A0932403B09325031092AF
:101C6000210380E090E0A6E9B3E480932A039093F7
:101C70002B03A0932C03B0932D030E94B60C0E945B
:101C8000390D0895EF92FF920F931F93DF93CF9337
:101C9000CDB7DEB729970FB6F894DEBF0FBECDBF24
:101CA0008C0181E08983F80180818432E1F58181B2
:101CB000882319F40E94390D34C0C8017E010894AC
:101CC000E11CF11CB701AE014E5F5F4F0E9412167E
:101CD000892B59F19981F801E90FF11D80818D332C
:101CE00011F59F5F9983C801B701AE014A5F5F4F4D
:101CF0000E941216892BC9F08981080F111DF80165
:101D00008081882381F46A817B818C819D810E94FE
:101D1000D118DC01CB014E815F81688579850E94F5
:101D2000C40C80E003C083E001C081E029960FB6B7
:101D3000F894DEBF0FBECDBFCF91DF911F910F9101
:101D4000FF90EF9008959091BC028091BD0298178A
:101D500051F08091BD0290E0019665E070E00E9434
:101D6000711B8093BD0208959091BC028091BD02C9
:101D7000981719F420E030E008C09091BD0281E48A
:101D8000989F9001112429583E4FC9010895AF92A0
:101D9000BF92CF92DF92EF92FF920F931F93590160
:101DA0006A010E94D1186093BE027093BF028093B3
:101DB000C0029093C102C601B5010E94D118609380
:101DC000C2027093C3028093C4029093C502C801FB
:101DD000B7010E94D1186093C6027093C702809326
:101DE000C8029093C9021F910F91FF90EF90DF906E
:101DF000CF90BF90AF9008954F925F926F927F9275
:101E00008F929F92AF92BF92CF92DF92EF92FF920A
:101E10000F931F93CF93DF932C01EB016115710595
:101E200009F45AC0FC01E1A4F2A403A514A569A415
:101E30007AA48BA49CA4C801B701A40193010E94B9
:101E4000651888230CF048C0A9A0BAA0CBA0DCA0DC
:101E5000C601B501A80197010E94701A9B01AC014F
:101E60000E94701A7B018C01209126033091270378
:101E700040912803509129035058CA01B9010E948A
:101E8000EE1720E030E040E752E40E94701A20E0B4
:101E900030E040E752EC0E94701AF20125A136A111
:101EA00047A150A50E94701A9B01AC01C801B7015F
:101EB0000E94EE170E94F71AA60195010E94691868
:101EC0007B018C01A40193010E946518882324F4EE
:101ED000E9A6FAA60BA71CA7DF91CF911F910F913E
:101EE000FF90EF90DF90CF90BF90AF909F908F903A
:101EF0007F906F905F904F9008952F923F924F92F6
:101F00005F926F927F928F929F92AF92BF92CF9289
:101F1000DF92EF92FF920F931F93DF93CF93CDB792
:101F2000DEB768970FB6F894DEBF0FBECDBF1C01B9
:101F30006A017B0128013901DC0151966D917D9187
:101F40008D919C9154970E9402194B015C01A7014D
:101F500096010E94701A0E9452180E94D6187B01A6
:101F60008C01F10165A776A787A790ABC501B401E5
:101F7000A30192010E94701A0E9452180E94D61862
:101F800069877A878B879C87D101D1966D937D93E2
:101F90008D939C93D497D5966D917D918D919C91C5
:101FA000D89728E230E040E050E00E94521B0E94A7
:101FB000041920E030E040E752E40E94701A0E94C9
:101FC000D1182B013C01C801B7010E9402197B0105
:101FD0008C01C301B2010E9404196D837E838F833B
:101FE0009887C501B401A50194010E94701A5B0194
:101FF0006C01C801B701A80197010E94701A6D8792
:102000007E878F87988B6D817E818F8198859B01DC
:10201000AC010E94EE17698B7A8B8B8B9C8BC6016F
:10202000B5012D853E854F8558890E94ED17298978
:102030003A894B895C890E9469180E9452180E9453
:10204000D11869837A838B839C8369857A858B8594
:102050009C850E9402199B01AC010E94701A6D8B35
:102060007E8B8F8B988FA60195010E94ED177B01C7
:102070008C017094609450944094411C511C611CDC
:10208000711CC301B2010E9404199B01AC010E94A2
:10209000EE179B01AC01C801B7010E9469180E94AC
:1020A0003F19F101A584B684C784D08886017501E3
:1020B00029813A814B815C81E21AF30A040B150BEA
:1020C0000E94D118A8019701261B370B480B590B0A
:1020D000DA01C90157FF36C0C601B5010E940419D3
:1020E0009B01AC0169897A898B899C890E94701A4D
:1020F0002D853E854F8558890E94ED172D893E8993
:102100004F89588D0E94EE177B018C016D817E8175
:102110008F81988520E030E040E850E40E94701AFA
:102120009B01AC01C801B7010E9469180E945218B6
:102130000E94D11869837A838B839C8380E090E02E
:10214000A0E0B0E029813A814B815C81F10121AFAF
:1021500032AF43AF54AF2DE330E0220E331E29815E
:102160003A814B815C81820F931FA41FB51FF1013F
:1021700080839183A283B38368960FB6F894DEBF01
:102180000FBECDBFCF91DF911F910F91FF90EF90C8
:10219000DF90CF90BF90AF909F908F907F906F9087
:1021A0005F904F903F902F9008952F923F924F92C3
:1021B0005F926F927F928F929F92AF92BF92CF92D7
:1021C000DF92EF92FF920F931F93DF93CF9300D094
:1021D00000D0CDB7DEB79A8389837C836B83FA0105
:1021E000672B09F422C14115510529F021A432A41D
:1021F00043A454A429C0E0902A03F0902B0300913B
:102200002C0310912D03EB81FC8161A072A083A0AF
:1022100094A0C801B701A40193010E94651887FD2D
:102220000BC00F2EF0E02F2EF0E03F2EF0E84F2EE7
:10223000FFE35F2EF02D08C0C801B701A401930190
:102240000E9469181B012C0189819A81009709F469
:10225000BDC0FC01658976898789908DEB81FC8101
:10226000258936894789508D0E94ED179B01AC0165
:102270000E94701A3B014C01E981FA81618D728DD7
:10228000838D948DEB81FC81218D328D438D548D16
:102290000E94ED179B01AC010E94701A5B016C015A
:1022A000E981FA81658D768D878D90A1EB81FC8126
:1022B000258D368D478D50A10E94ED179B01AC01F5
:1022C0000E94701A7B018C01C401B301A601950123
:1022D0000E94EE17A80197010E94EE170E94F71ABC
:1022E0003B014C01E0902A03F0902B0300912C035A
:1022F00010912D03A80197010E94091A18165CF08D
:102300000F2EF0E06F2EF0E07F2EF0E88F2EFFE32F
:102310009F2EF02D08C0C801B701A40193010E94AF
:1023200069183B014C01C401B301A20191010E9453
:10233000091A18160CF073C0EB81FC81A1A0B2A0A1
:10234000C3A0D4A0C601B501A20191010E94701AD8
:102350009B01AC010E94701A7B018C012091260325
:102360003091270340912803509129035058CA0106
:10237000B9010E94EE1720E030E040E752E40E94ED
:10238000701A20E030E040E752EC0E94701AEB81B6
:10239000FC8125A136A147A150A50E94701A9B017E
:1023A000AC01C801B7010E94EE170E94F71AA601FE
:1023B00095010E9469187B018C01A40193010E9480
:1023C0006518882364F53701480129C0E0902A0385
:1023D000F0902B0300912C0310912D03EB81FC81D5
:1023E00061A072A083A094A0C801B701A4019301C9
:1023F0000E94651887FD0BC00F2EF0E06F2EF0E0F5
:102400007F2EF0E88F2EFFE39F2EF02D08C0C8012D
:10241000B701A40193010E9469183B014C01EB81B3
:10242000FC8161A672A683A694A60F900F900F90D0
:102430000F90CF91DF911F910F91FF90EF90DF9060
:10244000CF90BF90AF909F908F907F906F905F9054
:102450004F903F902F9008952F923F924F925F920E
:102460006F927F928F929F92AF92BF92CF92DF92A4
:10247000EF92FF920F931F93DF93CF93CDB7DEB709
:10248000EE970FB6F894DEBF0FBECDBF29013A011B
:10249000A9A6BAA6CBA6DCA69EA68DA620910B0364
:1024A00030910C0340910D0350910E032DA33EA3D8
:1024B0004FA358A70E94701A0E940D1A6BAB7CABF9
:1024C0008DAB9EAB80910F0390911003A0911103EF
:1024D000B091120389A39AA3ABA3BCA3C301B20119
:1024E00029A13AA14BA15CA10E94701A0E940D1A69
:1024F0006FAB78AF89AF9AAF20911303309114037B
:1025000040911503509116032D8F3E8F4F8F58A386
:10251000C801B7010E94701A0E940D1A6BAF7CAF00
:102520008DAF9EAF8091BC0290E0019665E070E0B7
:102530000E94711B1C0107C083B7816083BF88950F
:1025400083B78E7F83BF8091BD0290E08215930593
:1025500099F39091BC0281E4989F2001112447E7F0
:1025600051E0440E551E8091BE029091BF02A09191
:10257000C002B091C1022BA93CA94DA95EA9281B9C
:10258000390B4A0B5B0B298F3A8F4B8F5C8FD20133
:102590002D933D934D935C93139757FF0EC0DA0133
:1025A000C901B095A095909581959F4FAF4FBF4FB2
:1025B000F20180839183A283B3838091C2029091C0
:1025C000C302A091C402B091C5026FA878AC89ACD7
:1025D0009AAC681A790A8A0A9B0AD20114966D92FB
:1025E0007D928D929C92179797FE0CC08827992711
:1025F000DC0186199709A809B909F201848395833A
:10260000A683B7838091C6029091C702A091C802A9
:10261000B091C902ABACBCACCDACDEACA81AB90A67
:10262000CA0ADB0AA6019501D7FE07C02227332775
:10263000A9012A193B094C095D09D20118962D936D
:102640003D934D935C931B971496ED90FD900D91E7
:102650001C9117978D919D910D90BC91A02D8E1579
:102660009F05A007B10710F4D801C701821793078F
:10267000A407B50710F4DA01C901F201858796872E
:10268000A787B08B0097A105B10509F488C2698DB1
:102690007A8D8B8D9C8D0E9404192DA13EA14FA196
:1026A00058A50E9469186D8B7E8B8F8B988FC40103
:1026B000B3010E94041929A13AA14BA15CA10E9477
:1026C0006918698B7A8B8B8B9C8BC601B5010E9434
:1026D00004192D8D3E8D4F8D58A10E9469186D876C
:1026E0007E878F87988B6D897E898F89988D0E94D0
:1026F000411B3B014C0169897A898B899C890E9425
:10270000411B7B018C016D857E858F8598890E9498
:10271000411B5B016C01C401B301A80197010E9438
:10272000EE17A60195010E94EE170E94F71AD2013A
:1027300095966D937D938D939C939897EDA5FEA5AB
:10274000EF2B69F429A53AA54BA55CA50E94691851
:1027500020E034E244E759E40E94701A0AC060ECB9
:1027600071EE84E69CE429A53AA54BA55CA50E94E0
:1027700069180E940D1AAC01CB01DA01BC01CD0130
:102780002BA93CA94DA95EA929833A834B835C837D
:102790002FA938AD49AD5AAD2D833E834F8358875D
:1027A0002BAD3CAD4DAD5EAD29873A874B875C873D
:1027B0000E9402199B01AC0160EC71EE84E69CE47E
:1027C0000E9469187B018C016D897E898F89988DA3
:1027D000A80197010E94701AD20155966D937D93BE
:1027E0008D939C93589769897A898B899C89A801D4
:1027F00097010E94701AF201618F728F838F948FFC
:102800006D857E858F859889A80197010E94701A31
:10281000D2015D966D937D938D939C939097959641
:102820006D917D918D919C919897A80197010E943F
:10283000701A6FA778AB89AB9AABF20161A372A350
:1028400083A394A365857685878590890E94041962
:102850005B016C01A80197010E94701A0E94521836
:102860000E94D6183B014C01D20151966D937D9385
:102870008D939C93549780E090E0A0E0B0E0F2014B
:1028800081A792A7A3A7B4A76091260370912703FD
:10289000809128039091290320E030E040E752E442
:1028A0000E94701A20E030E040E252E40E94691871
:1028B0007B018C01D20195966D917D918D919C91BA
:1028C0009897A60195010E9469189B01AC01C80167
:1028D000B7010E9469180E9452180E94D118F20193
:1028E00065AB76AB87AB90AF8091CA02882349F184
:1028F000E0902A03F0902B0300912C0310912D03FC
:10290000C801B7012FA538A949A95AA90E9465187D
:1029100087FD05C0EE24FF2400E81FE30AC0C801BC
:10292000B7012FA538A949A95AA90E9469187B01A6
:102930008C01C201A701B80187019B010E947D0F94
:1029400027C0D2019D966D927D928D929C92D097D8
:10295000F20161AA72AA83AA94AAD9961D921D9225
:102960001D921C92DC979201235C3F4F1D968D9126
:102970009D910D90BC91A02DF90180839183A2833C
:10298000B383D201D5961D921D921D921C92D897A9
:10299000F201148629813A814B815C818091BE02CB
:1029A0009091BF02A091C002B091C10228173907CF
:1029B0004A075B0714F480E284872D813E814F81B2
:1029C00058858091C2029091C302A091C402B09137
:1029D000C502281739074A075B073CF4D2011C9649
:1029E0008C911C9780641C968C9329853A854B8525
:1029F0005C858091C6029091C702A091C802B091F7
:102A0000C902281739074A075B0724F4F2018485B5
:102A1000806884872092BC02AEEBB2E0FE01319662
:102A20008CE001900D928150E1F78091CA028823D9
:102A300009F4B3C0D090BC02EE24FF2440E050E083
:102A400012C0DA94D7FE02C084E0D82EFD2D21E416
:102A5000F2028001112409581E4FC801B7010E94DB
:102A6000D510A70178018091BD022D2D332727FDB8
:102A7000309590E02817390721F780E090E0B70102
:102A80000E94D5104091BD02EE24FF2420E030E0EA
:102A900014C051E445028001112409581E4FC90198
:102AA000B701A8010E94FC0EC601019665E070E026
:102AB0000E94711B482F97017801C42EDD24C7FCAA
:102AC000D0948091BC0290E0C816D90611F7C901D4
:102AD000B70140E050E00E94FC0E2091BD02882426
:102AE000992422C081E4280270011124A7E7B1E0F3
:102AF000EA0EFB1E8114910479F0F40141A552A560
:102B000063A574A5D70199960D911D912D913C91C6
:102B10009C97C4010E947D0FC601019665E070E09C
:102B20000E94711B282F4701C22EDD24C7FCD094C0
:102B30008091BC0290E0C816D906A1F6F40141A428
:102B400052A463A474A4E0902A03F0902B03009194
:102B50002C0310912D03A1A0B2A0C3A0D4A0C80142
:102B6000B701A60195010E94651887FD05C000E028
:102B700010E030E82FE309C0C801B701A6019501B4
:102B80000E9469188B01382F292FC401B301A201BB
:102B9000A32FB22F9D010E947D0F0E94A808EE96E0
:102BA0000FB6F894DEBF0FBECDBFCF91DF911F915E
:102BB0000F91FF90EF90DF90CF90BF90AF909F90DC
:102BC0008F907F906F905F904F903F902F900895DF
:102BD000CF93DF93EC0190E08091CA02811191E0E4
:102BE00080E0209709F081E0981749F00E9484095D
:102BF0001092CA02CD2B19F081E08093CA02DF91B6
:102C0000CF9108951092BC021092BD0281E090E035
:102C10000E94E8158CE0EEEBF2E0DF011D928A9550
:102C2000E9F70895AF92BF92CF92DF92EF92FF92B1
:102C30000F931F93DF93CF9300D0CDB7DEB76C0116
:102C40005B017A01FB0180818601080F111DC8011B
:102C5000BE016F5F7F4F0E94B801F70160837183EF
:102C60008283938389819A818017910719F420E0E8
:102C700030E005C08C19F501808321E030E0C90106
:102C80000F900F90CF91DF911F910F91FF90EF90D8
:102C9000DF90CF90BF90AF90089584B1817F84B9C9
:102CA00008952F923F924F925F926F927F928F92F0
:102CB0009F92AF92BF92CF92DF92EF92FF920F93CB
:102CC0001F93DF93CF9300D000D00F92CDB7DEB724
:102CD0008983262E342E2701380160911803461A65
:102CE000510861087108882311F094EE01C090EE3C
:102CF0002110986031109061222311F080EE982706
:102D00009090210399268BB1992D907E8F71982BED
:102D10009BB9862F90E0A0E0B0E08A839B83AC83D0
:102D2000BD8383B19981992329F0199903C0A4E047
:102D30009A261982222029F01A9903C0B8E09B260E
:102D40002224332029F01B9903C0E0E19E2633247E
:102D5000F981FF2329F4222019F4332009F4E6C075
:102D60008BB19CE1892E892088298BB96A817B816E
:102D70008C819D810E9402195B016C012BEA3AEA69
:102D80004AEA50E40E94701A7B018C0120E030E096
:102D900040E85FE30E946518882314F461E053C0A3
:102DA000C801B70120E030E04FE753E40E94091A60
:102DB00018160CF044C0C601B50120E030E04AE727
:102DC00054E40E9469185B016C0120E030E04AE79E
:102DD00055E40E94701A7B018C0120E030E040E84D
:102DE0005FE30E94651888231CF461E070E023C053
:102DF000C801B70120E03FEF4FE757E40E94091AEE
:102E00001816ACF4C601B50120E030E040E251E410
:102E10000E94701A0E94D61806C080E991E00197BE
:102E2000F1F76150704061157105B9F70EC0C80126
:102E3000B7010E94D618CB010197F1F706C0C8016F
:102E4000B7010E94D6186A95F1F78BB188268BB826
:102E5000C301B2010E9402195B016C012BEA3AEA3C
:102E60004AEA50E40E94701A7B018C0120E030E0B5
:102E700040E85FE30E946518882314F461E053C0C2
:102E8000C801B70120E030E04FE753E40E94091A7F
:102E900018160CF044C0C601B50120E030E04AE746
:102EA00054E40E9469185B016C0120E030E04AE7BD
:102EB00055E40E94701A7B018C0120E030E040E86C
:102EC0005FE30E94651888231CF461E070E023C072
:102ED000C801B70120E03FEF4FE757E40E94091A0D
:102EE0001816ACF4C601B50120E030E040E251E430
:102EF0000E94701A0E94D61806C080E991E00197DE
:102F0000F1F76150704061157105B9F70ACFC8013A
:102F1000B7010E94D618CB010197F1F702CFC80183
:102F2000B7010E94D6186A95F1F7FBCE0F900F906B
:102F30000F900F900F90CF91DF911F910F91FF9005
:102F4000EF90DF90CF90BF90AF909F908F907F9049
:102F50006F905F904F903F902F900895DF92EF9287
:102F6000FF920F931F930E948409D3B080E060E02A
:102F700041E020E0F0EAEF2EF6E8FF2EF1E00F2F1F
:102F8000112D0E94511681E061E040E020E00E9496
:102F9000511683B18D258E7090E0BC0176956795B2
:102FA000769567956170AC0173E0569547957A9573
:102FB000E1F7417096958795817021E030E2E32E2C
:102FC00031EAF32E37E0032F112D0E9451161F9185
:102FD0000F91FF90EF90DF9008955058BB27AA27DC
:102FE0000ED0C6C1B7D130F0BCD120F031F49F3F34
:102FF00011F41EF4ACC10EF4E095E7FB77C1E92FA4
:10300000C8D180F3BA17620773078407950718F0D1
:1030100071F49EF5F7C10EF4E0950B2EBA2FA02D9A
:103020000B01B90190010C01CA01A0011124FF2775
:10303000591B99F0593F50F4503E68F11A16F04070
:10304000A22F232F342F4427585FF3CF469537956F
:103050002795A795F0405395C9F77EF41F16BA0B34
:10306000620B730B840BBAF09150A1F0FF0FBB1FE2
:10307000661F771F881FC2F70EC0BA0F621F731F2B
:10308000841F48F4879577956795B795F7959E3F88
:1030900008F0B3CF9395880F08F09927EE0F979516
:1030A0008795089598D180F09F3740F491110EF4E0
:1030B000AAC160E070E080E89FE3089526F01B1647
:1030C000611D711D811D18C132C1ECD008F481E071
:1030D00008950CD04DC145D140F03CD130F021F4E1
:1030E0005F3F19F003C151118EC131C152D198F324
:1030F0009923C9F35523B1F3951B550BBB27AA2779
:1031000062177307840738F09F5F5F4F220F331FEA
:10311000441FAA1FA9F333D00E2E3AF0E0E830D0B6
:1031200091505040E695001CCAF729D0FE2F27D0B9
:10313000660F771F881FBB1F261737074807AB0787
:10314000B0E809F0BB0B802DBF01FF2793585F4FFC
:103150002AF09E3F510568F0C9C055C15F3FECF3AE
:10316000983EDCF3869577956795B795F7959F5FC1
:10317000C9F7880F911D9695879597F90895E1E015
:10318000660F771F881FBB1F621773078407BA0774
:1031900020F0621B730B840BBA0BEE1F88F7E095CF
:1031A000089504D06894B1112EC10895FAD088F022
:1031B0009F5790F0B92F9927B751A0F0D1F0660F23
:1031C000771F881F991F1AF0BA95C9F712C0B1303E
:1031D00081F018D1B1E0089515C1672F782F8827A5
:1031E000B85F39F0B93FCCF3869577956795B3957D
:1031F000D9F73EF490958095709561957F4F8F4FEC
:103200009F4F0895E89409C097FB3EF490958095F0
:10321000709561957F4F8F4F9F4F9923A9F0F92F9C
:1032200096E9BB279395F695879577956795B7951A
:10323000F111F8CFFAF4BB0F11F460FF1BC06F5F00
:103240007F4F8F4F9F4F16C0882311F096E911C012
:10325000772321F09EE8872F762F05C0662371F033
:1032600096E8862F70E060E02AF09A95660F771F47
:10327000881FDAF7880F9695879597F90895ABD050
:1032800080F09F3740F491110EF0BDC060E070E017
:1032900080E89FEB089526F41B16611D711D811DAA
:1032A0002BC045C0990F0008550FAA0BE0E8FEEFB0
:1032B00016161706E807F907C0F012161306E407FA
:1032C000F50798F0621B730B840B950B39F40A26F3
:1032D00061F0232B242B252B21F408950A2609F4D1
:1032E000A140A6958FEF811D811D089597F99F67D5
:1032F00080E870E060E00895882371F4772321F07E
:103300009850872B762F07C0662311F499270DC09C
:103310009051862B70E060E02AF09A95660F771F37
:10332000881FDAF7880F9695879597F908959F3F3C
:1033300049F0915028F4869577956795B7959F5FEA
:1033400080389F4F880F9695879597F908959FEF3E
:1033500080EC089500240A9416161706180609062C
:10336000089500240A9412161306140605060895FB
:10337000092E0394000C11F4882352F0BB0F40F483
:10338000BF2B11F460FF04C06F5F7F4F8F4F9F4FC3
:10339000089557FD9058440F551F59F05F3F71F045
:1033A0004795880F97FB991F61F09F3F79F08795AC
:1033B0000895121613061406551FF2CF4695F1DF35
:1033C00008C0161617061806991FF1CF86957105C5
:1033D000610508940895E5DFA0F0BEE7B91788F409
:1033E000BB279F3860F41616B11D672F782F8827EA
:1033F000985FF7CF869577956795B11D9395963928
:10340000C8F30895E894BB2766277727CB0197F97F
:10341000089548DF08F48FEF0895C3DF58F19E57F1
:1034200058F19851A0F0E9F0983020F5092E99272D
:10343000660F771F881F991F0A94D1F712C0062EB6
:10344000672F782F8827985F11F4000C07C0993FE9
:10345000B4F38695779567959395D9F7611D711D9E
:10346000811D3EF490958095709561957F4F8F4FAB
:103470009F4F08956894C7CFC5CFFA01DC01AA0F0A
:10348000BB1F9B01AC01BF5728F4222733274427D9
:1034900050781FC0B75188F4AB2F0024469537955C
:1034A0002795011CA395D2F3002069F0220F331F4A
:1034B000441FB395DAF30DD090CD61307105A0E8CB
:1034C0008A07B94630F49B01AC0166277727882725
:1034D0009078309621F0208331834283538308957E
:1034E0000BD046CF37DF28F03CDF18F0952309F0EA
:1034F000FDCE2DCF112487CF4CDFA0F3959FD1F3C4
:10350000950F50E0551F629FF001729FBB27F00D91
:10351000B11D639FAA27F00DB11DAA1F649F6627E6
:10352000B00DA11D661F829F2227B00DA11D621F35
:10353000739FB00DA11D621F839FA00D611D221FEF
:10354000749F3327A00D611D231F849F600D211DD3
:10355000822F762F6A2F11249F5750408AF0E1F076
:1035600088234AF0EE0FFF1FBB1F661F771F881FBF
:1035700091505040A9F79E3F510570F0B7CE43CF10
:103580005F3FECF3983EDCF3869577956795B795AA
:10359000F795E7959F5FC1F7FE2B880F911D9695D4
:1035A000879597F90895FDDEE0F09E37D8F09639BB
:1035B000B8F49E3848F4672F782F8827985FF9CFA2
:1035C00086957795679593959539D0F3B62FB17019
:1035D0006B0F711D811D20F48795779567959395E5
:1035E0008BCEA5CE10CF11F40EF4B1CEA0CED9DE85
:1035F000D0F39923D9F3CEF39F57550B87FF4BD0C8
:1036000056959795B0E020F4660F771F881FBB1F73
:103610001F930F9300249001A0018001F001A0E806
:103620000E0F1F1F0A1E511D601B710B8009B50B69
:1036300048F4600F711F801DB51F0E1B1F0B0A0A77
:10364000510907C02E0F3F1F4A1F0E0F1F1F0A1ED2
:10365000511D660F771F881FBB1FA695F795E7952D
:10366000F8F60617170708065B07211D311D411DD7
:103670000F911F91B901842F9158880F96958795C6
:1036800008959B01AC012CCFA6DE20F09F3708F4F3
:10369000BACE32CE4CCE91505040660F771F881F65
:1036A000D2F70895629FD001739FF001829FE00DD1
:1036B000F11D649FE00DF11D929FF00D839FF00DB1
:1036C000749FF00D659FF00D9927729FB00DE11D5D
:1036D000F91F639FB00DE11DF91FBD01CF0111243A
:1036E000089597FB092E07260AD077FD04D049D00C
:1036F00006D000201AF4709561957F4F0895F6F773
:10370000909581959F4F0895A1E21A2EAA1BBB1B8D
:10371000FD010DC0AA1FBB1FEE1FFF1FA217B3079D
:10372000E407F50720F0A21BB30BE40BF50B661FB3
:10373000771F881F991F1A9469F760957095809577
:1037400090959B01AC01BD01CF01089597FB092E17
:1037500005260ED057FD04D0D7DF0AD0001C38F460
:1037600050954095309521953F4F4F4F5F4F0895AD
:10377000F6F790958095709561957F4F8F4F9F4F8D
:103780000895AA1BBB1B51E107C0AA1FBB1FA617A8
:10379000B70710F0A61BB70B881F991F5A95A9F7FA
:1037A00080959095BC01CD010895911106C080329D
:1037B00019F089508550D0F70895992788270895E2
:1037C0002F923F924F925F926F927F928F929F9231
:1037D000AF92BF92CF92DF92EF92FF920F931F931F
:1037E000CF93DF93CDB7DEB7CA1BDB0B0FB6F894D0
:1037F000DEBF0FBECDBF09942A88398848885F8410
:103800006E847D848C849B84AA84B984C884DF8080
:10381000EE80FD800C811B81AA81B981CE0FD11D64
:103820000FB6F894DEBF0FBECDBFED010895F8943A
:02383000FFCFC8
:00000001FF
