:100000000C9440010C945D010C945D010C945D0115
:100010000C945D010C945D010C945D010C945D01E8
:100020000C945D010C94420E0C945D010C94170F1E
:100030000C945D010C945D010C945D010C945D01C8
:100040000C945D010C945D010C94BD0B0C945D014E
:100050000C945D010C945D010C945D010C945D01A8
:100060000C945D010C945D01084AD73B3BCE016EB8
:1000700084BCBFFDC12F3D6C74319ABD56833DDAFF
:100080003D00C77F11BED9E4BB4C3E916BAAAABE0E
:10009000000000803F05A84CCDB2D44EB93836A937
:1000A000020C50B9918688083CA6AAAA2ABE000074
:1000B00000803F0D0A000D0A00302E3531000D0A78
:1000C0004772626C20006F6B0D0A00272427207492
:1000D0006F2064756D702063757272656E74207325
:1000E000657474696E67730D0A0053746F7265648A
:1000F000206E65772073657474696E670D0A00550C
:100100006E6B6E6F776E20706172616D6574657273
:100110000D0A00290D0A0D0A2724783D76616C75B9
:10012000652720746F2073657420706172616D653E
:10013000746572206F72206A7573742027242720DB
:10014000746F2064756D702063757272656E7420B3
:1001500073657474696E67730D0A00202873746583
:100160007020706F727420696E76657274206D6194
:10017000736B2E2062696E617279203D2000202809
:100180006D6D2F617263207365676D656E74290DE7
:100190000A2437203D200020286D6D2F73656320D1
:1001A00064656661756C74207365656B207261743B
:1001B00065290D0A2436203D200020286D6D2F73FF
:1001C00065632064656661756C742066656564208E
:1001D00072617465290D0A2435203D200020286DA8
:1001E0006963726F7365636F6E6473207374657097
:1001F0002070756C7365290D0A2434203D20002081
:100200002873746570732F6D6D207A290D0A24335D
:10021000203D2000202873746570732F6D6D207948
:10022000290D0A2432203D20002028737465707344
:100230002F6D6D2078290D0A2431203D20002430B7
:10024000203D2000494E46494E4954594E414ECD1D
:10025000CCCC3D0AD7233C17B7D13877CC2B32957D
:1002600095E6241FB14F0A000020410000C842005B
:10027000401C4620BCBE4CCA1B0E5AAEC59D740025
:1002800011241FBECFEFD8E0DEBFCDBF11E0A0E04C
:10029000B1E0E0ECF3E302C005900D92AA32B107A1
:1002A000D9F715E0AAE2B1E001C01D92A53DB10762
:1002B000E1F70E945F010C94DE190C94000060E8E5
:1002C00075E280E090E00E94430B0E94D0120E94F1
:1002D000E10E0E9488010E942F0B0E9458050E9487
:1002E0003C0D8AB188638AB983B7816083BF8895E2
:1002F00083B78E7F83BF0E94040DF6CF0E94E61065
:100300008CE0EDE4F1E0DF011D928A95E9F70895B4
:100310008CE0EDE4F1E0DF011D928A95E9F70895A4
:100320002F923F924F925F926F927F928F929F9205
:10033000AF92BF92CF92DF92EF92FF920F931F93F3
:10034000DF93CF93CDB7DEB7A8970FB6F894DEBF93
:100350000FBECDBF29A33AA34BA35CA3ADA2BEA2FF
:10036000CFA2D8A6209132013091330140913401BF
:10037000509135012D8F3E8F4F8F58A30E943B180F
:100380000E94D8172B013C0149825A826B827C82E1
:100390008091360190913701A0913801B0913901D7
:1003A000898F9A8FAB8FBC8F69A17AA18BA19CA1F9
:1003B000298D3A8D4B8D5C8D0E943B180E94D81779
:1003C0005B016C01AD82BE82CF82D88620913A015A
:1003D00030913B0140913C0150913D012D8B3E8B72
:1003E0004F8B588FC801B7010E943B180E94D81745
:1003F0009B01AC0129873A874B875C8780914D012F
:1004000090914E01A0914F01B09150018301720172
:10041000E81AF90A0A0B1B0BED86FE860F87188B6C
:100420008091510190915201A0915301B0915401DA
:1004300015012601281A390A4A0A5B0A80915501DA
:1004400090915601A0915701B091580179018A010C
:10045000E81AF90A0A0B1B0BE98AFA8A0B8B1C8B28
:100460008928A9F060EC71EE84E69CE42DA13EA100
:100470004FA158A50E9442150E94D8175B016C013C
:100480006D857E858F859889A201910154C06D8507
:100490007E858F8598890E94DD152D8D3E8D4F8D2F
:1004A00058A10E9442150E9412193B014C01C20141
:1004B000B1010E94DD15298D3A8D4B8D5C8D0E9416
:1004C00042150E9412195B016C0169897A898B8936
:1004D0009C890E94DD152D893E894F89588D0E9487
:1004E00042150E9412197B018C01C401B301A601BF
:1004F00095010E949C14A80197010E949C140E94DF
:10050000C8182DA13EA14FA158A50E94421520E078
:1005100034E244E759E40E943B180E94D8175B017B
:100520006C016D857E858F859889A2019101E9888E
:10053000FA880B891C890E94530DADE4B1E0FE01DD
:1005400031968CE001900D928150E1F7A8960FB69C
:10055000F894DEBF0FBECDBFCF91DF911F910F91F9
:10056000FF90EF90DF90CF90BF90AF909F908F90D3
:100570007F906F905F904F903F902F9008952F92B3
:100580003F924F925F926F927F928F929F92AF9223
:10059000BF92CF92DF92EF92FF920F931F93DF9360
:1005A000CF93CDB7DEB7AC970FB6F894DEBF0FBED2
:1005B000CDBF1B012C0129A33AA34BA35CA3EDA241
:1005C000FEA20FA318A7CA01B901A80197010E94B2
:1005D0003B187B018C01C601B5010E94AA1597FF4B
:1005E00007C090958095709561957F4F8F4F9F4F75
:1005F0000E94DD159B01AC01C801B7010E944317A1
:100600007B018C0120E030E040E050E00E943B158F
:10061000882309F44EC1C801B701209149013091E6
:100620004A0140914B0150914C010E9442150E9499
:1006300028150E94AF1578A36F8F2B962EAD3FAD76
:100640002B97232BA1F080E090E00E94DB159B010B
:10065000AC0129966CAD7DAD8EAD9FAD29970E9402
:100660003B1829966CAF7DAF8EAF9FAF2997EF8D6A
:10067000F8A1BF0180E090E00E94DB157B018C01B6
:1006800069A17AA18BA19CA1A80197010E944215A2
:100690006B8F7C8F8D8F9E8FC601B501A80197014E
:1006A0000E9442156F8B788F898F9A8FC201B1019A
:1006B0000E94BE185B016C01880C991C880C991C67
:1006C000F401E35BFE4F60817181828193810E941E
:1006D000DD15F401EE5CFE4F2081318142815381B2
:1006E0000E9442157B018C01C601B5012DA13EA1DE
:1006F0004FA158A50E943B189B01AC01C801B7014E
:100700000E949B146B8B7C8B8D8B9E8BC201B101E5
:100710000E943F155B016C012396EEADFFAD239760
:100720003F01660C771C660C771CF301E35BFE4F00
:1007300060817181828193810E94DD15F301EE5CFD
:10074000FE4F20813181428153810E9442157B01FD
:100750008C01C601B5012DA13EA14FA158A50E9453
:100760003B189B01AC01C801B7010E949B146F8725
:10077000788B898B9A8B2596EEADFFAD2597EE0F82
:10078000FF1FEE0FFF1F8E010F5F1F4F7801EE0E50
:10079000FF1EE35BFE4F60817181828193810E9425
:1007A000DD1524EF39EF4CE354E40E944215D701E4
:1007B0006D937D938D939C9313971E861D86FAA649
:1007C000E9A6F801E80DF91DFCA7EBA7600E711E64
:1007D00068C0A9A5BAA56D917D918D919C912F8935
:1007E000388D498D5A8D0E949C14E9A5FAA5608325
:1007F000718382839383C201B1012B8D3C8D4D8D1A
:100800005E8D0E949C141B012C010E94BE182DA11C
:100810003EA14FA158A50E943B189B01AC016B89DA
:100820007C898D899E890E949C14ABA5BCA56D9383
:100830007D938D939C931397C201B1010E943F1544
:100840002DA13EA14FA158A50E943B189B01AC01D0
:100850006F85788989899A890E949C14F301608345
:1008600071838283938369817A818B819C812D81BD
:100870003E814F815885E984FA840B851C85299631
:10088000ACACBDACCEACDFAC29972B968EAC9FAC9C
:100890002B970E9490012D853E852F5F3F4F3E870D
:1008A0002D878D859E85AF8DB8A1A817B90708F053
:1008B00090CFAC960FB6F894DEBF0FBECDBFCF91F0
:1008C000DF911F910F91FF90EF90DF90CF90BF903D
:1008D000AF909F908F907F906F905F904F903F90E0
:1008E0002F900895AF92BF92CF92DF92EF92FF9236
:1008F0000F931F937B018C010E94570EC801B70113
:100900000E94DB155B016C0120E030E04AE755E412
:100910000E943B187B018C0120E030E040E85FE35F
:100920000E943B1588231CF461E070E024C0C801DC
:10093000B70120E03FEF4FE757E40E943617181643
:10094000B4F4C601B50120E030E040E251E40E9479
:100950003B180E94AF1580E991E005C0FC0131977A
:10096000F1F76150704061157105C1F707C0C8010A
:10097000B7010E94AF15CB010197F1F71F910F91BD
:10098000FF90EF90DF90CF90BF90AF90089580934D
:1009900078016093790140937A010895EF92FF9274
:1009A0000F931F937B018C0180915C01882351F090
:1009B000C801B70123E333E34BEC51E40E943B1839
:1009C0007B018C01B701C8011F910F91FF90EF903F
:1009D0000895AF92BF92CF92DF92EF92FF920F9362
:1009E0001F93DF93CF9300D0CDB7DEB76C015B01CF
:1009F0007A01FB0100811181080F191FC801BE0196
:100A00006F5F7F4F0E942313F7016083718382839E
:100A1000938389819A818017910731F481E08093D3
:100A2000590120E030E007C08C199D09F501918340
:100A3000808321E030E0C9010F900F90CF91DF91CA
:100A40001F910F91FF90EF90DF90CF90BF90AF90EC
:100A500008950F931F93CF93DF93EC018B01D9017E
:100A6000ED91FC911197E40FF51FE081EE2339F031
:100A7000E883E154EA3130F082E08093590120E0CC
:100A800030E010C08D919C91119701968D939C93AD
:100A9000CA01B901A8010E94E904009711F081E0A0
:100AA00090E09C01C901DF91CF911F910F910895B2
:100AB00082E2E9E5F1E0DF011D928A95E9F76091B4
:100AC000400170914101809142019091430120E0E9
:100AD00030E040E752E40E94421560936101709358
:100AE000620180936301909364016091440170916D
:100AF0004501809146019091470120E030E040E7B8
:100B000052E40E94421560936501709366018093E0
:100B10006701909368011092780191E090937901B8
:100B200082E080937A0190935D010895AF92BF9225
:100B3000CF92DF92EF92FF920F931F9379018A0178
:100B40005F770E9442150E9400155B016C01C8018D
:100B5000B70120E030E040E050E00E943617181660
:100B6000CCF0C601B50120E030E040E050E00E944A
:100B7000361718162CF46BED7FE089E490E404C07E
:100B80006BED7FE089E490ECA60195010E949B1437
:100B90005B016C01B501C6011F910F91FF90EF90B1
:100BA000DF90CF90BF90AF9008952F923F924F92D9
:100BB0005F926F927F928F929F92AF92BF92CF92ED
:100BC000DF92EF92FF920F931F93DF93CF93CDB7F6
:100BD000DEB7EE970FB6F894DEBF0FBECDBF5C0157
:100BE0001B821A8280E090E0A0E0B0E088879987BD
:100BF000AA87BB878CE0FE013C96DF01282F1D925F
:100C00002A95E9F7FE017896DF011D928A95E9F7AA
:100C100010925901F50180818832B1F08F3229F4A8
:100C20008A819B8101969B838A83D5018C91843232
:100C300009F02EC181E090E09B838A8311968C910C
:100C4000882321F40E94521280E0F0C48E010E5FCE
:100C50001F4FC501B801AE01485F5F4F0E94E90414
:100C60002A813B81F501E20FF31F80818D3309F06A
:100C7000DCC42F5F3F4F3B832A83C501B801AE011F
:100C80004C5F5F4F0E94E904EA81FB81EA0DFB1D86
:100C90008081882309F0C9C4688579858A859B8508
:100CA0000E94AA15DC01CB014C815D816E817F81A0
:100CB0000E94E111EDC06C817D818E819F810E9437
:100CC00015197B018C010E94AA1549814D3409F444
:100CD000A3C0443509F4D1C0473409F0D4C064310D
:100CE000710509F481C0653171054CF563307105FA
:100CF00009F462C0643071056CF46130710509F467
:100D000055C0623071050CF054C06115710509F4CD
:100D10004AC0B0C06131710509F451C0623171053A
:100D20002CF46430710509F0A5C03AC06231710538
:100D300009F44CC06331710509F09CC04EC06035A8
:100D4000710509F45AC0613571059CF46C31710567
:100D500021F16D3171052CF46531710509F08AC0FE
:100D600046C06E317105C9F06533710509F082C066
:100D700041C06B35710509F446C06C3571052CF422
:100D80006A35710509F076C03BC06D357105F1F12A
:100D90006E35710509F06EC03CC0B2E0B9AB73C0EE
:100DA000E1E0E9AB70C010925A016DC0D0925A01D7
:100DB0006AC0C0925A0167C090925A0164C01092F2
:100DC0007801D0927901C0927A015DC010927801C9
:100DD000C0927901D0927A0156C0D0927801C09227
:100DE000790110927A014FC0D0925C014CC01092F0
:100DF0005C0149C0F1E0FAAB46C080925A0143C0A1
:100E0000D0925D0140C010925D013DC0D0925B0167
:100E10003AC010925B0137C063307105E1F0643075
:100E2000710534F477FD26C06230710574F010C08E
:100E300065307105D1F06530710594F06E31710542
:100E400039F06C337105B1F403C0D0925E011BC060
:100E5000C0925E0118C05092600140925F0113C0C1
:100E60007092600160925F010EC01092600110925A
:100E70005F0109C09092590106C0C801B7010E94E4
:100E8000AF1560937501809159018823A9F021C0A5
:100E90001AAA19AA1E010894211C311C31E0432E04
:100EA000512C23E0922E92E0C92E66246A94762C6F
:100EB000DD24D39484E0882EC101BE016C5F7F4F96
:100EC000A5019E012E5F3F4F0E942905892B09F045
:100ED000F2CE80915901882309F0A8C31B821A829F
:100EE0008CE0FE017896DF011D928A95E9F7DE011C
:100EF0001C96E9E6F1E08CE001900D928150E1F75B
:100F00001FAA18AEB0E8B9AFEFEBEAAF66247724BA
:100F100060E070E080E090E06DA77EA78FA798ABBF
:100F200004E0202E312C2C0E3D1E12E0412E512CBF
:100F30004C0E5D1E4E010894811C911CA7C0CC80F4
:100F4000DD80EE80FF8080915C01882319F4A70189
:100F500096010AC0C701B60123E333E34BEC51E429
:100F60000E943B189B01AC010981003509F44FC078
:100F700001355CF4063401F106340CF487C0802F8F
:100F80008954833008F082C031C0033509F444C06D
:100F9000043524F4023509F079C006C0802F885545
:100FA000833008F073C041C02DA73EA74FA758ABB0
:100FB000B1E06B2E712C6AC080915B01882329F00F
:100FC0002FAB38AF49AF5AAF61C0CA01B90120E0B9
:100FD00030E040E752E40E94421560936101709353
:100FE0006201809363019093640150C0E02FFF275A
:100FF000E7FDF095E954F040EE0FFF1FEE0FFF1FE5
:10100000E80DF91D278B308F418F528F3FC0C88666
:10101000D986EA86FB863AC0C701B6010E94AA15A6
:10102000709377016093760131C080915D018823D0
:1010300019F47AA9772389F0E02FFF27E7FDF095CF
:10104000E855F040EE0FFF1FEE0FFF1FE80DF91DF2
:10105000238734874587568719C0112707FD1095C8
:1010600008551040000F111F000F111F080D191D0A
:10107000D8011B966D917D918D919C911E970E9438
:101080009C14F8016387748785879687C401B10132
:10109000A50192010E942905892B09F050CF80916A
:1010A0005901882309F0C2C280915F0190916001CB
:1010B000009759F04091760150917701662757FDCE
:1010C0006095762F0E94350B02C00E94310BF9A962
:1010D000F13041F0F130A8F0F23009F09AC20E94EC
:1010E0007E0197C2688579858A859B8520E030E0FE
:1010F0004AE754E40E943B180E94AF150E94720414
:1011000088C2B0905A0121E0B216F1F0B21628F070
:1011100033E03B1508F47DC235C06C857D858E8536
:101120009F85288939894A895B89EC88FD880E89E1
:101130001F89A0906501B0906601C0906701D090B2
:1011400068018824992463C26C857D858E859F857E
:10115000288939894A895B89EC88FD880E891F892D
:1011600080905B01882009F04BC2A0916101AFAB78
:10117000B0916201B8AFE0916301E9AFF091640111
:10118000FAAF3EC2672809F4E2C0E0917801F0E0CE
:10119000EE0FFF1FEE0FFF1F8E010F5F1F4FD801D5
:1011A000AE0FBF1FE759FE4F1B966D917D918D913C
:1011B0009C911E9720813181428153810E949B1412
:1011C0001B012C01E0917901F0E0EE0FFF1FEE0F03
:1011D000FF1F0E0F1F1FE759FE4FD8011B966D9181
:1011E0007D918D919C911E97208131814281538107
:1011F0000E949B143B014C01198E188E6DA57EA593
:101200008FA598A920E030E040E850E40E943B1808
:101210002DA53EA54FA558A90E943B187B018C0126
:10122000C201B101A20191010E943B189B01AC01D6
:10123000C801B7010E949B147B018C01C401B3015A
:10124000A40193010E943B189B01AC01C801B701A6
:101250000E949B140E94C8187B018C01C201B1013D
:10126000A40193010E9443179B01AC0117FB109549
:1012700017F91095C801B7010E9442156B017C0156
:10128000A70196010E941C19882321F085E0809314
:101290005901CCC1B3E0BB1621F4F7FAF094F7F88A
:1012A000F0946DA57EA58FA598A920E030E040E0E0
:1012B00050E00E943B15882324F4F7FAF094F7F8E5
:1012C000F09400917801A02EBB24AA0CBB1CAA0CA0
:1012D000BB1C8E010F5F1F4FA00EB11EC401B301D6
:1012E000A70196010E943B189B01AC01C201B1010C
:1012F0000E949B1420E030E040E05FE30E943B1836
:10130000F501678B708F818F928F8091790190E0CA
:10131000880F991F880F991F080F191FC201B1016B
:10132000A70196010E943B189B01AC01C401B301C7
:101330000E949C1420E030E040E05FE30E943B18F4
:10134000D80157966D937D938D939C935A97E09116
:101350007801F0E0EE0FFF1FEE0FFF1F8E010F5F11
:101360001F4FE00FF11F6789708D818D928D90580E
:10137000E0917901F0E0EE0FFF1FEE0FFF1FE00F8D
:10138000F11F2789308D418D528D50580E9496054E
:1013900069A77AA78BA79CA720917801E22EFF244A
:1013A00020917901A22EBB24EE0CFF1CEE0CFF1C39
:1013B000F801EE0DFF1D6385748585859685278967
:1013C000308D418D528D0E949B14E9E6F1E0EE0EC6
:1013D000FF1ED7012D913D914D915C910E949B1470
:1013E0006B017C01AA0CBB1CAA0CBB1C0A0D1B1DAB
:1013F000F80163857485858596852789308D418DB3
:10140000528D0E949B1429E631E0A20EB31ED50135
:101410002D913D914D915C910E949B149B01AC01DB
:10142000C701B6010E9496057B018C0129A53AA54A
:101430004BA55CA50E943B15882354F4C801B70155
:101440002BED3FE049EC50E40E949C147B018C01A1
:10145000C801B70129A53AA54BA55CA50E949B141C
:101460001B012C0180915A01833051F4C201B1015A
:101470002BED3FE049EC50E40E949B141B012C0132
:1014800080917801E82FF0E0F8A7EFA3EE0FFF1F9F
:10149000EE0FFF1FDE011196EA0FFB1FE788F08CAD
:1014A000018D128D80917901282F30E03EA32DA36C
:1014B000F901EE0FFF1FEE0FFF1FEA0FFB1F278939
:1014C000308D418D528D80917A01682E7724C30131
:1014D000880F991F880F991FA80FB91F1B966D9130
:1014E0007D918D919C911E976BAB7CAB8DAB9EAB30
:1014F000F301EE0FFF1FEE0FFF1FE759FE4FA08015
:10150000B180C280D38070915B017CA3772349F0C6
:101510008FA98BAF98AD9CAFA9ADADAFBAADBEAF43
:101520000CC0E0916101EBAFF0916201FCAF609102
:1015300063016DAF709164017EAFC801B7010E9475
:1015400043177B018C018DB79EB70A970FB6F894AD
:101550009EBF0FBE8DBF8DB69EB60894811C911C98
:101560006BA97CA98DA99EA9A60195010E949B1437
:101570005B016C01EDA1FEA1D4011196FC93EE93E9
:1015800013967C926E9212972BAD3CAD4DAD5EAD35
:10159000C901DA01F40184839583A683B7832CA162
:1015A0002087118669A57AA58BA59CA5A20191012A
:1015B0008FA098A40E94BF026C857D858E859F8533
:1015C000288939894A895B89EC88FD880E891F89B9
:1015D00080905B01ADB7BEB71A960FB6F894BEBF48
:1015E0000FBEADBF882061F4B0916101BFABE09147
:1015F0006201E8AFF0916301F9AFA0916401AAAF75
:10160000EFA9F8ADA9ADBAAD5F016D0199240E94B3
:101610009001A9E6B1E0FE013C968CE001900D92AC
:101620008150E1F78091590101C083E0EE960FB639
:10163000F894DEBF0FBECDBFCF91DF911F910F9108
:10164000FF90EF90DF90CF90BF90AF909F908F90E2
:101650007F906F905F904F903F902F900895569A93
:1016600008950E94570E5E9808950F931F938C0162
:101670000E94570E17FD02C05F9801C05F9A5E9AE4
:101680001F910F910895EF92FF920F931F937B018B
:101690008C0122E030E040E050E00E946D19205CB7
:1016A0003D4B404F5F4FCA01B901A80197010E940D
:1016B0006D19C901DA010197A109B109292F3A2F42
:1016C0004B2F552747FD5A950196A11DB11D20931B
:1016D000C50081508093C400E1ECF0E0808180611E
:1016E00080838081886080838081806880831F916F
:1016F0000F91FF90EF900895982F8091C00085FF83
:10170000FCCF9093C600089580912A0190912B01FF
:1017100088539F4F20912C0130912D01821B930BF8
:1017200068EC70E00E943819089540912C015091A6
:101730002D0180912A0190912B018417950719F4AE
:101740002FEF3FEF0FC0FA01E558FE4F2081CA018D
:10175000019668EC70E00E94381990932D018093F7
:101760002C0130E0C901089580912C0190912D0148
:1017700090932B0180932A0108951F920F920FB628
:101780000F9211242F933F934F935F936F937F9307
:101790008F939F93AF93BF93EF93FF934091C600B6
:1017A000E0912A01F0912B01CF01019668EC70E0E5
:1017B0000E9438199C0180912C0190912D012817CD
:1017C000390739F0E558FE4F408330932B012093C1
:1017D0002A01FF91EF91BF91AF919F918F917F91DE
:1017E0006F915F914F913F912F910F900FBE0F908E
:1017F0001F901895982F8091C00085FFFCCF909383
:10180000C6000895FC0107C08091C00085FFFCCF91
:1018100031969093C60090819923B1F708959C0169
:1018200006C08091C00085FFFCCF9093C600F901EF
:101830002F5F3F4F94919923A1F708952F923F92E4
:101840004F925F926F927F928F929F92AF92BF92D0
:10185000CF92DF92EF92FF920F931F93DF93CF937C
:10186000CDB7DEB7A0970FB6F894DEBF0FBECDBFE1
:101870006B017C0129013A01611571058105910512
:1018800041F48091C00085FFFCCF80E38093C600C7
:1018900049C08824992454011E010894211C311C3C
:1018A0008101080D191DC701B601A30192010E9413
:1018B0004B19F80160830894811C911CA11CB11C78
:1018C000C701B601A30192010E944B19C901DA01B7
:1018D0006C017D01C114D104E104F10409F7910107
:1018E000280D391DBE016F5F7F4FD501C4010197DF
:1018F000A109B109AC014819590911C0FA01E20F57
:10190000F31FE081EA3010F4E05D01C0E95C8091F2
:10191000C00085FFFCCFE093C60021503040621725
:10192000730761F7A0960FB6F894DEBF0FBECDBF68
:10193000CF91DF911F910F91FF90EF90DF90CF90AB
:10194000BF90AF909F908F907F906F905F904F90DF
:101950003F902F9008959B01AC0197FF0EC080919E
:10196000C00085FFFCCF8DE28093C6005095409566
:10197000309521953F4F4F4F5F4FCA01B9012AE083
:1019800030E040E050E00E941E0C0895EF92FF927C
:101990000F931F93DF93CF9300D000D0CDB7DEB766
:1019A000AE014F5F5F4F0E9408187B018C01698177
:1019B0007A818B819C810E94AA150E94AB0C809138
:1019C000C00085FFFCCF8EE28093C600C801B7013E
:1019D00020E030E04AE754E40E943B180E949E1841
:1019E0000E94AA150E94AB0C0F900F900F900F90C1
:1019F000CF91DF911F910F91FF90EF90089586ECAA
:101A000090E00E940F0C089531C0E0917502EE2322
:101A1000D9F09A3011F09D30B9F4F0E0ED5BFD4F54
:101A2000108283E492E00E94020C83EB90E00E941B
:101A30000F0C83E492E00E94D5051092750286ECAB
:101A400090E00E940F0C12C0913284F0892F8156D1
:101A5000AE2FB0E0EF5F8A3120F4AD5BBD4F905206
:101A600002C0AD5BBD4F9C93E09375020E94950B45
:101A7000982F8F3F51F6089560E875E280E090E07E
:101A80000E94430B8EEB90E00E940F0C89EB90E0DC
:101A90000E940F0C86EB90E00E940F0C86EC90E009
:101AA0000E940F0C08952F923F924F925F926F9277
:101AB0007F928F929F92AF92BF92CF92DF92EF92DE
:101AC000FF920F931F93DF93CF93CDB7DEB7289785
:101AD0000FB6F894DEBF0FBECDBF3B014C0119011C
:101AE0002A01E982FA820B831C83AD82BE82CF82F7
:101AF000D88680912E0190912F01019668E270E0C6
:101B00000E9438196C0107C083B7816083BF889534
:101B100083B78E7F83BF80913001909131018C1506
:101B20009D0591F320912E0130912F0185E190E0E8
:101B3000289F5001299FB00C389FB00C112426E833
:101B400032E0A20EB31ED5016D927D928D929C92D1
:101B5000139797FE0CC088279927DC0186199709EF
:101B6000A809B909F50180839183A283B383D501C4
:101B700014962D923D924D925C92179757FE0CC091
:101B800088279927DC0182199309A409B509F50171
:101B900084839583A683B78389819A81AB81BC8135
:101BA000B7FF07C0B095A095909581959F4FAF4F17
:101BB000BF4FF50180879187A287B387E480F580C6
:101BC0000681178120813181428153812E153F0585
:101BD0004007510710F4A8019701281739074A0751
:101BE0005B0710F49C01AD01D5011C962D933D932C
:101BF0004D935C931F97211531054105510549F11E
:101C00006D817E818F8198850E944B19F501218B12
:101C1000328B438B548B662497FC639477248824FF
:101C20009924662D660F660F660F57FC6061298147
:101C30003A814B815C8157FD6062D50150966C936F
:101C4000D0922F01C0922E0180916F00826080930C
:101C50006F0028960FB6F894DEBF0FBECDBFCF91B0
:101C6000DF911F910F91FF90EF90DF90CF90BF9089
:101C7000AF909F908F907F906F905F904F903F902C
:101C80002F9008951F920F920FB60F9211248F93E9
:101C90009F9398B1809148018770987F892B88B96C
:101CA0009F918F910F900FBE0F901F90189507C0B6
:101CB00083B7816083BF889583B78E7F83BF209170
:101CC00030013091310180912E0190912F01281720
:101CD000390771F70895F89480912E0190912F01A2
:101CE0009093310180933001109281021092800212
:101CF00078940895E4E0660F771F881F991FEA958E
:101D0000D1F7603020E0720721E0820720E09207DF
:101D100018F420E030E048C0603020E0720728E08E
:101D2000820720E0920750F453E0969587957795C7
:101D300067955A95D1F721E030E036C0603020E059
:101D4000720720E4820720E0920750F446E096955F
:101D50008795779567954A95D1F722E030E024C0C2
:101D6000603020E0720720E0820721E0920740F413
:101D7000BB27A92F982F872FBC0123E030E014C088
:101D8000603020E0720720E0820724E0920718F01C
:101D90006FEF7FEF07C02AE0969587957795679557
:101DA0002A95D1F724E030E080918100922F9F5F47
:101DB000887F982B909381007093890060938800AE
:101DC000089587B18F6387B988B1807C909148016D
:101DD000892B88B98AB1877C8AB9529AE1E8F0E008
:101DE00080818F7E8083808188608083E0E8F0E05E
:101DF00080818D7F808380818E7F808380818F73BF
:101E0000808380818F7C80831092B00082E08093F9
:101E1000B100E0E7F0E080818160808360E27EE4F1
:101E200080E090E00E947A0E5A9A789408951F926A
:101E30000F920FB60F9211242F933F934F935F93FE
:101E40006F937F938F939F93AF93BF93EF93FF9382
:101E500080917A0290917B02892B09F0A6C15B9A4E
:101E600098B12091CE05822F8873977C892B88B9F1
:101E700088B1887F822B88B920913F0182E090E071
:101E8000A0E0B0E0821B9109A109B109880F991F58
:101E9000AA1FBB1F8093B20081E090E090937B0269
:101EA00080937A0278948091800290918102892BAC
:101EB00009F076C05C9820912E0130912F0180911D
:101EC0003001909131012817390709F463C08BB1B3
:101ED00090E289278BB9209130013091310185E161
:101EE00090E0289FF001299FF00D389FF00D1124FC
:101EF000EA57FD4FF0938102E09380026189728975
:101F0000838994890E947A0EE0918002F091810287
:101F10002485358546855785DA01C901B595A7958C
:101F200097958795B095A095909581959F4FAF4FC8
:101F3000BF4F80937C0290937D02A0937E02B0936A
:101F40007F0280917C0290917D02A0917E02B091EF
:101F50007F028093820290938302A0938402B093C5
:101F6000850280917C0290917D02A0917E02B091C9
:101F70007F028093CF059093D005A093D105B093B5
:101F8000D2052093760230937702409378025093E3
:101F9000790206C080916F008D7F80936F005C9AFC
:101FA000E0918002F0918102309709F4F0C06089DD
:101FB0006093CE0580917C0290917D02A0917E027B
:101FC000B0917F022081318142815381820F931F22
:101FD000A41FB51F80937C0290937D02A0937E0284
:101FE000B0937F0280917C0290917D02A0917E024D
:101FF000B0917F02181619061A061B06DCF4616000
:102000006093CE0580917C0290917D02A0917E022A
:10201000B0917F022485358546855785821B930BB9
:10202000A40BB50B80937C0290937D02A0937E025B
:10203000B0937F028091820290918302A0918402EA
:10204000B09185022481358146815781820F931F8B
:10205000A41FB51F8093820290938302A0938402F1
:10206000B09385028091820290918302A0918402B4
:10207000B0918502181619061A061B06ECF4809119
:10208000CE0582608093CE0580918202909183027A
:10209000A0918402B09185022485358546855785B7
:1020A000821B930BA40BB50B809382029093830247
:1020B000A0938402B09385028091CF059091D005C2
:1020C000A091D105B091D2052085318542855385F7
:1020D000820F931FA41FB51F8093CF059093D00547
:1020E000A093D105B093D2058091CF059091D005F2
:1020F000A091D105B091D205181619061A061B0633
:10210000ECF48091CE0584608093CE058091CF055C
:102110009091D005A091D105B091D2052485358547
:1021200046855785821B930BA40BB50B8093CF0577
:102130009093D005A093D105B093D20580917602FB
:1021400090917702A0917802B09179020197A1094C
:10215000B1098093760290937702A0937802B093AE
:1021600079020097A105B105A1F4109281021092A5
:1021700080028091300190913101019668E270E017
:102180000E943819909331018093300102C010925F
:10219000CE058091CE059091480189278093CE0588
:1021A00010927B0210927A025B98FF91EF91BF919F
:1021B000AF919F918F917F916F915F914F913F91DF
:1021C0002F910F900FBE0F901F9018950895F999B9
:1021D000FECF92BD81BD81E08FBB80B50895F8949C
:1021E000F999FECF92BD81BD81E08FBB40B54627F6
:1021F000842F992787FD9095262F30E08223932303
:10220000892B39F06F3F19F060BD84E006C084E18E
:1022100004C0442321F060BD84E28FBBF99A789416
:1022200008958F929F92AF92BF92CF92DF92EF92DA
:10223000FF920F93DF93CF9300D0CDB7DEB75C0151
:102240006B017A014A0100E01EC0002319F021E071
:1022500030E008C0202F332727FD30952227330F89
:10226000221F3327F60161916F01062F020F9C0197
:102270002F5F3F4F3A8329830E94EF100894810813
:10228000910889819A8181149104F9F6C7018A0D18
:102290009B1D602F0E94EF100F900F90CF91DF9148
:1022A0000F91FF90EF90DF90CF90BF90AF909F90F5
:1022B0008F900895CF93DF93EC01FB019A0190E09A
:1022C000B1E019C0F999FECFF2BDE1BDBFBBA0B529
:1022D000992319F081E090E008C0892F992787FDA4
:1022E00090958827990F881F992731969A2F980FD4
:1022F000A993215030402115310521F7460F571F72
:10230000F999FECF52BD41BD81E08FBB80B520E081
:1023100030E0981711F421E030E0C901DF91CF914E
:10232000089584EF99EFACE3B4E480933201909385
:102330003301A0933401B09335018093360190931B
:102340003701A0933801B093390180933A019093FB
:102350003B01A0933C01B0933D018EE180933F018E
:1023600080E090E0A0EFB3E48093400190934101BE
:10237000A0934201B093430180934401909345019F
:10238000A0934601B09347018DEC9CECACECBDE30F
:102390008093490190934A01A0934B01B0934C0163
:1023A00010924801089580E090E061E00E94EF10F3
:1023B00081E090E062E371E04BE150E00E94111196
:1023C0000895FC018430910539F18530910534F48C
:1023D00097FD46C0833091055CF015C086309105AD
:1023E00069F1863091050CF187309105C9F52FC050
:1023F000EE0FFF1FEE0FFF1FEE5CFE4F4083518379
:102400006283738330C0CB01BA010E949E180E9480
:10241000AF1560933F0127C04093400150934101A5
:1024200060934201709343011EC040934401509356
:102430004501609346017093470115C040934901DF
:1024400050934A0160934B0170934C010CC0CB0137
:10245000BA010E9415190E94AF156093480103C08C
:102460008FEF90E004C00E94D3118AEE90E00E94AA
:102470000F0C089580E090E00E94E710813019F081
:1024800020E030E00DC082E391E061E070E04BE1DC
:1024900050E00E945A11009711F081E090E09C01F9
:1024A000C90108958EE392E00E940F0C6091320101
:1024B0007091330180913401909135010E94C60CD6
:1024C00089E292E00E940F0C609136017091370111
:1024D00080913801909139010E94C60C84E192E00C
:1024E0000E940F0C60913A0170913B0180913C0178
:1024F00090913D010E94C60C8FEF91E00E940F0C5D
:1025000060913F0170E080E090E00E94AB0C8DEDA7
:1025100091E00E940F0C6091400170914101809107
:102520004201909143010E94C60C8AEB91E00E9407
:102530000F0C60914401709145018091460190918A
:1025400047010E94C60C87E991E00E940F0C609140
:10255000490170914A0180914B0190914C010E9478
:10256000C60C8EE791E00E940F0C6091480170E06C
:1025700080E090E00E94AB0C8BE591E00E940F0C94
:102580006091480170E080E090E022E030E040E0BF
:1025900050E00E941E0C83E191E00E940F0C089510
:1025A0000E943A12892B29F08BEC90E00E940F0CCC
:1025B000089580E091E00E940F0C84EF99EFACE366
:1025C000B4E48093320190933301A0933401B0932B
:1025D00035018093360190933701A0933801B09371
:1025E000390180933A0190933B01A0933C01B09351
:1025F0003D018EE180933F0180E090E0A0EFB3E4E5
:102600008093400190934101A0934201B093430114
:102610008093440190934501A0934601B0934701F4
:102620008DEC9CECACECBDE38093490190934A01A6
:10263000A0934B01B0934C01109248010E94D3111A
:102640000E9452120895A0E0B0E0E9E2F3E10C9498
:10265000AD19EC015B016115710519F0FB01918366
:102660008083F9908F2D90E00E949C19892BC9F7E7
:10267000FDE2FF1621F4F990EE24E39405C02BE26D
:10268000F21609F4F990EE248E0101501040C801B1
:1026900064E472E043E050E00E948314892B01F56A
:1026A0008E010E5F1F4FC80167E472E045E050E005
:1026B0000E948314892B19F48E01095F1F4FA11406
:1026C000B10419F0F50111830083E0FC04C070E04F
:1026D00090E080E814C070E090E080E86FEF08C1FF
:1026E000C8016CE472E043E050E00E948314892B3F
:1026F00069F4A114B10429F470E090E080EC6FE774
:10270000F7C02296F501D183C083F6CF882499249F
:1027100040E050E060E070E0EF2DE053EA30A0F5DB
:10272000F2E0EF2A8E2D90E09C0128703070E2FEDE
:1027300006C0232B79F50894811C911C2BC0232BF8
:1027400019F0089481089108DB01CA0112E0880F92
:10275000991FAA1FBB1F1A95D1F7480F591F6A1F4F
:102760007B1F440F551F661F771F4E0F511D611DA4
:10277000711D483929E9520729E9620729E17207E1
:1027800048F084E0E82A06C0EE3F31F4E3FC39C0AB
:1027900098E0E92AF990C0CFE53311F0E53189F5E9
:1027A00029912D3219F4E0E1EE2A05C02B3219F0FF
:1027B00081E090E003C0299182E090E0E22FE053B5
:1027C000EA3018F0C81BD90B1CC020E030E0FCE058
:1027D00020383F075CF4C901880F991F880F991FA3
:1027E000280F391F220F331F2E0F311DE991E0539F
:1027F000EA3068F3E4FE03C0309521953F4F820E26
:10280000931ECE2CDD24E1FE07C0A114B10421F0FB
:102810002197F501D183C083CB01BA010E94DB155A
:102820007B018C01F3E0CF22DD2423E0C216D1042A
:1028300021F417FB109517F9109557016801C8018D
:10284000B70120E030E040E050E00E943B158823D3
:1028500009F44AC097FE0DC023E6E22E22E0F22ED4
:102860009094819491089394C0E2D0E000E010E04D
:1028700012C09BE7E92E92E0F92EF6CFF7012591E1
:10288000359145915491C601B5010E943B185B01F9
:102890006C018C1A9D0A8C169D0684F7D595C795F8
:1028A0000F5F1F4F0630110529F08CEF9FEFE80EE8
:1028B000F91EF1CFC501D6017C018D018C2D880F49
:1028C0008D2D881F8F3F51F0C601B50120E030E00B
:1028D00040E050E00E943B15882331F482E290E012
:1028E0009093D4058093D3057E2D9F2D802F612F4B
:1028F000272F392F482F562FB901CA01CDB7DEB780
:10290000ECE00C94C919FB01DC014150504088F007
:102910008D9181341CF08B350CF4805E65916134AF
:102920001CF06B350CF4605E861B611171F3990B22
:102930000895881BFCCF5058BB27AA270ED034C25D
:10294000F4D130F0F9D120F031F49F3F11F41EF4AE
:10295000C4C10EF4E095E7FB8FC1E92F47D280F3A5
:10296000BA17620773078407950718F071F49EF58C
:1029700076C20EF4E0950B2EBA2FA02D0B01B901F3
:1029800090010C01CA01A0011124FF27591B99F0E5
:10299000593F50F4503E68F11A16F040A22F232FF1
:1029A000342F4427585FF3CF469537952795A79541
:1029B000F0405395C9F77EF41F16BA0B620B730BE8
:1029C000840BBAF09150A1F0FF0FBB1F661F771F59
:1029D000881FC2F70EC0BA0F621F731F841F48F40E
:1029E000879577956795B795F7959E3F08F0B3CF94
:1029F0009395880F08F09927EE0F9795879508957E
:102A0000DF93DD27B92FBF7740E85FE3161617067F
:102A100048075B0710F4D92F8ED29F938F937F9333
:102A20006F9300D4E8E6F0E05BD1BED12F913F91E7
:102A30004F915F912CD3DD2349F09058A2EA2AED03
:102A40003FE049EC5FE3D0785D2787DFDF91ACC1E1
:102A5000EFD180F09F3740F491110EF401C260E095
:102A600070E080E89FE3089526F01B16611D711D3C
:102A7000811D08C122C1DCD008F481E0089564D131
:102A8000E395A3C10CD090C157D140F04ED130F0A6
:102A900021F45F3F19F0F0C05111E2C11EC1A6D16F
:102AA00098F39923C9F35523B1F3951B550BBB2715
:102AB000AA2762177307840738F09F5F5F4F220FC2
:102AC000331F441FAA1FA9F333D00E2E3AF0E0E8BB
:102AD00030D091505040E695001CCAF729D0FE2F07
:102AE00027D0660F771F881FBB1F26173707480799
:102AF000AB07B0E809F0BB0B802DBF01FF2793584F
:102B00005F4F2AF09E3F510568F0B6C0A9C15F3FF4
:102B1000ECF3983EDCF3869577956795B795F79536
:102B20009F5FC9F7880F911D9695879597F908952E
:102B3000E1E0660F771F881FBB1F621773078407CA
:102B4000BA0720F0621B730B840BBA0BEE1F88F7D9
:102B5000E095089504D06894B11182C108954ED1D2
:102B600088F09F5790F0B92F9927B751A0F0D1F076
:102B7000660F771F881F991F1AF0BA95C9F712C000
:102B8000B13081F06CD1B1E0089569C1672F782F21
:102B90008827B85F39F0B93FCCF38695779567956C
:102BA000B395D9F73EF490958095709561957F4FD8
:102BB0008F4F9F4F0895E89409C097FB3EF490957E
:102BC0008095709561957F4F8F4F9F4F9923A9F006
:102BD000F92F96E9BB279395F69587957795679595
:102BE000B795F111F8CFFAF4BB0F11F460FF1BC0D9
:102BF0006F5F7F4F8F4F9F4F16C0882311F096E96C
:102C000011C0772321F09EE8872F762F05C0662319
:102C100071F096E8862F70E060E02AF09A95660FD2
:102C2000771F881FDAF7880F9695879597F908958B
:102C3000990F0008550FAA0BE0E8FEEF16161706CD
:102C4000E807F907C0F012161306E407F50798F035
:102C5000621B730B840B950B39F40A2661F0232B4E
:102C6000242B252B21F408950A2609F4A140A695CA
:102C70008FEF811D811D089597F99F6780E870E0AF
:102C800060E00895882371F4772321F09850872B12
:102C9000762F07C0662311F499270DC09051862B1B
:102CA00070E060E02AF09A95660F771F881FDAF7C8
:102CB000880F9695879597F908959F3F49F0915011
:102CC00028F4869577956795B7959F5F80389F4FD5
:102CD000880F9695879597F908959FEF80EC089552
:102CE000DF93CF931F930F93FF92EF92DF927B01BD
:102CF0008C01689405C0DA2EEF01C9D1FE01E89479
:102D0000A5912591359145915591AEF3EF0125DEC1
:102D1000FE019701A801DA9479F7DF90EF90FF9018
:102D20000F911F91CF91DF91089500240A941616F8
:102D3000170618060906089500240A9412161306A9
:102D4000140605060895C9CF59D0E8F3E894EFEFCB
:102D5000BB273FE048EC5FE76B3D730784079507AF
:102D600008F1FF279F57B25A6A4D7F40894CF040C7
:102D700032F4BE556542704F8643FF4F0894EE1FF4
:102D8000915030F0BB0F661F771F881FFF1FEBCFDE
:102D90009EE7882332F0BB0F661F771F881F9A9526
:102DA000C1F79395E09589CF092E0394000C11F497
:102DB000882352F0BB0F40F4BF2B11F460FF04C016
:102DC0006F5F7F4F8F4F9F4F0895EF93E0FF06C0D7
:102DD000A2EA2AED3FE049EC5FEBBFDDE5DF0F90B3
:102DE000039401FC9058E5E9F0E031C257FD90589A
:102DF000440F551F59F05F3F71F04795880F97FBBF
:102E0000991F61F09F3F79F0879508951216130678
:102E10001406551FF2CF4695F1DF08C016161706A7
:102E20001806991FF1CF86957105610508940895DC
:102E3000E5DFA0F0BEE7B91788F4BB279F3860F440
:102E40001616B11D672F782F8827985FF7CF8695C4
:102E500077956795B11D93959639C8F30895E894D1
:102E6000BB2766277727CB0197F90895E1DE08F4A1
:102E70008FEF08955ADF19F05FDF09F02ECFFCCEF7
:102E8000B901CA011ACF9F775F77B0DF98F3992312
:102E9000B9F35523B9F3FF27951758F4E52FE91B2C
:102EA000ED3070F75E3B10F0F1E41CC09034E0F4BC
:102EB0000AC0E92FE51BED3028F79E3B10F0F1E446
:102EC00011C0503488F4F9EA88232AF09A95660FE5
:102ED000771F881FDAF744232AF05A95220F331FF1
:102EE000441FDAF79F1B5F1BFF931F930F93FF9203
:102EF000EF9279018A01BB27AB2F9B01AC01C9D0AE
:102F00009701A801BF937B018C01AA27BA2FB901B1
:102F1000CA01BFD0AF919701A801EF90FF900F9128
:102F20001F911BDD41DF34D14F9140FF089555279C
:102F300047FD509509C09B01AC0160E070E080E85E
:102F40009FE3A0CD99CEB9CE59DFE8F39923D9F309
:102F5000940F511DBBF39150504094F059F08823C9
:102F600032F0660F771F881F91505040C1F79E3F87
:102F7000510544F7880F911D9695879597F9089507
:102F80005F3FACF0983E9CF0BB27869577956795A0
:102F9000B79508F4B1609395C1F7BB0F58F711F4DA
:102FA00060FFE8CF6F5F7F4F8F4F9F4FE3CF58CFCA
:102FB00025DF58F19E5758F19851A0F0E9F098306C
:102FC00020F5092E9927660F771F881F991F0A94ED
:102FD000D1F712C0062E672F782F8827985F11F43B
:102FE000000C07C0993FB4F3869577956795939544
:102FF000D9F7611D711D811D3EF4909580957095E6
:1030000061957F4F8F4F9F4F0895689429CF27CFA9
:10301000FA01DC01AA0FBB1F9B01AC01BF5728F4CA
:1030200022273327442750781FC0B75188F4AB2F8D
:103030000024469537952795011CA395D2F30020CF
:1030400069F0220F331F441FB395DAF30DD073CC10
:1030500061307105A0E88A07B94630F49B01AC01E4
:103060006627772788279078309621F02083318350
:103070004283538308950BD097CE57DE28F05CDE51
:1030800018F0952309F0F8CD28CE1124E9CEAEDE54
:10309000A0F3959FD1F3950F50E0551F629FF0016B
:1030A000729FBB27F00DB11D639FAA27F00DB11DC4
:1030B000AA1F649F6627B00DA11D661F829F22274D
:1030C000B00DA11D621F739FB00DA11D621F839FD4
:1030D000A00D611D221F749F3327A00D611D231FAA
:1030E000849F600D211D822F762F6A2F11249F57F8
:1030F00050408AF0E1F088234AF0EE0FFF1FBB1F1B
:10310000661F771F881F91505040A9F79E3F5105B9
:1031100070F0B2CDA5CE5F3FECF3983EDCF3869520
:1031200077956795B795F795E7959F5FC1F7FE2B64
:10313000880F911D9695879597F908955FDEE0F0C9
:103140009E37D8F09639B8F49E3848F4672F782F18
:103150008827985FF9CF86957795679593959539E8
:10316000D0F3B62FB1706B0F711D811D20F48795C0
:1031700077956795939586CDA0CD72CE9F93E4DD2C
:103180000F9007FCEE5F21CE11F40EF4A6CD95CD85
:1031900035DED0F39923D9F3CEF39F57550B87FF34
:1031A0004FD056959795B0E020F4660F771F881F93
:1031B000BB1F1F930F9300249001A0018001F00119
:1031C000A0E80E0F1F1F0A1E511D601B710B800906
:1031D000B50B48F4600F711F801DB51F0E1B1F0B30
:1031E0000A0A510907C02E0F3F1F4A1F0E0F1F1F4B
:1031F0000A1E511D660F771F881FBB1FA695F795E6
:10320000E795F8F60617170708065B07211D311D1D
:10321000411D0F911F91B901842F9158880F9695E8
:10322000879508959B01AC0126CF02DE20F09F37E1
:1032300008F416CE27CD41CDFBDC880B990B089501
:1032400091505040660F771F881FD2F708959F93C3
:103250008F937F936F93FF93EF939B01AC010BDFF1
:10326000EF91FF913DDD2F913F914F915F9103CF02
:1032700097FB092E07260AD077FD04D049D006D047
:1032800000201AF4709561957F4F0895F6F7909598
:1032900081959F4F0895A1E21A2EAA1BBB1BFD0129
:1032A0000DC0AA1FBB1FEE1FFF1FA217B307E40725
:1032B000F50720F0A21BB30BE40BF50B661F771F7D
:1032C000881F991F1A9469F760957095809590955D
:1032D0009B01AC01BD01CF01089597FB092E052686
:1032E0000ED057FD04D0D7DF0AD0001C38F450951B
:1032F0004095309521953F4F4F4F5F4F0895F6F71A
:1033000090958095709561957F4F8F4F9F4F089551
:10331000AA1BBB1B51E107C0AA1FBB1FA617B707FB
:1033200010F0A61BB70B881F991F5A95A9F7809517
:103330009095BC01CD010895911106C0803219F01D
:1033400089508550D0F708959927882708952F929E
:103350003F924F925F926F927F928F929F92AF9225
:10336000BF92CF92DF92EF92FF920F931F93CF9372
:10337000DF93CDB7DEB7CA1BDB0B0FB6F894DEBF09
:103380000FBECDBF09942A88398848885F846E842F
:103390007D848C849B84AA84B984C884DF80EE8079
:1033A000FD800C811B81AA81B981CE0FD11D0FB682
:1033B000F894DEBF0FBECDBFED010895F894FFCFA6
:1033C000454550524F4D20626C616E6B2E20526508
:1033D00077726F74652064656661756C74207365BF
:0A33E0007474696E67733A0D0A00F9
:00000001FF
